:020000040800F2
:10000000280B0020150200084D1B00084F1B00089C
:10001000531B0008571B00085B1B00080000000072
:10002000000000000000000000000000611B00084C
:100030005F1B000800000000631B0008651B000830
:10004000671B0008691B00086B1B00086D1B00087C
:100050006F1B0008711B0008731B0008751B00084C
:10006000771B0008791B00087B1B00087D1B00081C
:100070007F1B0008811B0008831B0008851B0008EC
:10008000871B0008891B00088B1B00088D1B0008BC
:100090008F1B0008911B0008931B0008951B00088C
:1000A000BD1B0008BF1B0008C11B0008C31B0008C4
:1000B000C51B0008FD1B0008FF1B0008011C0008F1
:1000C000031C0008051C0008071C0008091C000888
:1000D0000B1C00080D1C00080F1C0008111C000858
:1000E000131C0008271C0008291C00082B1C0008F2
:1000F0002D1C00082F1C0008311C0008331C0008B0
:10010000351C0008371C0008391C00083B1C00087F
:100110003D1C00083F1C0008411C0008431C00084F
:10012000451C0008471C0008491C00084B1C00081F
:1001300000F002F800F05EF80AA090E8000C82449B
:100140008344AAF10107DA4501D100F053F8AFF278
:10015000090EBAE80F0013F0010F18BFFB1A43F0A5
:1001600001031847044600002446000010F8013B34
:100170000A4413F0030408BF10F8014B1D1108BF17
:1001800010F8015B641E05D010F8016B641E01F8C5
:10019000016BF9D1002D15D010F8014B03F00C03C1
:1001A0000C2BA1EB04040ABF10F8013BA4EB831451
:1001B000A4EB032405F1010314F8016B5B1E01F8A5
:1001C000016BF9D5914238BF10F8013BD1D370478C
:1001D0000023002400250026103A28BF78C1FBD850
:1001E000520728BF30C148BF0B6070471FB51FBD05
:1001F00010B510BD03F015FE1146FFF7F7FF01F033
:100200009FFC03F033FE03B4FFF7F2FF03BC03F0DF
:1002100037FE00000348004703480449044A054BE1
:10022000704700003101000828030020280B00203F
:100230002807002028070020DE48006840F0010061
:10024000DC49086008464068DB490840D9494860F5
:1002500008460068D9490840D64908600846006841
:1002600020F4802008600846406820F4FE004860C2
:10027000002088607047CF49096821F48031CD4A59
:1002800011601146096821F480211160B0F5803FAA
:1002900003D0B0F5802F0ED106E0C649096841F4BD
:1002A0008031C44A116007E0C249096841F4A021C5
:1002B000C04A116000E000BF00BF704710B50146A2
:1002C0000022002300204A11012A02D1B94C2368E0
:1002D00006E0022A02D1B74C236A01E0B54C636AFA
:1002E00001F01F02012494401C400CB1012000E0E9
:1002F000002010BD38B5002000900024002500BF6C
:100300003120FFF7DBFF05460098401C00901DB927
:100310000098B0F5A06FF3D13120FFF7CFFF08B1FF
:10032000012400E00024204638BD01460020A14AF7
:10033000106820F0F80040EAC10010607047A04942
:1003400008607047024600209A4B586820F47C10E1
:1003500042EA01031843974B586070479849086672
:10036000704701460020934A506820F0030008437C
:10037000506070478F48406800F00C00704701469D
:1003800000208C4A506820F0F0000843506070470D
:1003900001460020874A506820F4E060084350601E
:1003A000704701460020834A506820F4605040EABC
:1003B000C1005060704729B17E4A527A02437D4B9A
:1003C0005A7204E07B4A527A82437A4B5A727047DF
:1003D0007B49D8310860704701460020754A506853
:1003E00020F440400843506070470021714A203299
:1003F0001170704A82F82010012802D004280AD116
:1004000004E001216B4A2032117005E00521694AA0
:100410002032117000E000BF00BF704769490860DA
:1004200070476449096A0143624A1162704765492D
:1004300044390860704730B50021002200240023B1
:100440005C4D6D6805F00C0121B1042905D0082927
:1004500023D105E05C4D056022E05B4D05601FE0A7
:10046000544D6D6805F47012022505EB9242514D12
:100470006D6805F480341CB9544D554305600BE09C
:100480004C4D6D6805F400351DB1504D5543056068
:1004900002E04D4D5543056002E04B4D056000BF45
:1004A00000BF444D6D6805F0F0010909484D6B5CD3
:1004B0000568DD4045603F4D6D6805F4E061090A5F
:1004C000434D6B5C4568DD4085603A4D6D6805F4D1
:1004D0006051C90A3E4D6B5C4568DD40C560354DD5
:1004E0006D6805F44041890B3A4D6B5CC568B5FBFE
:1004F000F3F5056130BD29B12E4A526902432D4BF7
:100500005A6104E02B4A526982432A4B5A61704770
:1005100029B1284A92690243264B9A6104E0254A90
:1005200092698243234B9A61704729B1214AD2696B
:100530000243204BDA6104E01E4AD26982431D4B1C
:10054000DA61704729B11B4AD2680243194BDA605D
:1005500004E0184AD2688243164BDA60704729B12A
:10056000144A12690243134B1A6104E0114A1269DA
:100570008243104B1A617047124940390860704736
:100580000F49C86470470B49C87170470948406AF1
:1005900040F0807007494862704701460020054AD4
:1005A00092680A400AB1012000E00020704701492A
:1005B00088727047001002400000FFF8FFFFF6FE4F
:1005C000000042428004424200127A0000093D00CD
:1005D000524700086247000810B50446F749601A00
:1005E0008C4245D00CDCB4F1804F1DD0F44820443F
:1005F00018B3B0F5806F29D0B0F5006F54D12EE05C
:10060000B0F5806F3DD0B0F58E3F03D0B0F5923F8E
:100610004AD13FE00121C802FFF794FF00214FF4C7
:100620000060FFF78FFF40E001210846FFF797FFCA
:1006300000210120FFF793FF37E001210220FFF79F
:100640008EFF00210220FFF78AFF2EE00121042007
:10065000FFF785FF00210420FFF781FF25E001213E
:100660000820FFF77CFF00210820FFF778FF1CE03F
:1006700001211020FFF773FF00211020FFF76FFF0B
:1006800013E001212020FFF76AFF00212020FFF75F
:1006900066FF0AE001214803FFF754FF00214FF4F1
:1006A0000050FFF74FFF00E000BF00BF10BD028801
:1006B00002F08F020280CA884B881A4303881A43CB
:1006C00002808A8882850A88028501228282BD4A48
:1006D000904202D0BC4A904201D10A7A0286704709
:1006E00070B5002400220023058C4FF6FE763540BD
:1006F0000584028C8388048B4FF68F752C400D88FF
:100700002C43751E2A400D892A434D882A43CD88E3
:100710008586AC4DA84202D0AB4DA84213D14FF60E
:10072000F7752A404D892A434FF6FB752A408D887C
:100730002A4347F6FF652B4047F6FF552B408D892E
:100740002B43CD892B4383800483028470BD70B515
:10075000002400220023058C4FF6EF7635400584F7
:10076000028C8388048B48F6FF752C400D884FF669
:10077000FF7606EA05252C434FF6DF752A400D89E2
:1007800006EA05152A434D8806EA05152A43CD8851
:1007900005878C4DA84202D08B4DA8421DD14FF643
:1007A0007F752A404D894FF6FF7606EA05152A43E4
:1007B0004FF6BF752A408D8806EA05152A4347F68D
:1007C000FF352B4047F2FF752B408D8906EA8505E2
:1007D0002B43CD8906EA85052B438380048302845D
:1007E00070BD70B5002400220023058C4FF6FF6613
:1007F00035400584028C8388848B4FF68F752C409E
:100800000D882C434FF6FF552A400D894FF6FF7691
:1008100006EA05252A434D8806EA05252A43CD88A0
:100820008587684DA84202D0674DA8421DD14FF27E
:10083000FF752A404D894FF6FF7606EA05252A43C3
:100840004FF6FF352A408D8806EA05252A4346F6ED
:10085000FF752B4045F6FF752B408D8906EA05157F
:100860002B43CD8906EA05152B43838084830284BC
:1008700070BD70B5002400220023058C4EF6FF7673
:1008800035400584028C8388848B48F6FF752C40A4
:100890000D884FF6FF7606EA05252C434DF6FF75C9
:1008A0002A400D8906EA05352A434D8806EA0535B2
:1008B0002A43CD88A0F84050424DA84202D0424D74
:1008C000A84207D1C3F30D038D894FF6FF7606EAE0
:1008D00085152B4383808483028470BD828B4FF205
:1008E000FF331A408283828B4FF6FF7303EA0123A2
:1008F0001A4382837047F0B50C461546002100224A
:100900000026078C4EF6FF7C07EA0C070784818BD4
:10091000028C4FF6FF7707EA043640F6FF4739406E
:100920004FF6FF7707EA05274FF6FF7C0CEA033CFA
:1009300047EA0C0739434DF6FF773A4046F48057B3
:100940003A4381830284F0BD828B4FF6F3731A40E1
:100950008283828B0A4382837047F0B50C4615462A
:10096000002100220026078C4FF6FF6C07EA0C07D7
:100970000784818B028C4FF6FF7707EA04264FF637
:100980000C7739404FF6FF7707EA03172F433943B7
:100990004FF6FF573A4046F480773A43818302840A
:1009A000F0BD028B4FF2FF331A400283028B4FF6E9
:1009B000FF7303EA01231A430283704700100040CB
:1009C00000FCFFBF002C014000340140F0B50C4694
:1009D0001546002100220026078C4FF6EF7C07EA1F
:1009E0000C070784018B028C4FF6FF7707EA041689
:1009F00040F6FF4739404FF6FF7707EA03373943A0
:100A00004FF6FF7707EA052739434FF6DF773A407D
:100A100046F010073A4301830284F0BD028B4FF683
:100A2000F3731A400283028B0A4302837047F0B5C6
:100A30000C46154600210022068C4FF6FE773E40FC
:100A40000684018B028C4FF60C7631407E1C06EA40
:100A500003162E4331437E1E324044F001063243DA
:100A600001830284F0BD70B505460C46208850B95C
:100A70002389A28861882846FFF7D9FFE1882846A4
:100A8000FFF7CCFF25E0208804280AD12389A2881B
:100A900061882846FFF79AFFE1882846FFF781FF23
:100AA00017E0208808280AD12389A288618828466F
:100AB000FFF753FFE1882846FFF746FF09E0238947
:100AC000A28861882846FFF716FFE1882846FFF7CD
:100AD00005FF70BD2DE9F04105460C4600260127B3
:100AE000608808B9022600E00026A088012801D10C
:100AF000022700E001272088A0B92389A288618805
:100B00002846FFF794FFE1882846FFF787FF2389EF
:100B10003A4631462846FFF759FFE1882846FFF755
:100B200040FF13E02389A28861882846FFF74EFF23
:100B3000E1882846FFF735FF23893A4631462846A3
:100B4000FFF775FFE1882846FFF768FFBDE8F081F1
:100B50000A884B881A438B881A43CB881A430B891F
:100B60001A434B891A438B891A43A0F844207047D3
:100B70004FF6FF71818000210180C18041800172A8
:100B800070470021018041808180C18001814181C5
:100B90008181C181704700210180418001218180D4
:100BA0000021C18001817047002101804180818046
:100BB000C180018141818181704721B1028842F069
:100BC0000102028004E0028840F2FE331A400280F3
:100BD000704731B1B0F8442042F40042A0F84420FC
:100BE00005E0B0F84420C2F30E02A0F8442070479C
:100BF0001AB183890B43838102E083898B4383810C
:100C000070478182704741EA0203A0F8483070477C
:100C10001AB183890B43838102E083898B438381EB
:100C2000704701894FF6F8721140018170470A46FA
:100C3000002101894FF68F731940114301817047DC
:100C400030B504460D4629462046FFF7F0FF2089BF
:100C500040F00700208130BD2DE9F04104460D46EB
:100C600016461F46602D06D13B46012231462046DE
:100C7000FFF7ACFE05E03B46012231462046FFF778
:100C8000D6FE29462046FFF7D2FF208940F0070014
:100C90002081BDE8F08170B50C4600210189C9B200
:100CA00044EA02054FF6FF7606EA03263543294358
:100CB000018170BD2DE9F04105460E461746984664
:100CC000002443463A4631462846FFF7E4FF2C8984
:100CD0004FF6F870044044F007044FF68F7004405C
:100CE00044F070042C81BDE8F081F0B504460D4657
:100CF00016461F463B46324629462046FFF7CBFFA5
:100D0000208940F480402081F0BD018582827047B7
:100D10000A460021018840F28F33194011430180B7
:100D20007047F0B50C4615461E46002100220023F0
:100D30000189028B038C4FF6F877394021434FF637
:100D4000FC473A4040F201173A434FF6DD773B400B
:100D50004FF6FF7707EA06172F433B4301810283D3
:100D60000384F0BD0A460021018B4FF68F731940B2
:100D70001143018370470A460021018B48F6FF7337
:100D800019404FF6FF7303EA0223194301837047AA
:100D90000A460021818B4FF68F73194011438183DE
:100DA00070470A460021818B48F6FF7319404FF6C1
:100DB000FF7303EA022319438183704721B102883C
:100DC00042F08002028004E0028840F27F331A4041
:100DD0000280704721B1828842F00402828004E0E0
:100DE00082884FF6FB731A408280704721B1828857
:100DF00042F00802828004E082884FF6F7731A40BE
:100E00008280704721B1828842F00102828004E032
:100E100082884FF6FE731A40828070470A4600218E
:100E2000018B4FF6F77319401143018370470A464F
:100E30000021018B4FF2FF7319404FF6FF7303EA55
:100E400002231943018370470A460021818B4FF624
:100E5000F77319401143818370470A460021818B43
:100E60004FF2FF7319404FF6FF7303EA0223194351
:100E7000818370470A460021018B4FF6FB731940AE
:100E80001143018370470A460021018B4FF6FF335F
:100E900019404FF6FF7303EA022319430183704799
:100EA0000A460021818B4FF6FB7319401143818361
:100EB00070470A460021818B4FF6FF3319404FF6E9
:100EC000FF7303EA02231943818370470A46002116
:100ED000018B4FF67F7319401143018370470A4617
:100EE0000021018BC1F30E014FF6FF7303EA0223C9
:100EF0001943018370470A460021818B4FF67F73A7
:100F000019401143818370470A460021818BC1F348
:100F10000E014FF6FF7303EA0223194381837047E2
:100F20000A460021018C4FF6FD73194011430184DC
:100F300070470A460021018C4FF6F77319401143A0
:100F4000018470470A460021018C4FF6DF73194077
:100F50004FF6FF7303EA02131943018470470A46F0
:100F60000021018C4FF67F7319404FF6FF7303EA9F
:100F700002131943018470470A460021018C4FF681
:100F8000FF5319404FF6FF7303EA0223194301840C
:100F900070470A460021018C4FF2FF7319404FF64B
:100FA000FF7303EA02231943018470470A460021B4
:100FB000018C4DF6FF7319404FF6FF7303EA0233BD
:100FC00019430184704710B5038C01248C40A3435E
:100FD0000384038C02FA01F4A4B22343038410BDFA
:100FE00010B5038C04248C40A3430384038C02FAC1
:100FF00001F4A4B22343038410BD30B5038C012453
:101000008C40A343038409B1082918D100F11803C7
:1010100003EB61031B684FF68F74234000F1180443
:1010200004EB6104236000F1180303EB61031B6808
:10103000134300F1180404EB610423601FE00B1F4D
:10104000C3F34E0400F118031B5948F6FF74234004
:101050000C1FC4F34E0500F1180463510B1FC3F3BA
:101060004E0400F118031B594FF6FF7404EA0224E2
:1010700023430C1FC4F34E0500F11804635130BD27
:1010800021B1028842F00202028004E0028840F2AC
:10109000FD331A400280704721B1028842F00402F9
:1010A000028004E0028840F2FB331A40028070475D
:1010B00021B1828842F08002828004E082884FF66B
:1010C0007F731A4082807047028840F2F7331A40DB
:1010D000028002880A430280704782884FF68F732D
:1010E0001A40828082880A438280704702894FF6C4
:1010F000F8731A40028102890A430281704702890B
:101100004FF67F731A40028102890A4302817047B9
:101110008184704781857047818670470187704759
:1011200081877047A0F8401070470288D2B20280D1
:1011300002880A43028070470146888E7047014644
:10114000088F70470146888F70470146B1F840000C
:1011500070470146888C70470146088D70470246EB
:101160000020138A0B400BB1012000E000207047E3
:10117000CA430282704730B5024600200023002493
:10118000158A05EA0103958905EA010413B10CB13A
:10119000012000E0002030BDCA43028270470000F9
:1011A00010B50446C649601A8C422FD009DCC548E8
:1011B000204480B1B0F5806F16D0B0F5006F4AD1F1
:1011C0001BE0B0F5806F2AD0B0F5006F30D0B0F5DD
:1011D000406F40D135E001210420FFF7B3F9002131
:1011E0000420FFF7AFF937E001210820FFF7AAF943
:1011F00000210820FFF7A6F92EE001211020FFF7BB
:10120000A1F900211020FFF79DF925E00121202000
:10121000FFF798F900212020FFF794F91CE0012145
:101220004020FFF78FF900214020FFF78BF913E0F2
:1012300001218020FFF786F900218020FFF782F945
:101240000AE001210802FFF77DF900214FF48070C8
:10125000FFF778F900E000BF00BF10BD10B5012115
:101260000846FFF76FF900210120FFF76BF910BD69
:101270002DE9F0410246002500260020002300242D
:10128000002791F803C00CF00F0591F803C00CF093
:10129000100CBCF1000F03D091F802C04CEA050518
:1012A00091F800C0BCF1000F31D0146800202BE091
:1012B0004FF0010C0CFA00F3B1F800C00CEA030681
:1012C0009E4220D183004FF00F0C0CFA03F7BC4371
:1012D00005FA03FC4CEA040491F803C0BCF1280FA2
:1012E00006D14FF0010C0CFA00FCC2F814C00AE061
:1012F00091F803C0BCF1480F05D14FF0010C0CFA76
:1013000000FCC2F810C0401C0828D1D31460B1F80A
:1013100000C0BCF1FF0F34DD546800202EE000F166
:10132000080C4FF0010808FA0CF3B1F800C00CEA01
:1013300003069E4221D183004FF00F0C0CFA03F7F5
:10134000BC4305FA03FC4CEA040491F803C0BCF169
:10135000280F05D100F1080C08FA0CF8C2F8148027
:1013600091F803C0BCF1480F07D100F1080C4FF011
:10137000010808FA0CF8C2F81080401C0828CED3E7
:101380005460BDE8F0814FF6FF7101800221817049
:101390000421C17070470246002093680B400BB1D6
:1013A000012000E0002070470146886880B2704745
:1013B00002460020D3680B400BB1012000E0002062
:1013C00070470146C86880B270470161704741614B
:1013D00070470AB1016100E041617047C160704728
:1013E0004FF480320A43826181618261826982693D
:1013F000704702460020344B18684FF6807318403F
:1014000040EA02100843304B186070472F49C8610A
:101410007047F0B50A4600230024002100252A4E1B
:101420007168C0F3034583B200F44016B6F5401F5F
:1014300008D121F07061244E766826F07066224F44
:101440007E6012E000F48016B6F5801F06D10326F8
:1014500006FA05F4A14341F0706106E0460D36013D
:1014600003FA06F6B14341F0706122B1460D360130
:1014700003FA06F63143144E7160F0BD30B5002218
:101480008B071C0F0F2303FA04F20F4B08338C1049
:1014900053F8243093430C4C08348D1044F8253015
:1014A00023468C1053F824308C07240F00FA04F4E0
:1014B0002343054C08348D1044F8253030BD00001E
:1014C0000014014000F8FEBF00000140000020426F
:1014D00010B50446F748204430B1B0F5806F0DD008
:1014E000B0F5C05F1ED113E001214802FFF72AF8D2
:1014F00000214FF40070FFF725F814E00121880265
:10150000FFF720F800214FF48060FFF71BF80AE096
:101510000121C803FFF716F800214FF40040FFF740
:1015200011F800E000BF00BF10BD30B5024600203A
:1015300000235068E04C20400D790C6844EA0524F3
:10154000204350609068DD4C2040D1E902542C4388
:101550004D7944EA450420439060D06A20F470003D
:101560000C7C641E1C43E3B240EA0350D06230BDE1
:1015700000210160017141718160C160012101742C
:10158000704721B1826842F00102826003E0826804
:1015900022F001028260704721B1826842F48072B9
:1015A000826003E0826822F480728260704710B526
:1015B0000023CBB21AB144681C43446002E0446883
:1015C0009C43446010BD816841F008018160704710
:1015D000014600208A6802F008020AB1012000E0FA
:1015E00000207047816841F0040181607047014626
:1015F00000208A6802F004020AB1012000E0002005
:10160000704721B1826842F4A002826003E08268E0
:1016100022F4A00282607047014600208A6802F42A
:1016200080020AB1012000E00020704710B50A4690
:1016300000210023416821F46041531E41EA4331F7
:10164000416010BD21B1426842F40062426003E093
:10165000426822F4006242607047F0B504460D46CD
:1016600000200021092D11DDE068A5F10A0606EB36
:101670004607072606FA07F18843A5F10A0606EB96
:10168000460603FA06F10843E0600CE0206905EB2A
:101690004507072606FA07F1884305EB450603FAD6
:1016A00006F108432061072A0FDA606B561E06EB2D
:1016B00086071F2606FA07F18843561E06EB8606A4
:1016C00005FA06F10843606322E00D2A0FDA206B69
:1016D000D61F06EB86071F2606FA07F18843D61F9A
:1016E00006EB860605FA06F10843206310E0E06A7F
:1016F000A2F10D0606EB86071F2606FA07F18843BE
:10170000A2F10D0606EB860605FA06F10843E06233
:10171000F0BD21B1826842F48012826003E08268E9
:1017200022F48012826070470146C86C80B2704714
:1017300063480068704721B1426842F480624260A9
:1017400003E0426822F480624260704721B142683F
:1017500042F48052426003E0426822F480524260C8
:1017600070470A460021816821F4E04111438160FD
:10177000704721B1826842F40042826003E08268CF
:1017800022F400428260704721B1826842F4021262
:10179000826003E0826822F4021282607047014690
:1017A00000208A6802F400120AB1012000E0002043
:1017B0007047F0B50446154600200022002609298E
:1017C00011DDE068A1F10A0707EB470C072707FACC
:1017D0000CF29043A1F10A0707EB470703FA07F25F
:1017E0001043E0600CE0206901EB410C072707FA89
:1017F0000CF2904301EB410703FA07F2104320611A
:10180000A06BC0F30156EF1C06F1010CA7EB0C070F
:1018100007EB870C1F2707FA0CF29043EF1C06F129
:10182000010CA7EB0C0707EB870701FA07F210433F
:10183000A063F0BD10B50A4600210023816B21F49E
:101840004011531E41EA0351816310BD425070475D
:1018500002465018806A80B270470A4600214168EB
:10186000184B1940114341607047416282627047D2
:101870000A460021416821F01F0111434160704771
:1018800040B10F494439096841F400010C4A443A17
:10189000116007E00A494439096821F40001084A47
:1018A000443A116070470246002013680B405BB158
:1018B00001200AE000DCFEBFFFFEF0FFFDF7F1FFB4
:1018C0004C240140FFFD3FFF00207047CA430260E7
:1018D000704770B502460020002300240B125568A3
:1018E000CEB205EA060415681D4015B10CB1012001
:1018F00000E0002070BD00220A12D343036070474D
:10190000016821F0010101600021016041608160F6
:10191000C160874A811A90425BD012DC854AA0EBF5
:10192000020190423AD007DC83490144D9B114291D
:1019300022D028297AD128E0142938D0282975D135
:101940003EE0B1F56C7F5BD006DCB1F5627F49D03B
:10195000B1F5677F6AD14CE0B1F5717F57D0B1F531
:10196000767F63D15BE073494439496841F00F01E8
:10197000704A443A51605AE06E494439496841F02E
:10198000F0016C4A443A516051E06A49443949686F
:1019900041F47061674A443A516048E0654944390E
:1019A000496841F47041634A443A51603FE06149FB
:1019B0004439496841F470215E4A443A516036E046
:1019C0005C494439496841F470015A4A443A5160CB
:1019D0002DE058494439496841F07061554A443A0C
:1019E000516024E05549096841F00F01534A1160E4
:1019F0001DE05249096841F0F001504A116016E0BB
:101A00004E49096841F470614C4A11600FE04B493E
:101A1000096841F47041494A116008E006E047490D
:101A2000096841F47021454A116000E000BF00BF21
:101A3000704710B50022026847F6F0739A430C6AAB
:101A40008B6823430C6923434C6923438C692343EC
:101A5000CC6923434C6A23438C6A23431A430260B4
:101A6000CB6843600B6883604B68C36010BD002186
:101A7000016041608160C160016141618161C1615A
:101A8000016241628162704721B1026842F0010245
:101A9000026003E0026822F00102026070471AB19E
:101AA00003680B43036002E003688B4303607047E5
:101AB0000146486880B2704701460020002201F0CC
:101AC00080531BB11D4B1B1F1A6802E0194B443B8E
:101AD0001A6802EA01030BB1012000E00020704700
:101AE00000F0805111B11549086002E011494439F4
:101AF0004860704701460020002201F080531BB16E
:101B00000E4B1B1F1A6802E00A4B443B1A6802EA9C
:101B100001030BB1012000E00020704700F080516C
:101B200011B10649086002E0024944394860704733
:101B30008000024044000240F8FFFDBF0404024060
:101B400000F082FC01F04CFD00BFFEE7704700BFD3
:101B5000FEE700BFFEE700BFFEE700BFFEE77047FD
:101B600070477047704770477047704770477047BD
:101B700070477047704770477047704770477047AD
:101B8000704770477047704770477047704770479D
:101B9000704770472D480068401C2C4908604FF47E
:101BA00080702B4908602A48143800682849143985
:101BB000086008050088090508807047704770476D
:101BC000704770474FF08040008A00F0020060B11B
:101BD0000120204908701E48143800681C49143937
:101BE000086008050088090508804FF08040008AD9
:101BF00020F002004FF08041088270477047704724
:101C0000704770477047704770477047704770471C
:101C100070470E480068401C0C4908604FF4805023
:101C20000B490860704770477047704770477047AE
:101C300070477047704770477047704770477047EC
:101C40007047704770477047704770470400002026
:101C500014040140080000204FF0E021096921F040
:101C600004014FF0E0221161C21700EB5272C2F37F
:101C7000C702234B1A701946097801EB4102C2EBE7
:101C8000C1114FF6FF7202EAC1011E4A118070476E
:101C900001461C4A12884A434FF0E0235A61002251
:101CA0009A6101221A6100BF4FF0E022106900F032
:101CB00001021AB100F48032002AF5D000224FF060
:101CC000E0231A619A61704701460D4A12784A432F
:101CD0004FF0E0235A6100229A6101221A6100BF8D
:101CE0004FF0E022106900F001021AB100F48032D6
:101CF000002AF5D000224FF0E0231A619A61704764
:101D00000000002002000020A84A0A400243A84B1D
:101D10001A6070470146072323EA01021202A44B0E
:101D20001B1D18684FF6FF031840A24B18431043C1
:101D30009F4B1B1D186070472DE9F0478046894670
:101D400014461D462046E11704EB9171C1F3870A42
:101D5000E11704EB91718910A4EB8101CFB204204B
:101D600000EBC700C7B22846FFF7D4FFC5F1040057
:101D700008FA00F60F20284100EA0900064306F0A1
:101D80000F06202C09DA8C4801680120A04001438D
:101D90004FF0E020C0F800110BE08748001D0068FC
:101DA000A4F1200101228A4010434FF0E021C1F844
:101DB0000401824850F82A0006FA07F108437F49D7
:101DC00041F82A00BDE8F08770B504460B46CE17EF
:101DD00001EB9676C6F38700CE1701EB9676B61028
:101DE000A1EB8606B606350E754B9B6943F00103E1
:101DF000734EB3614FEAB63353F820300F26AE402E
:101E0000B343704E46F82030334653F8203004FA7E
:101E100005F61E436B4B43F820606B4B1B68012695
:101E20008E403343684E336002F0010343B1664B8A
:101E30000C331B6801268E403343634E0C363360EF
:101E400002F0020343B1604B08331E6801238B404C
:101E50001E435D4B08331E6070BD00B5002058491D
:101E60000861C8601420486100208861C861084684
:101E7000006840F001000860084640685349084087
:101E80004F49486008460068514908404C4908607D
:101E90000846006820F4802008600846406820F466
:101EA000FE0048600020886000214FF00060FFF7CE
:101EB0002BFF00BD3F48001D3D49091D08607047CC
:101EC000014649063E4A926942F001023C4B9A6142
:101ED0003C4A083A526822F0E0623A4B083B5A60AA
:101EE0001A4652680A435A60704730B504460025C6
:101EF000FFF7B3FF3248006840F480303049086093
:101F000000BF2F480068400C0028FAD04FF48060D2
:101F10002B494860A01EC4B20846406840EA84408D
:101F200048600846406840F48030486029480068AE
:101F300040F03200274908602148006840F0807076
:101F40001F49086000BF1E480068400E0028FAD0F4
:101F50001B48406840F002001949486005E01848F5
:101F60004068C0F3870505F00305022DF7D114483A
:101F7000806940F00400124988610846806940F099
:101F8000080088610846806940F0100088610846B2
:101F9000806940F0200088610846806940F0400078
:101FA00088610220FFF78CFF30BD000080FFFF1F1B
:101FB00008ED00E00000FA0500E100E000E400E0C8
:101FC0000010024008000140000401400000FFF83A
:101FD000FFFFF6FE00200240704710B5FCA2002172
:101FE000084601F00DFF012000F096FD0446224650
:101FF0000021202001F0E3FEF6A20121002001F0E3
:10200000FFFE022000F088FD044622460121202028
:1020100001F0D5FEEEA20221002001F0F1FE032026
:1020200000F07AFD044622460221202001F0C7FE7E
:10203000E9A20321002001F0E3FE042000F06CFD82
:10204000044622460321202001F0B9FE0220FFF7BA
:102050001FFE10BD10B5E1A20021084601F0D0FE20
:10206000012000F04EFD0446224600210F2001F021
:10207000DBFD202001F0F3FC022000F042FD0446CD
:1020800022460021272001F0CFFD202001F0E7FCAF
:10209000032000F036FD0446224600213F2001F0D7
:1020A000C3FD0220FFF7F4FDCDA20121002001F0C5
:1020B000A7FE042000F025FD0446224601210F2042
:1020C00001F0B2FD202001F0CAFC052000F019FD4E
:1020D000044622460121272001F0A6FD202001F020
:1020E000BEFC062000F00DFD0446224601213F20E3
:1020F00001F09AFD0220FFF7CBFDBAA202210020D9
:1021000001F07EFE072000F0FCFC0446224602217E
:102110000F2001F089FD202001F0A1FC082000F033
:10212000F0FC044622460221272001F07DFD2020FC
:1021300001F095FC092000F0E4FC0446224602214F
:102140003F2001F071FD0220FFF7A2FDA6A20321AE
:10215000002001F055FE0A2000F0D3FC0446224680
:1021600003210F2001F060FD202001F078FC0B20FE
:1021700000F0C7FC044622460321272001F054FD4D
:10218000202001F06CFC0C2000F0BBFC0446224631
:1021900003213F2001F048FD0220FFF779FD93A2C3
:1021A0000421002001F02CFE0D2000F0AAFC0446C2
:1021B000224604210F2001F037FD202001F04FFCC2
:1021C0000E2000F09EFC044622460421272001F048
:1021D0002BFD202001F043FC0F2000F092FC044670
:1021E000224604213F2001F01FFD0220FFF750FD91
:1021F00080A20521002001F003FE102000F081FCE8
:102200000446224605210F2001F00EFD0220FFF7B3
:102210003FFD10BD70B50125012478A218211420BE
:1022200001F0EEFDCFE07748006878B17548001DF9
:10223000006858B173480830006838B172480068C7
:1022400020B17148001D0068002873D10A20FFF7F3
:102250001FFD6C48006878B16A48001D006858B1DD
:1022600068480830006838B16748006820B166489F
:10227000001D006800283AD101F0E1FB62480068C7
:1022800010B9681EC5B21AE05E48006830B9012D69
:1022900015D1082C13DA601CC4B210E05948001D97
:1022A000006830B9012D0AD1012C08DD601EC4B2CE
:1022B00005E054480830006808B9681CC5B200BF82
:1022C000504800680028FBD04E48001D00680028D8
:1022D000F6D04C48083000680028F1D04A48006821
:1022E0000028EDD04848001D00680028E8D0012DE6
:1022F00035D1092C32D2DFE804F031050B11171E5D
:10230000242A30003DA21821142001F079FD25E097
:102310003EA21821142001F073FD1FE03DA21821F8
:102320000C2001F06DFD19E03CA218210C2001F0F9
:1023300067FD13E013E03BA21821082001F060FDC7
:102340000CE03BA21821082001F05AFD06E03CA257
:102350001821082001F054FD00E000BF00BF022D4D
:1023600031D1082C2BD2DFE804F02A04070A0D0E25
:102370001E27FFF76FFE22E0FFF72FFE1FE0FFF79B
:102380002BFE1CE01BE001F007F81E480830006837
:1023900040B90A20FFF77CFC1A480830006808B9E9
:1023A00001F009F80BE000F0B1FF064632460121CA
:1023B0000A2001F039FC02E001F0E5F900BF00BF9E
:1023C000C820FFF765FC002D7FF42DAF70BD000025
:1023D00044313A0044323A0044343A0041303A0041
:1023E00041333A0041363A0041393A004131323AFC
:1023F000000000004131353A0000000041302D411D
:1024000031350000280122420081224244312D440E
:10241000340000004431362D443232004433342D30
:1024200044343900636F6D7061737320666978009E
:10243000636F6D70617373207265616400000000EA
:10244000636F6C6F7200000010B50920FFF74DFD3F
:102450004820FFF701FC01F02FFB00F013F800F01B
:102460003BF800F0ABF800F025FB00F047FC00F073
:1024700001FE00F059FC00F039FE01F049F8FFF7C9
:10248000C9FE10BD1348006820F47060114908604F
:102490000846006840F4407008600E480C30006840
:1024A00040F004000B490C3108600A48006820F431
:1024B0007040084908600846006840F440500860D1
:1024C00004480C30006840F0080002490C310860F4
:1024D000704700000018014000B589B0012140F6A6
:1024E0004100FEF715F8CD48FEF776F80121CC48FB
:1024F000FEF78FFF4FF4D440ADF8040018208DF89C
:10250000070003208DF8060001A9C648FEF7B0FEBB
:1025100044F62060ADF80C004720ADF8080000201C
:10252000ADF80E00ADF80A0002A9BC48FEF7BFF8EE
:102530006020ADF814000120ADF816000020ADF8C1
:102540001A00ADF81C0005A9B448FEF7C9F8082127
:10255000B248FEF763FC0020ADF81A0005A9AF48A9
:10256000FEF7F5F80821AD48FEF761FC0020ADF854
:102570001A0005A9A948FEF734F90821A748FEF773
:1025800063FC0020ADF81A0005A9A448FEF771F914
:102590000821A248FEF761FC0121A048FEF70EFCCD
:1025A00001219E48FEF709FB9C484430008840F416
:1025B00000409A494431088009B000BD00B589B097
:1025C00001210420FDF7B1FF4FF47A70ADF80C0043
:1025D0004720ADF808000020ADF80E00ADF80A0065
:1025E00002A99148FEF763F86020ADF814000120BD
:1025F000ADF816000020ADF81A00ADF81C0005A9D2
:102600008948FEF76DF808218748FEF707FC00208F
:10261000ADF81A0005A98448FEF799F80821824808
:10262000FEF705FC01218048FEF7C8FB01217E482A
:10263000FEF7C3FAC020ADF8040018208DF807009B
:1026400003208DF8060001A97848FEF711FE7848AE
:10265000006820F07040764908600846006840F045
:102660004050086072480C30006840F080007049AB
:102670000C3108606D48006820F470406B490860B8
:102680000846006840F44050086068480C30006814
:1026900040F0800065490C31086009B000BD002899
:1026A0000CDD00EB80024FF6FF7303EA42025E4B43
:1026B00034331A8000225F4B1A600EE000280CDCD5
:1026C000424202EB82024FF6FF7303EA4202564B8C
:1026D00034331A800122574B1A6000290CDD01EBBC
:1026E00081024FF6FF7303EA42024F4B38331A80E0
:1026F0000022514B1A600EE000290CDC4A4202EB2A
:1027000082024FF6FF7303EA4202474B38331A80C6
:102710000122494B1A60704700280ADD64214143B9
:10272000092291FBF2F101F2DC513C4A3432118072
:1027300010E028B940F2DC51384A3432118009E007
:1027400064214143092291FBF2F101F2DC51334A49
:1027500034321180704700280BDD00EB8001090145
:10276000092291FBF2F101F2DC512C4A383211803E
:1027700011E028B940F2DC51284A383211800AE0D1
:1027800000EB80010901092291FBF2F101F2DC5119
:10279000224A38321180704700280BDD00EB80019F
:1027A0000901092291FBF2F101F2DC511B4A3C3292
:1027B000118011E028B940F2DC51184A3C321180F6
:1027C0000AE000EB80010901092291FBF2F101F21C
:1027D000DC51124A3C321180704700280BDD00EBBF
:1027E00080010901092291FBF2F101F2DC510B4A4F
:1027F0004032118011E028B940F2DC51074A4032E2
:1028000011800AE000EB80010901092291FBF2F13D
:1028100001F2DC51014A403211807047002C014026
:10282000C00016000018014000080040000C0140E4
:10283000001401409C8122428C81214200B58BB062
:10284000F748FFF75DF8F7480090F748019000203F
:1028500002904FF44870039000200490802005906F
:102860004000069080000790202008900002099008
:1028700000200A906946EA48FFF7DBF80BB000BD7C
:1028800000B585B0E7484C38FEF722FE00200090E6
:1028900001208DF804008DF805004FF460200290AF
:1028A0000020039010208DF810006946DD484C3858
:1028B000FEF73BFE072301220021DA484C38FEF7E1
:1028C000CCFE072302220121D6484C38FEF7C5FE74
:1028D000072303220221D3484C38FEF7BEFE07230C
:1028E00004220321CF484C38FEF7B7FE0723052208
:1028F0000421CC484C38FEF7B0FE07230622052100
:10290000C8484C38FEF7A9FE07231A460621C548D9
:102910004C38FEF7A2FE072308221946C1484C385E
:10292000FEF79BFE072309220821BE484C38FEF71C
:1029300094FE07230A220921BA484C38FEF78DFE7F
:1029400007230B220A21B7484C38FEF786FE0723DF
:102950000C220B21B3484C38FEF77FFE07230D22D3
:102960000C21B0484C38FEF778FE07230E220D21CB
:10297000AC484C38FEF771FE07230F220E21A94800
:102980004C38FEF76AFE072310220F21A5484C3869
:10299000FEF763FE0121A3484C38FEF7FDFD01213F
:1029A000A0484C38FEF7EDFD9E484C38FEF70BFE74
:1029B00000BF9C484C38FEF70BFE0028F9D199481F
:1029C0004C38FEF70FFE00BF96484C38FEF70FFE5E
:1029D0000028F9D105B000BD08B5FF20ADF8000012
:1029E00000208DF8030003208DF8020069468F480F
:1029F000FEF73EFC0320ADF8000000208DF8030038
:102A000003208DF8020069468948FEF731FC3F201B
:102A1000ADF8000000208DF8030003208DF80200BF
:102A200069468448FEF724FC4FF48070ADF800003E
:102A300048208DF8030069467C48FEF719FC4FF4E6
:102A40007C40ADF8000048208DF8030069467848C6
:102A5000FEF70EFC4FF46070ADF8000048208DF8D2
:102A6000030069467348FEF703FC4FF63870ADF873
:102A7000000048208DF8030069466F48FEF7F8FB18
:102A80004FF41540ADF8000048208DF8030069466A
:102A90006A48FEF7EDFB08BD10B501214802FDF7BD
:102AA00037FD4FF40040FDF797FC01210846FDF784
:102AB00022FD10BD10B5FFF7EFFFFFF78DFFFFF709
:102AC000DFFEFFF7BBFE012156484C38FEF799FDAB
:102AD00001215348FEF7D8FF10BD10B50021002298
:102AE00005E0514B33F810301944531CDAB2322A46
:102AF000F7DB322391FBF3F3514C24F81030002123
:102B000010BD10B50446611EC8B2FFF7E6FF601E97
:102B10004B4931F8100010BD01460020172914D28E
:102B2000DFE801F0E40C141D262F374049525B64A6
:102B30006C75969EA7B0B9C2CAD3DC00414A126830
:102B4000012A01D1012000E00020CFE03D4A0832F7
:102B50001268012A01D1012000E00020C6E0394AB4
:102B600010321268012A01D1012000E00020BDE0EE
:102B7000344A1C321268012A01D1012000E00020F1
:102B8000B4E0314A1268012A01D1012000E000209E
:102B9000ACE02D4A121D1268012A01D1012000E08B
:102BA0000020A3E0284A08321268012A01D101203E
:102BB00000E000209AE0244A0C321268012A01D178
:102BC000012000E0002091E01F4A10321268012A23
:102BD00001D1012000E0002088E01B4A1432126875
:102BE000012A01D1012000E000207FE0174A12688D
:102BF000012A01D1012000E0002077E0134A121DD4
:102C00001268012A01D1012000E000206EE00F4A85
:102C100008321268012A01D1012000E0002065E09D
:102C2000080002404C2401404002002000080140FE
:102C3000000C014000100140001401400018014048
:102C4000A402002020012342288121422081224227
:102C5000274A1268012A01D1012000E0002045E046
:102C6000234A121D1268012A01D1012000E0002030
:102C70003CE01F4A08321268012A01D1012000E01D
:102C8000002033E01A4A0C321268012A01D10120D7
:102C900000E000202AE0164A10321268012A01D111
:102CA000012000E0002021E0124A1268012A01D12F
:102CB000012000E0002019E00E4A121D1268012ACE
:102CC00001D1012000E0002010E00A4A0832126819
:102CD000012A01D1012000E0002007E0064A126825
:102CE000012A01D1012000E0002000BF00BF704791
:102CF0002C8122421C012242200121420948006805
:102D000020F47060074908600846006840F440708D
:102D1000086004480C30006840F0040001490C31A0
:102D20000860704700140140CF48006820F47F001D
:102D3000CD4908600846006840F44C100860CA4855
:102D40000C30006840F01000C7490C31086008469C
:102D5000006840F020000860704710B5C248006865
:102D600020F47000C04908600846006840F4401034
:102D700008600120BD490860BD49C1F890010420E8
:102D8000FEF7A2FF0020B94908600420FEF79CFF6F
:102D90000020B749C1F8900110BD10B5B2480068D5
:102DA00020F47000B04908600846006840F4401004
:102DB00008600020AD49091F0860AD49C1F89401C1
:102DC0000420FEF781FF0120A849091F0860A849D7
:102DD000C1F894010420FEF777FF10BD10B5002460
:102DE000A148006820F470009F4908600846006808
:102DF00040F40000086001209C490860FEF764FF71
:102E000001209B49C1F89001FEF75EFF07E0601CBE
:102E1000C4B2FA2C03DDFFF7C0FF012010BD9348B8
:102E2000803800680028F2D19049091F086000BF6F
:102E3000F4E710B500208D49091F08608A48006832
:102E400020F47000884908600846006840F440108B
:102E5000086000208649C1F894010220FEF734FF83
:102E600001208249091F08600220FEF72DFF002083
:102E70007F49C1F8900110BD10B500207B49091FA2
:102E800008607948006820F47000774908600846B7
:102E9000006840F44010086001207549C1F89401B1
:102EA0000220FEF711FF01207049091F086002206F
:102EB000FEF70AFF00206E49C1F8900110BD70B501
:102EC00004466948006820F47000674908600846B5
:102ED000006840F44010086000206449091F086041
:102EE000002517E0E009614908606006040E022031
:102EF000FEF7EAFE01205E49C1F890010220FEF7CC
:102F0000E3FE00205949091F08600220FEF7DCFE9D
:102F1000681CC5B2082DE5DB70BD70B50546002400
:102F20005148006820F470004F4908600846006866
:102F300040F400000860002617E000204B49091FFC
:102F400008600220FEF7C0FE01204949C1F8900147
:102F50006006040E45488038006808B1601CC4B2A1
:102F60000120FEF7B1FE701CC6B2082EE5DB15B9D4
:102F7000FFF782FF01E0FFF75CFF204670BD70B5F0
:102F800004460025FFF7E9FEA020FFF798FFFFF7B2
:102F900025FF6106080EFFF792FFFFF71FFFFFF7FF
:102FA000DCFEA120FFF78BFFFFF718FF0020FFF7E3
:102FB000B4FF0546FFF7F1FEFFF7CFFEA020FFF7B5
:102FC0007EFFFFF70BFF012101EB4401C8B2FFF7C1
:102FD00076FFFFF703FFFFF7C0FEA120FFF76FFFAB
:102FE000FFF7FCFE4FF6FF7000EA05250020FFF713
:102FF00094FF0543FFF7D1FE284670BD70B5044627
:103000000D46FFF7AAFEA020FFF759FFFFF7E6FEE7
:103010006106080EFFF753FFFFF7E0FE2E0A304669
:10302000FFF74DFFFFF7DAFEFFF7B7FE0A20FEF7C6
:103030002FFEFFF792FEA020FFF741FFFFF7CEFE25
:10304000012101EB4401C8B2FFF739FFFFF7C6FECB
:10305000EEB23046FFF733FFFFF7C0FEFFF79DFEED
:103060000A20FEF715FE70BD0018014094012342AE
:10307000000023421948006820F0FF00174908604B
:103080000846006840F08800086014480C3000686A
:1030900040F0010011490C3108600846006840F01A
:1030A000020008600E4840680E4908400C4948601C
:1030B000084640680C490843094948600846C0680A
:1030C00040F48060C8600846C06840F40060C86092
:1030D0000846C06840F48050C86070470014014042
:1030E00000100140FF00F0FF00880800E24800687F
:1030F00020F07060E04908600846006840F04070C9
:103100000860DD480C30006840F04000DA490C31BE
:103110000860DA48406820F47000D84948600846E2
:10312000406840F4401048600846C06840F40050D1
:10313000C860704710B5D148406820F47000CF498E
:1031400048600846406840F4401048600020CC4980
:1031500008600120CB49C1F898010820FEF7B4FDB2
:103160000120C74908600820FEF7AEFD10BD10B56C
:103170000446C248406820F47000C04948600846D0
:10318000406840F4401048600020BF4908600820B3
:10319000FEF79AFDBD48C0F8B4410120BA49086065
:1031A0000820FEF791FD0020B649C1F898010820DB
:1031B000FEF78AFD10BD70B500250024AF484068B9
:1031C00020F47000AD4948600846406840F40000B3
:1031D000486000BF1CE00020AB4908600120AB49FB
:1031E000C1F8B4011420FEF76FFD0120A649086064
:1031F0001420FEF769FD6006040EA448D0F83401DF
:10320000012801D144F001041420FEF75DFD6D1C7E
:10321000082DE0DB204670BD10B5002497484068BB
:1032200020F47000954948600846406840F400006A
:1032300048600120924908600420FEF745FD012006
:103240009049C1F898010420FEF73EFD07E0601C9C
:10325000C4B2FA2C03DDFFF76DFF012010BD8848D2
:10326000803800680028F2D18749086000BFF5E780
:1032700070B504468148406820F470007F4948607A
:103280000846406840F44010486000207E490860CD
:10329000002516E0E0097A4908606006040E052062
:1032A000FEF712FD01207749C1F898010520FEF7CD
:1032B0000BFD0020744908600520FEF705FD681C21
:1032C000C5B2082DE6DBFFF7A7FF70BD10B56B4850
:1032D000406820F47000694948600846406840F43E
:1032E000401048600120664908606649C1F89801AD
:1032F0000820FEF7E9FC0020614908600820FEF77D
:10330000E3FC00205F49C1F8980110BD70B50024AE
:10331000FFF7DCFFE020FFF7ABFF0020FFF7A8FF7F
:103320003120FFF7A5FFFFF705FF6420FEF7B0FC93
:10333000FFF7CCFFE020FFF79BFF0120FFF798FF8E
:103340000A20FEF7C1FCFFF7C1FF0A20FEF7BCFC14
:10335000E120FFF78DFF0820FEF7B6FCFFF72BFFFB
:1033600004460020FFF703FF4FF6FF7000EA042435
:103370000A20FEF7A9FCFFF71EFF05460A20FEF70C
:10338000A3FC2C430120FFF7F2FE0A20FEF79CFC71
:10339000FFF7D0FE204670BD10B5FFF797FFE02085
:1033A000FFF766FF0020FFF763FFC020FFF760FF15
:1033B000FFF7C0FE10BD10B5FFF788FFE020FFF754
:1033C00057FF0020FFF754FFC120FFF751FFFFF721
:1033D000B1FE10BD10B5FFF779FFE020FFF748FF01
:1033E0000020FFF745FFA020FFF742FFFFF7A2FEF6
:1033F000FFF76CFFE020FFF73BFF0020FFF738FFEF
:10340000AA20FFF735FFFFF795FEFFF75FFFE020EB
:10341000FFF72EFF0020FFF72BFFA520FFF728FF67
:10342000FFF788FEFFF752FFE020FFF721FF0020A3
:10343000FFF71EFFC520FFF71BFFFFF77BFE10BD48
:1034400010B5FFF743FFE020FFF712FF0320FFF75F
:103450000FFF0020FFF70CFFFFF76CFEFFF736FFB2
:10346000E020FFF705FF0420FFF702FF7320FFF7BE
:10347000FFFEFFF75FFE10BD001801400010014085
:10348000B40122420000234298012342000022425C
:1034900070B505460C4601210846FDF746F84FF089
:1034A000804085850485808940F002004FF080418E
:1034B00088810846808940F040008881084600885D
:1034C00040F00100088002231C2201210846FEF77B
:1034D00033FC70BD10B5E548806940F00400E34955
:1034E0008861E348006820F00F00E1490860084661
:1034F000006840F008000860012208210320FEF760
:1035000063FC0223172219461846FEF715FC10BD6E
:1035100010B5D848006820F07F60D649086008469A
:10352000006840F04C700860D2480830006840F4F1
:103530000050D049083108600846006840F48040D7
:10354000086041F61F414FF4C870FFF7A1FFFFF775
:10355000C1FF10BD012804D0022811D0032816D1C4
:1035600006E00021C44A1160C44AC2F8B8110FE055
:103570000021C14A11600121C04AC2F8B81107E018
:103580000121BD4A1160BD4AC2F8B81100E000BF78
:1035900000BF70474FF08040008840F001004FF0BE
:1035A000804108800020B6490860B6490870B648D6
:1035B000006840F48070B4490860704710B5044654
:1035C0002046FFF7C7FF0520FEF762FBFFF7E2FF8B
:1035D00000BFAC4800780028FBD0A948006810BDA7
:1035E0002DE9FE4F00250026A946A8480290002498
:1035F00022E00120FFF7E2FF804600F021FF0746AE
:10360000294600F0EDFD05460320FFF7D7FF804671
:1036100000F016FF0746314600F0E2FD06460220A4
:10362000FFF7CCFF804600F00BFF0746494600F04D
:10363000D7FD8146601CC4B2032CDADB94492846CE
:1036400000F03CFE05469249304600F037FE064643
:103650008F49484600F032FE8146304600F094FD26
:10366000824600228B4B00F05BFC074688462846CA
:1036700000F08AFD3A464346CDE9000100F04EFDD8
:1036800016D2484600F080FD0022824BCDE90001B1
:1036900000F046FC07468846284600F075FD824645
:1036A0003A46434600F03AFD02D20120BDE8FE8FC3
:1036B000304600F069FD4FF06632774BCDE90001EE
:1036C00000F02EFC07468846484600F05DFD824625
:1036D0003A46434600F022FD15D2284600F054FD3C
:1036E0006E4A6F4BCDE9000100F01AFC0746884690
:1036F000484600F049FD82463A46434600F00EFD3A
:1037000001D20220D2E7284600F03EFD0746654A76
:10371000654B00F005FC82468B46304600F034FDD8
:1037200052465B46CDE9000100F0F8FC15D2484650
:1037300000F02AFD07465B4A5B4B00F0F1FB824636
:103740008B46304600F020FD52465B46CDE9000135
:1037500000F0E4FC01D20320A8E73146029800F013
:10376000B7FE0746294600F07FFE0AD2314602988E
:1037700000F0AEFE0746494600F076FE01D2042076
:1037800094E7002092E770B50120FFF717FF84B29D
:103790000320FFF713FF86B20220FFF70FFF85B269
:1037A00042A20221042000F02BFB224602210A2023
:1037B00000F03AFA3EA20321042000F021FB2A4641
:1037C00003210A2000F030FA3AA20421084600F052
:1037D00017FB324604210A2000F026FAB4F57A6F6E
:1037E0000DDDB5F57A6F0ADDA6F52F70B0F57A6FAD
:1037F00005DD31A205210A2000F002FB35E040F68C
:10380000282084420DDA85420BDAA6F52F7040F6A7
:103810002821884205DA2AA205210A2000F0F0FAC0
:1038200023E0AC4209DDA6F52F70A04205DA26A2FE
:1038300005210A2000F0E4FA17E0A54209DDA6F50B
:103840002F70A84205DA22A205210A2000F0D8FA3A
:103850000BE0A6F54870A84207DD6430A04204DD05
:103860001DA205210A2000F0CBFA70BD0010024015
:1038700004140140040C0140B48121420080214223
:103880000400002008000020000401403333B33F4F
:10389000000040400000F43F6666F23FCDCCCCCC47
:1038A000CCCCF03F9A9999999999F53F7200000014
:1038B000670000006200000077686974650000001E
:1038C000626C61636B000000726564202000000080
:1038D000677265656E000000626C7565200000000F
:1038E000FE48806940F00400FC4988610846806910
:1038F00040F0100088610846806940F0200088612F
:10390000F748006820F07060F549086008460068D4
:1039100040F040700860F348006820F07060F149A2
:1039200008600846006840F040700860EE48006893
:10393000EE490840EC49086008460068EC49084335
:10394000E9490860E8480830006840F40060E6494A
:10395000083108600846006840F480500860084656
:10396000006840F400500860DE48C06840F0400045
:10397000DC49C860DA480C30006840F04000D849A3
:103980000C310860704710B50246D74B10331B68E6
:1039900043F40063D44C10342360012A06D1231F62
:1039A0001B6843F48053241F236007E0CE4B103381
:1039B0001B6843F48053CC4C10342360002025E076
:1039C00001F0800343B1C84B0C331B6843F4005330
:1039D000C54C0C34236007E0C34B10331B6843F421
:1039E0000053C14C10342360BD4B14331B6843F0AB
:1039F0004003BB4C143423604B06190E231F1B6875
:103A000043F04003241F2360431CD8B20828D7DBAF
:103A1000B54B0C331B6843F40063B34C0C34236088
:103A200010BD30B504460D4644F080010020FFF77C
:103A3000AAFF45F040010020FFF7A5FF30BD10B5FB
:103A400000210846FFF7EDFF002404E000210120DB
:103A5000FFF799FF641CB4F5FC7FF7DB10BD70B570
:103A60000546A5F1200000EB800086B2002407E0A7
:103A70003019A04A115C0120FFF785FF601C84B259
:103A8000052CF5DB70BD10B5044603E02078FFF788
:103A9000E6FF641C20780028F8D110BD002107E063
:103AA000002201E0531C9AB28242FBDB4B1C99B20C
:103AB000B1F5FA7FF4DB704700B5FFF711FF8948D5
:103AC000406940F04000874948616420FFF7E6FF05
:103AD0008448006940F040008249086182480C3007
:103AE000006840F4006080490C310860212100200A
:103AF000FFF749FFBE210020FFF745FF0621002008
:103B0000FFF741FF13210020FFF73DFF2021002098
:103B1000FFF739FF0C210020FFF735FFFFF78FFF7C
:103B200000BDF0B507460E4615460024314638461E
:103B3000FFF777FF00BF05E0295D0120FFF723FFB6
:103B4000601CC4B2102CF7DB701CC1B23846FFF702
:103B500068FF102405E0295D0120FFF714FF601CB9
:103B6000C4B2202CF7DBF0BD2DE9F04105460F462D
:103B70001646002439462846FFF753FF00BF0EE0E3
:103B8000642096FBF0F000EB80005B49084410F8DD
:103B9000048041460120FFF7F6FE601CC4B2052CEC
:103BA000EEDB691DC8B23946FFF73BFF002413E086
:103BB0000A2096FBF0F00A2190FBF1F201FB1200C3
:103BC00000EB80004C49084410F804804146012075
:103BD000FFF7D9FE601CC4B2052CE9DB05F10A0130
:103BE000C8B23946FFF71DFF002410E00A2096FBFB
:103BF000F0F100FB116000EB80003F49084410F831
:103C0000048041460120FFF7BEFE601CC4B2052CB3
:103C1000ECDB05F10F01C8B23946FFF702FF762051
:103C2000FFF71DFFBDE8F0812DE9F04106460F4684
:103C30001546002439463046FFF7F3FE00BF0FE07B
:103C40004FF47A7095FBF0F000EB80002A490844AD
:103C500010F8048041460120FFF795FE601CC4B2B5
:103C6000052CEDDB711DC8B23946FFF7DAFE0024E2
:103C700013E0642095FBF0F00A2190FBF1F201FBC8
:103C8000120000EB80001C49084410F804804146F3
:103C90000120FFF778FE601CC4B2052CE9DB06F1B9
:103CA0000A01C8B23946FFF7BCFE00242AE00A2008
:103CB00095FBF0F0642190FBF1F201FB12000A2168
:103CC00090FBF1F201FB120000EB80000A4908446E
:103CD00010F804804146012010E00000001002406E
:103CE000001401400010014004080140FF0F00FFD4
:103CF00000303300290000200E020020FFF743FEB1
:103D0000601CC4B2052CD2DB06F10F01C8B23946E3
:103D1000FFF787FE002410E00A2095FBF0F100FB7E
:103D2000115000EB80003C49084410F804804146E3
:103D30000120FFF728FE601CC4B2052CECDBBDE8B7
:103D4000F0812DE9F04106460F461546002439461C
:103D50003046FFF766FE00BF13E00A2095FBF0F047
:103D60000A2190FBF1F201FB120000EB80002A49CE
:103D7000084410F8048041460120FFF704FE601C4F
:103D8000C4B2052CE9DB711DC8B23946FFF749FE04
:103D9000002410E00A2095FBF0F100FB115000EB2D
:103DA00080001D49084410F8048041460120FFF7B7
:103DB000EAFD601CC4B2052CECDBBDE8F0812DE906
:103DC000F04106460F461546002439463046FFF7B7
:103DD00028FE00BF10E00A2095FBF0F100FB115017
:103DE00000EB80000C49084410F804804146012093
:103DF000FFF7C9FD601CC4B2052CECDBBDE8F08107
:103E000070B505460E46144631462846FFF709FEB2
:103E10002046FFF738FE70BD0E0200207047704745
:103E20007047754600F028F8AE46050069465346CF
:103E300020F00700854618B020B5FCF7EDF9BDE885
:103E400020404FF000064FF000074FF000084FF001
:103E5000000B21F00701AC46ACE8C009ACE8C00992
:103E6000ACE8C009ACE8C0098D4670470446AFF322
:103E700000802046FCF7C7F900487047C4020020C4
:103E800001491820ABBEFEE726000200704749102A
:103E900058BFC1F140415B1058BFC3F140438B4252
:103EA000EFF300807047000051EA030C17D41CF5B3
:103EB000801F58BFBCF5801F00F10680994218BFD3
:103EC000704708BF9042704707D711F5801F58BF51
:103ED00013F5801F19D499427047894270471CF529
:103EE000801F08D5BCF5801FF7D58B4218BF7047DF
:103EF00008BF824270474FF4001C1CEB410F38BFD3
:103F00001CEB430F01D28B42704770B500F0B2F842
:103F1000922449004FF000514FF08053FFF7B7BF94
:103F2000DFF848C170B51CEA111E1EBF1CEA13154C
:103F30009EEA0C0F95EA0C0F00F06F8081EA0304F3
:103F400023EA4C134EEAD47E21EA4C1141F480114D
:103F500043F48013AE44A1FB024CA0FB0365AEF119
:103F60007F7E361955EB0C05A1FB034C4CF1000389
:103F7000A0FB021C16EB0C06654153F1000309423D
:103F800018BF46F0010613F4007F0BD14FEA03314E
:103F90004FEA0530340341EA155140EA16506FF0FC
:103FA00003020AE04FEAC3214FEAC520F40241EAC6
:103FB000555140EA56506FF0020202EB2E4201EBDF
:103FC000025585EACE710AD05FEA440C18BF24F08E
:103FD000004450F1000041F1000120EAD47040F2A9
:103FE000FE7C624500D270BDA84214BF4FF08044F1
:103FF0004FF04044002E08BF0024BEF1806FA8BFE0
:10400000A1F1C041BDE8704080F282804FF0000015
:1040100001F1C04101F0004170479EEA0C0F0CEA2B
:10402000131518BF95EA0C0F06D04FF0000081EA77
:10403000030E0EF0004170BD00F01CF88900013E37
:1040400000F007B800F009B84FEA430C5FEA5C5C87
:1040500008D081EA030100F05BB84FEA410C5FEA47
:104060005C5CF6D14FF00000014970470000FF078B
:104070000000F87F0EF1020E2EF0030E5EF8046BC6
:10408000364205D4012A43EB030515F5001F12D86B
:10409000012841EB010C1CF5001F0CD80ED14FEA92
:1040A000D17C15F5001F0CEB4C0C0CF1020C08BF79
:1040B0004CEBD37C04E04FF0080C01E04FEAD37CDA
:1040C0000CEB4C0526FA05F606F00706B6F1040CD3
:1040D00006D20EEB860CBDE870404CF0010C604738
:1040E000DFE80CF0090B02024FF000414FF0000036
:1040F000A1F5002170BD19461046012851EB0104BD
:1041000018BFD4F5001484BF002001F0004170BD39
:104110000808A0F500114FEA3101704753EA010C7D
:1041200017D41CF5801F58BFBCF5801F00F1068016
:104130008B4218BF704708BF8242704707D713F5FC
:10414000801F58BF11F5801F19D48B4270479B42C6
:1041500070471CF5801F08D5BCF5801FF7D5994224
:1041600018BF704708BF904270474FF4001C1CEB0B
:10417000430F38BF1CEB410F01D2994270470FB477
:104180000CBC03BCFFF7C1BE43004FEAD30C4FEA9F
:104190003C0C43401FBF40070CF1605113F0FE4F31
:1041A00070471CF0006F03D100200CF000417047F5
:1041B0000CF0004343EA507010B540EACC0000F028
:1041C00008FA00BF000000924FEA0001FFF7A0BF0D
:1041D0004FF000414FF00000A1F5002170470000B2
:1041E00090EA010F48BF81F0004100F14482421A79
:1041F0003CBF801A89184FEAD0524FF07F4C1CEA1E
:10420000410FA2EBD15318BF9CEA026F00F03B8034
:104210004FF0004C4CEA00204CEA012121FA03FC4B
:1042200010EB0C0C1ED202F1FF325FEA1C2040EBB7
:10423000C25038BF70471CF07F0F4FEA400C18BFC8
:10424000BCF17F4F38BF7047C3F12003994008BFCE
:1042500020F00100BCF17F4F38BF7047A0F1C04093
:1042600000F0FDB94FEA3C00000A40EBC25028BF05
:104270001CF0FF0F4FEA400CE6D018BFBCF17F4F97
:1042800038BF7047EAE79CEA026F05D010EA5C0F7E
:1042900008BF00F00040704710B500F09AF900BF69
:1042A00064FBBE3E401058BFC0F14040491058BFAB
:1042B000C1F140418142EFF3008070474FF47F0C21
:1042C0001CEAD0121EBF1CEAD11392EA0C0F93EA2B
:1042D0000C0F00F0858090EA010F48BF42F4807215
:1042E00040F4000C41F400002CF07F4120F07F40AE
:1042F00000B58142A2EB03020FF2081CACEB504E5A
:10430000C0F100009EF800E04FEA4E0E00FB0EFCEC
:1043100038BF49004FEA2C1C02F5FA020CFB0EF3E1
:104320004FEACE1E4FEA112C4FEAC1210EEB635E1D
:1043300042EB22420EFB0CFC4FEA1C5300FB031124
:104340004FEA112C4FEA01310EFB0CFC4FEADC4C1A
:1043500000FB0C11C14228BF09184CEB03335DF878
:1043600004EB10EB410143EBC250B2F57C0F38BFB8
:10437000704729D512F0F00F1CBF00F1C04000F0CB
:1043800000407047008182838485868788898B8C72
:104390008D8E8F919293959697999A9C9D9FA0A2AE
:1043A000A3A5A7A8AAACAEB0B2B3B5B7B9BCBEC0FE
:1043B000C2C5C7C9CCCED1D4D7D9DCDFE2E6E9EC9F
:1043C000F0F3F7FAFE0000004FEA400C0CF1807C9D
:1043D000BCF17E4F28BF7047B0F1C04000F03FB93C
:1043E00090EA010F0CEAD11348BF42F48072624593
:1043F00038BF634507D213F47F0F16D080EA01005F
:1044000000F00040704710B500F0E3F8097EFC3E74
:1044100000F005B880EA010000F00040704780EA33
:10442000010000F0004000F01AB912F47F0F04BF41
:104430000248704780EA010000F011B90000C07F17
:10444000B0FA80F310FA03F2C3F19D030AD0D90544
:1044500001EB1220530638BF704700F1010008BF7E
:1044600020F001007047000050EA010C00F11380B9
:104470001CF5000F58BFBCF5000F01D488427047EF
:1044800007D710F5000F58BF11F5000F15D488425B
:104490007047894270471CF5000F04D5BCF5000F2A
:1044A000F7D5814270474FF0807C1CEB400F38BF3E
:1044B0001CEB410F01D28142704710B500F089F822
:1044C000922449004FF000504FF08051FFF7EABEB0
:1044D0004FF47F0C1CEAD0121EBF1CEAD11392EAE3
:1044E0000C0F93EA0C0F00F0478090EA010F48BFD1
:1044F00042F480724FF0004C4CEA00204CEA01215B
:1045000002EB0302A0FB0113A2F50002002918BF71
:1045100043F001035B0028BF4FEA330342EB224222
:104520005FEA132C4CEBC2502EBFBCEB436FB2F5CD
:104530007C0F70474FEA036CBCF1004F08BF20F0BE
:104540000100B2F57C0F38BF70470BD582F0FF0237
:1045500012F5803FC8BF704700F1C040D8BF00F0DF
:104560000040704700F5000C5FEA4C0C48BF7047F4
:10457000B0F1C04000F073B890EA010F0CEAD1131B
:1045800048BF42F48072624538BF634504D280EA76
:10459000010000F00040704710B500F01AF800BFAD
:1045A0008900013E00F007B800F009B85FEA410C4D
:1045B0005FEA1C6C08D080EA010000F050B85FEAA6
:1045C000400C5FEA1C6CF6D14FF00040A0F5800073
:1045D00070470EF1020E2EF0030E5EF8044B2442DB
:1045E00004D44FEA4102B2F17F4F11D84FEA4003A1
:1045F000B3F17F4F0CD80ED14FEAD07CB2F17F4F90
:104600000CEB4C0C0CF1020C08BF4CEBD17C04E021
:104610004FF0080C01E04FEAD17C0CEB4C0324FA7C
:1046200003F404F00704B4F1040C06D20EEB840C7E
:10463000BDE810404CF0010C6047DFE80CF00708C3
:1046400002024FF00040A0F5800010BD0846420075
:1046500018BFD2F1807288BF00F0004010BDFF216A
:1046600041EAD050C005704790EA010F48BF81F081
:1046700000413FF5BCAD421A04D882F00042A0EBE5
:10468000020011444FEAD0524FF07F4C1CEA410F18
:10469000A2EBD15318BF9CEA026F4AD04FF0004CF6
:1046A0004CEA00204CEA012121FA03FCB0EB0C0C8F
:1046B0000FD412F0FE0F36D05FEA4C001DD5001269
:1046C00040EBC25038BF70471CF03F0F18BF704717
:1046D0000BE0A2F101025FEA1C2040EBC25038BFA0
:1046E00070471CF07F0F18BF7047C3F1200399403B
:1046F00014BF401E20F00100704780084FEA1223CB
:1047000008BF7047B0FA80FCA2EB0C02CCF1280C79
:1047100060FA0CF093EA122F04BF00EBC25070470E
:104720004FEAC3707047130A5FEADC1008BF704796
:10473000F6E79CEA026F04D010EA5C0F08BF002085
:10474000704710B5FFF745FF40DFF63E81F00040AF
:104750007047000000000102030401020304060781
:10476000080902040608000088470008000000202D
:10477000400200006C0100086C4900084002002063
:10478000E8080000D0010008620001200F4020F876
:10479000074020180F08C80808281812700DFF00DD
:1047A00000080443807F0001060C27125F2B1207CC
:1047B0000213147F021020242E7B2A122313086474
:1047C0006236495620500004030100001C224100BB
:1047D0000041221C002222100A2208087F080840FB
:1047E00030104C21011040006060000020100804CF
:1047F000023E5149453E00427F40006251494946D0
:104800002141494D331814127F1027454545393C45
:104810004A49493101710905033649494936464932
:1048200049291E003636A7210513081464221401F5
:1048300011692013140802015905023E415D555EBD
:104840007C1211127C7F3210073E414141227F05CC
:10485000223E0F100C417F090909013E415151725E
:104860008F200E087F00417F41002040413F017FA3
:104870004C137F4001200B7F020C027F7F04081045
:104880007F3C223E321206321009215E7F0919292F
:1048900046265510083201017F01013F2D10173FB8
:1048A0001F2040201F7F2018207F631408146303FB
:1048B0000478040361D213437F7413000246100589
:1048C000200041414F13027F0D131C2AFA101400DF
:1048D00001020424545438407F2844443838444466
:1048E000440805141A287F3854545408087E0909CE
:1048F0000298A4A4A4787F080404780000798110A9
:104900000A808879007F10284440AF400540007835
:1049100004022304783C100838FC242424181805C9
:1049200022FC1413084846100D24043F4444243C40
:1049300040403C401CA0131C3C0910043C4428424D
:10494000140D9CA0A0907C4464544C4408369E24D2
:1049500004000077CC100541360806E515E6100680
:0C496000081008552A02053095000000E0
:0400000508000131BD
:00000001FF
