:020000040800F2
:10000000400B0020150200085D1B00085F1B000864
:10001000631B0008671B00086B1B00080000000042
:10002000000000000000000000000000711B00083C
:100030006F1B000800000000731B0008751B000800
:10004000771B0008791B00087B1B00087D1B00083C
:100050007F1B0008811B0008831B0008851B00080C
:10006000871B0008891B00088B1B00088D1B0008DC
:100070008F1B0008911B0008931B0008951B0008AC
:10008000971B0008991B00089B1B00089D1B00087C
:100090009F1B0008A11B0008A31B0008A51B00084C
:1000A000CD1B0008CF1B0008D11B0008D31B000884
:1000B000D51B00080D1C00080F1C0008111C0008AF
:1000C000131C0008151C0008171C0008191C000848
:1000D0001B1C00081D1C00081F1C0008211C000818
:1000E000231C0008371C0008391C00083B1C0008B2
:1000F0003D1C00083F1C0008411C0008431C000870
:10010000451C0008471C0008491C00084B1C00083F
:100110004D1C00084F1C0008511C0008531C00080F
:10012000551C0008571C0008591C00085B1C0008DF
:1001300000F002F800F05EF80AA090E8000C82449B
:100140008344AAF10107DA4501D100F053F8AFF278
:10015000090EBAE80F0013F0010F18BFFB1A43F0A5
:1001600001031847EC7F00000C80000010F8013BF1
:100170000A4413F0030408BF10F8014B1D1108BF17
:1001800010F8015B641E05D010F8016B641E01F8C5
:10019000016BF9D1002D15D010F8014B03F00C03C1
:1001A0000C2BA1EB04040ABF10F8013BA4EB831451
:1001B000A4EB032405F1010314F8016B5B1E01F8A5
:1001C000016BF9D5914238BF10F8013BD1D370478C
:1001D0000023002400250026103A28BF78C1FBD850
:1001E000520728BF30C148BF0B6070471FB51FBD05
:1001F00010B510BD07F009FB1146FFF7F7FF01F03E
:100200009FFC07F027FB03B4FFF7F2FF03BC07F0E6
:100210002BFB00000348004703480449044A054BF0
:10022000704700003101000840030020400B00200F
:100230004007002040070020DE48006840F0010031
:10024000DC49086008464068DB490840D9494860F5
:1002500008460068D9490840D64908600846006841
:1002600020F4802008600846406820F4FE004860C2
:10027000002088607047CF49096821F48031CD4A59
:1002800011601146096821F480211160B0F5803FAA
:1002900003D0B0F5802F0ED106E0C649096841F4BD
:1002A0008031C44A116007E0C249096841F4A021C5
:1002B000C04A116000E000BF00BF704710B50146A2
:1002C0000022002300204A11012A02D1B94C2368E0
:1002D00006E0022A02D1B74C236A01E0B54C636AFA
:1002E00001F01F02012494401C400CB1012000E0E9
:1002F000002010BD38B5002000900024002500BF6C
:100300003120FFF7DBFF05460098401C00901DB927
:100310000098B0F5A06FF3D13120FFF7CFFF08B1FF
:10032000012400E00024204638BD01460020A14AF7
:10033000106820F0F80040EAC10010607047A04942
:1003400008607047024600209A4B586820F47C10E1
:1003500042EA01031843974B586070479849086672
:10036000704701460020934A506820F0030008437C
:10037000506070478F48406800F00C00704701469D
:1003800000208C4A506820F0F0000843506070470D
:1003900001460020874A506820F4E060084350601E
:1003A000704701460020834A506820F4605040EABC
:1003B000C1005060704729B17E4A527A02437D4B9A
:1003C0005A7204E07B4A527A82437A4B5A727047DF
:1003D0007B49D8310860704701460020754A506853
:1003E00020F440400843506070470021714A203299
:1003F0001170704A82F82010012802D004280AD116
:1004000004E001216B4A2032117005E00521694AA0
:100410002032117000E000BF00BF704769490860DA
:1004200070476449096A0143624A1162704765492D
:1004300044390860704730B50021002200240023B1
:100440005C4D6D6805F00C0121B1042905D0082927
:1004500023D105E05C4D056022E05B4D05601FE0A7
:10046000544D6D6805F47012022505EB9242514D12
:100470006D6805F480341CB9544D554305600BE09C
:100480004C4D6D6805F400351DB1504D5543056068
:1004900002E04D4D5543056002E04B4D056000BF45
:1004A00000BF444D6D6805F0F0010909484D6B5CD3
:1004B0000568DD4045603F4D6D6805F4E061090A5F
:1004C000434D6B5C4568DD4085603A4D6D6805F4D1
:1004D0006051C90A3E4D6B5C4568DD40C560354DD5
:1004E0006D6805F44041890B3A4D6B5CC568B5FBFE
:1004F000F3F5056130BD29B12E4A526902432D4BF7
:100500005A6104E02B4A526982432A4B5A61704770
:1005100029B1284A92690243264B9A6104E0254A90
:1005200092698243234B9A61704729B1214AD2696B
:100530000243204BDA6104E01E4AD26982431D4B1C
:10054000DA61704729B11B4AD2680243194BDA605D
:1005500004E0184AD2688243164BDA60704729B12A
:10056000144A12690243134B1A6104E0114A1269DA
:100570008243104B1A617047124940390860704736
:100580000F49C86470470B49C87170470948406AF1
:1005900040F0807007494862704701460020054AD4
:1005A00092680A400AB1012000E00020704701492A
:1005B00088727047001002400000FFF8FFFFF6FE4F
:1005C000000042428004424200127A0000093D00CD
:1005D0003A8100084A81000810B50446F749601ABC
:1005E0008C4245D00CDCB4F1804F1DD0F44820443F
:1005F00018B3B0F5806F29D0B0F5006F54D12EE05C
:10060000B0F5806F3DD0B0F58E3F03D0B0F5923F8E
:100610004AD13FE00121C802FFF794FF00214FF4C7
:100620000060FFF78FFF40E001210846FFF797FFCA
:1006300000210120FFF793FF37E001210220FFF79F
:100640008EFF00210220FFF78AFF2EE00121042007
:10065000FFF785FF00210420FFF781FF25E001213E
:100660000820FFF77CFF00210820FFF778FF1CE03F
:1006700001211020FFF773FF00211020FFF76FFF0B
:1006800013E001212020FFF76AFF00212020FFF75F
:1006900066FF0AE001214803FFF754FF00214FF4F1
:1006A0000050FFF74FFF00E000BF00BF10BD028801
:1006B00002F08F020280CA884B881A4303881A43CB
:1006C00002808A8882850A88028501228282BD4A48
:1006D000904202D0BC4A904201D10A7A0286704709
:1006E00070B5002400220023058C4FF6FE763540BD
:1006F0000584028C8388048B4FF68F752C400D88FF
:100700002C43751E2A400D892A434D882A43CD88E3
:100710008586AC4DA84202D0AB4DA84213D14FF60E
:10072000F7752A404D892A434FF6FB752A408D887C
:100730002A4347F6FF652B4047F6FF552B408D892E
:100740002B43CD892B4383800483028470BD70B515
:10075000002400220023058C4FF6EF7635400584F7
:10076000028C8388048B48F6FF752C400D884FF669
:10077000FF7606EA05252C434FF6DF752A400D89E2
:1007800006EA05152A434D8806EA05152A43CD8851
:1007900005878C4DA84202D08B4DA8421DD14FF643
:1007A0007F752A404D894FF6FF7606EA05152A43E4
:1007B0004FF6BF752A408D8806EA05152A4347F68D
:1007C000FF352B4047F2FF752B408D8906EA8505E2
:1007D0002B43CD8906EA85052B438380048302845D
:1007E00070BD70B5002400220023058C4FF6FF6613
:1007F00035400584028C8388848B4FF68F752C409E
:100800000D882C434FF6FF552A400D894FF6FF7691
:1008100006EA05252A434D8806EA05252A43CD88A0
:100820008587684DA84202D0674DA8421DD14FF27E
:10083000FF752A404D894FF6FF7606EA05252A43C3
:100840004FF6FF352A408D8806EA05252A4346F6ED
:10085000FF752B4045F6FF752B408D8906EA05157F
:100860002B43CD8906EA05152B43838084830284BC
:1008700070BD70B5002400220023058C4EF6FF7673
:1008800035400584028C8388848B48F6FF752C40A4
:100890000D884FF6FF7606EA05252C434DF6FF75C9
:1008A0002A400D8906EA05352A434D8806EA0535B2
:1008B0002A43CD88A0F84050424DA84202D0424D74
:1008C000A84207D1C3F30D038D894FF6FF7606EAE0
:1008D00085152B4383808483028470BD828B4FF205
:1008E000FF331A408283828B4FF6FF7303EA0123A2
:1008F0001A4382837047F0B50C461546002100224A
:100900000026078C4EF6FF7C07EA0C070784818BD4
:10091000028C4FF6FF7707EA043640F6FF4739406E
:100920004FF6FF7707EA05274FF6FF7C0CEA033CFA
:1009300047EA0C0739434DF6FF773A4046F48057B3
:100940003A4381830284F0BD828B4FF6F3731A40E1
:100950008283828B0A4382837047F0B50C4615462A
:10096000002100220026078C4FF6FF6C07EA0C07D7
:100970000784818B028C4FF6FF7707EA04264FF637
:100980000C7739404FF6FF7707EA03172F433943B7
:100990004FF6FF573A4046F480773A43818302840A
:1009A000F0BD028B4FF2FF331A400283028B4FF6E9
:1009B000FF7303EA01231A430283704700100040CB
:1009C00000FCFFBF002C014000340140F0B50C4694
:1009D0001546002100220026078C4FF6EF7C07EA1F
:1009E0000C070784018B028C4FF6FF7707EA041689
:1009F00040F6FF4739404FF6FF7707EA03373943A0
:100A00004FF6FF7707EA052739434FF6DF773A407D
:100A100046F010073A4301830284F0BD028B4FF683
:100A2000F3731A400283028B0A4302837047F0B5C6
:100A30000C46154600210022068C4FF6FE773E40FC
:100A40000684018B028C4FF60C7631407E1C06EA40
:100A500003162E4331437E1E324044F001063243DA
:100A600001830284F0BD70B505460C46208850B95C
:100A70002389A28861882846FFF7D9FFE1882846A4
:100A8000FFF7CCFF25E0208804280AD12389A2881B
:100A900061882846FFF79AFFE1882846FFF781FF23
:100AA00017E0208808280AD12389A288618828466F
:100AB000FFF753FFE1882846FFF746FF09E0238947
:100AC000A28861882846FFF716FFE1882846FFF7CD
:100AD00005FF70BD2DE9F04105460C4600260127B3
:100AE000608808B9022600E00026A088012801D10C
:100AF000022700E001272088A0B92389A288618805
:100B00002846FFF794FFE1882846FFF787FF2389EF
:100B10003A4631462846FFF759FFE1882846FFF755
:100B200040FF13E02389A28861882846FFF74EFF23
:100B3000E1882846FFF735FF23893A4631462846A3
:100B4000FFF775FFE1882846FFF768FFBDE8F081F1
:100B50000A884B881A438B881A43CB881A430B891F
:100B60001A434B891A438B891A43A0F844207047D3
:100B70004FF6FF71818000210180C18041800172A8
:100B800070470021018041808180C18001814181C5
:100B90008181C181704700210180418001218180D4
:100BA0000021C18001817047002101804180818046
:100BB000C180018141818181704721B1028842F069
:100BC0000102028004E0028840F2FE331A400280F3
:100BD000704731B1B0F8442042F40042A0F84420FC
:100BE00005E0B0F84420C2F30E02A0F8442070479C
:100BF0001AB183890B43838102E083898B4383810C
:100C000070478182704741EA0203A0F8483070477C
:100C10001AB183890B43838102E083898B438381EB
:100C2000704701894FF6F8721140018170470A46FA
:100C3000002101894FF68F731940114301817047DC
:100C400030B504460D4629462046FFF7F0FF2089BF
:100C500040F00700208130BD2DE9F04104460D46EB
:100C600016461F46602D06D13B46012231462046DE
:100C7000FFF7ACFE05E03B46012231462046FFF778
:100C8000D6FE29462046FFF7D2FF208940F0070014
:100C90002081BDE8F08170B50C4600210189C9B200
:100CA00044EA02054FF6FF7606EA03263543294358
:100CB000018170BD2DE9F04105460E461746984664
:100CC000002443463A4631462846FFF7E4FF2C8984
:100CD0004FF6F870044044F007044FF68F7004405C
:100CE00044F070042C81BDE8F081F0B504460D4657
:100CF00016461F463B46324629462046FFF7CBFFA5
:100D0000208940F480402081F0BD018582827047B7
:100D10000A460021018840F28F33194011430180B7
:100D20007047F0B50C4615461E46002100220023F0
:100D30000189028B038C4FF6F877394021434FF637
:100D4000FC473A4040F201173A434FF6DD773B400B
:100D50004FF6FF7707EA06172F433B4301810283D3
:100D60000384F0BD0A460021018B4FF68F731940B2
:100D70001143018370470A460021018B48F6FF7337
:100D800019404FF6FF7303EA0223194301837047AA
:100D90000A460021818B4FF68F73194011438183DE
:100DA00070470A460021818B48F6FF7319404FF6C1
:100DB000FF7303EA022319438183704721B102883C
:100DC00042F08002028004E0028840F27F331A4041
:100DD0000280704721B1828842F00402828004E0E0
:100DE00082884FF6FB731A408280704721B1828857
:100DF00042F00802828004E082884FF6F7731A40BE
:100E00008280704721B1828842F00102828004E032
:100E100082884FF6FE731A40828070470A4600218E
:100E2000018B4FF6F77319401143018370470A464F
:100E30000021018B4FF2FF7319404FF6FF7303EA55
:100E400002231943018370470A460021818B4FF624
:100E5000F77319401143818370470A460021818B43
:100E60004FF2FF7319404FF6FF7303EA0223194351
:100E7000818370470A460021018B4FF6FB731940AE
:100E80001143018370470A460021018B4FF6FF335F
:100E900019404FF6FF7303EA022319430183704799
:100EA0000A460021818B4FF6FB7319401143818361
:100EB00070470A460021818B4FF6FF3319404FF6E9
:100EC000FF7303EA02231943818370470A46002116
:100ED000018B4FF67F7319401143018370470A4617
:100EE0000021018BC1F30E014FF6FF7303EA0223C9
:100EF0001943018370470A460021818B4FF67F73A7
:100F000019401143818370470A460021818BC1F348
:100F10000E014FF6FF7303EA0223194381837047E2
:100F20000A460021018C4FF6FD73194011430184DC
:100F300070470A460021018C4FF6F77319401143A0
:100F4000018470470A460021018C4FF6DF73194077
:100F50004FF6FF7303EA02131943018470470A46F0
:100F60000021018C4FF67F7319404FF6FF7303EA9F
:100F700002131943018470470A460021018C4FF681
:100F8000FF5319404FF6FF7303EA0223194301840C
:100F900070470A460021018C4FF2FF7319404FF64B
:100FA000FF7303EA02231943018470470A460021B4
:100FB000018C4DF6FF7319404FF6FF7303EA0233BD
:100FC00019430184704710B5038C01248C40A3435E
:100FD0000384038C02FA01F4A4B22343038410BDFA
:100FE00010B5038C04248C40A3430384038C02FAC1
:100FF00001F4A4B22343038410BD30B5038C012453
:101000008C40A343038409B1082918D100F11803C7
:1010100003EB61031B684FF68F74234000F1180443
:1010200004EB6104236000F1180303EB61031B6808
:10103000134300F1180404EB610423601FE00B1F4D
:10104000C3F34E0400F118031B5948F6FF74234004
:101050000C1FC4F34E0500F1180463510B1FC3F3BA
:101060004E0400F118031B594FF6FF7404EA0224E2
:1010700023430C1FC4F34E0500F11804635130BD27
:1010800021B1028842F00202028004E0028840F2AC
:10109000FD331A400280704721B1028842F00402F9
:1010A000028004E0028840F2FB331A40028070475D
:1010B00021B1828842F08002828004E082884FF66B
:1010C0007F731A4082807047028840F2F7331A40DB
:1010D000028002880A430280704782884FF68F732D
:1010E0001A40828082880A438280704702894FF6C4
:1010F000F8731A40028102890A430281704702890B
:101100004FF67F731A40028102890A4302817047B9
:101110008184704781857047818670470187704759
:1011200081877047A0F8401070470288D2B20280D1
:1011300002880A43028070470146888E7047014644
:10114000088F70470146888F70470146B1F840000C
:1011500070470146888C70470146088D70470246EB
:101160000020138A0B400BB1012000E000207047E3
:10117000CA430282704730B5024600200023002493
:10118000158A05EA0103958905EA010413B10CB13A
:10119000012000E0002030BDCA43028270470000F9
:1011A00010B50446C649601A8C422FD009DCC548E8
:1011B000204480B1B0F5806F16D0B0F5006F4AD1F1
:1011C0001BE0B0F5806F2AD0B0F5006F30D0B0F5DD
:1011D000406F40D135E001210420FFF7B3F9002131
:1011E0000420FFF7AFF937E001210820FFF7AAF943
:1011F00000210820FFF7A6F92EE001211020FFF7BB
:10120000A1F900211020FFF79DF925E00121202000
:10121000FFF798F900212020FFF794F91CE0012145
:101220004020FFF78FF900214020FFF78BF913E0F2
:1012300001218020FFF786F900218020FFF782F945
:101240000AE001210802FFF77DF900214FF48070C8
:10125000FFF778F900E000BF00BF10BD10B5012115
:101260000846FFF76FF900210120FFF76BF910BD69
:101270002DE9F0410246002500260020002300242D
:10128000002791F803C00CF00F0591F803C00CF093
:10129000100CBCF1000F03D091F802C04CEA050518
:1012A00091F800C0BCF1000F31D0146800202BE091
:1012B0004FF0010C0CFA00F3B1F800C00CEA030681
:1012C0009E4220D183004FF00F0C0CFA03F7BC4371
:1012D00005FA03FC4CEA040491F803C0BCF1280FA2
:1012E00006D14FF0010C0CFA00FCC2F814C00AE061
:1012F00091F803C0BCF1480F05D14FF0010C0CFA76
:1013000000FCC2F810C0401C0828D1D31460B1F80A
:1013100000C0BCF1FF0F34DD546800202EE000F166
:10132000080C4FF0010808FA0CF3B1F800C00CEA01
:1013300003069E4221D183004FF00F0C0CFA03F7F5
:10134000BC4305FA03FC4CEA040491F803C0BCF169
:10135000280F05D100F1080C08FA0CF8C2F8148027
:1013600091F803C0BCF1480F07D100F1080C4FF011
:10137000010808FA0CF8C2F81080401C0828CED3E7
:101380005460BDE8F0814FF6FF7101800221817049
:101390000421C17070470246002093680B400BB1D6
:1013A000012000E0002070470146886880B2704745
:1013B00002460020D3680B400BB1012000E0002062
:1013C00070470146C86880B270470161704741614B
:1013D00070470AB1016100E041617047C160704728
:1013E0004FF480320A43826181618261826982693D
:1013F000704702460020344B18684FF6807318403F
:1014000040EA02100843304B186070472F49C8610A
:101410007047F0B50A4600230024002100252A4E1B
:101420007168C0F3034583B200F44016B6F5401F5F
:1014300008D121F07061244E766826F07066224F44
:101440007E6012E000F48016B6F5801F06D10326F8
:1014500006FA05F4A14341F0706106E0460D36013D
:1014600003FA06F6B14341F0706122B1460D360130
:1014700003FA06F63143144E7160F0BD30B5002218
:101480008B071C0F0F2303FA04F20F4B08338C1049
:1014900053F8243093430C4C08348D1044F8253015
:1014A00023468C1053F824308C07240F00FA04F4E0
:1014B0002343054C08348D1044F8253030BD00001E
:1014C0000014014000F8FEBF00000140000020426F
:1014D00010B50446F748204430B1B0F5806F0DD008
:1014E000B0F5C05F1ED113E001214802FFF72AF8D2
:1014F00000214FF40070FFF725F814E00121880265
:10150000FFF720F800214FF48060FFF71BF80AE096
:101510000121C803FFF716F800214FF40040FFF740
:1015200011F800E000BF00BF10BD30B5024600203A
:1015300000235068E04C20400D790C6844EA0524F3
:10154000204350609068DD4C2040D1E902542C4388
:101550004D7944EA450420439060D06A20F470003D
:101560000C7C641E1C43E3B240EA0350D06230BDE1
:1015700000210160017141718160C160012101742C
:10158000704721B1826842F00102826003E0826804
:1015900022F001028260704721B1826842F48072B9
:1015A000826003E0826822F480728260704710B526
:1015B0000023CBB21AB144681C43446002E0446883
:1015C0009C43446010BD816841F008018160704710
:1015D000014600208A6802F008020AB1012000E0FA
:1015E00000207047816841F0040181607047014626
:1015F00000208A6802F004020AB1012000E0002005
:10160000704721B1826842F4A002826003E08268E0
:1016100022F4A00282607047014600208A6802F42A
:1016200080020AB1012000E00020704710B50A4690
:1016300000210023416821F46041531E41EA4331F7
:10164000416010BD21B1426842F40062426003E093
:10165000426822F4006242607047F0B504460D46CD
:1016600000200021092D11DDE068A5F10A0606EB36
:101670004607072606FA07F18843A5F10A0606EB96
:10168000460603FA06F10843E0600CE0206905EB2A
:101690004507072606FA07F1884305EB450603FAD6
:1016A00006F108432061072A0FDA606B561E06EB2D
:1016B00086071F2606FA07F18843561E06EB8606A4
:1016C00005FA06F10843606322E00D2A0FDA206B69
:1016D000D61F06EB86071F2606FA07F18843D61F9A
:1016E00006EB860605FA06F10843206310E0E06A7F
:1016F000A2F10D0606EB86071F2606FA07F18843BE
:10170000A2F10D0606EB860605FA06F10843E06233
:10171000F0BD21B1826842F48012826003E08268E9
:1017200022F48012826070470146C86C80B2704714
:1017300063480068704721B1426842F480624260A9
:1017400003E0426822F480624260704721B142683F
:1017500042F48052426003E0426822F480524260C8
:1017600070470A460021816821F4E04111438160FD
:10177000704721B1826842F40042826003E08268CF
:1017800022F400428260704721B1826842F4021262
:10179000826003E0826822F4021282607047014690
:1017A00000208A6802F400120AB1012000E0002043
:1017B0007047F0B50446154600200022002609298E
:1017C00011DDE068A1F10A0707EB470C072707FACC
:1017D0000CF29043A1F10A0707EB470703FA07F25F
:1017E0001043E0600CE0206901EB410C072707FA89
:1017F0000CF2904301EB410703FA07F2104320611A
:10180000A06BC0F30156EF1C06F1010CA7EB0C070F
:1018100007EB870C1F2707FA0CF29043EF1C06F129
:10182000010CA7EB0C0707EB870701FA07F210433F
:10183000A063F0BD10B50A4600210023816B21F49E
:101840004011531E41EA0351816310BD425070475D
:1018500002465018806A80B270470A4600214168EB
:10186000184B1940114341607047416282627047D2
:101870000A460021416821F01F0111434160704771
:1018800040B10F494439096841F400010C4A443A17
:10189000116007E00A494439096821F40001084A47
:1018A000443A116070470246002013680B405BB158
:1018B00001200AE000DCFEBFFFFEF0FFFDF7F1FFB4
:1018C0004C240140FFFD3FFF00207047CA430260E7
:1018D000704770B502460020002300240B125568A3
:1018E000CEB205EA060415681D4015B10CB1012001
:1018F00000E0002070BD00220A12D343036070474D
:10190000016821F0010101600021016041608160F6
:10191000C160874A811A90425BD012DC854AA0EBF5
:10192000020190423AD007DC83490144D9B114291D
:1019300022D028297AD128E0142938D0282975D135
:101940003EE0B1F56C7F5BD006DCB1F5627F49D03B
:10195000B1F5677F6AD14CE0B1F5717F57D0B1F531
:10196000767F63D15BE073494439496841F00F01E8
:10197000704A443A51605AE06E494439496841F02E
:10198000F0016C4A443A516051E06A49443949686F
:1019900041F47061674A443A516048E0654944390E
:1019A000496841F47041634A443A51603FE06149FB
:1019B0004439496841F470215E4A443A516036E046
:1019C0005C494439496841F470015A4A443A5160CB
:1019D0002DE058494439496841F07061554A443A0C
:1019E000516024E05549096841F00F01534A1160E4
:1019F0001DE05249096841F0F001504A116016E0BB
:101A00004E49096841F470614C4A11600FE04B493E
:101A1000096841F47041494A116008E006E047490D
:101A2000096841F47021454A116000E000BF00BF21
:101A3000704710B50022026847F6F0739A430C6AAB
:101A40008B6823430C6923434C6923438C692343EC
:101A5000CC6923434C6A23438C6A23431A430260B4
:101A6000CB6843600B6883604B68C36010BD002186
:101A7000016041608160C160016141618161C1615A
:101A8000016241628162704721B1026842F0010245
:101A9000026003E0026822F00102026070471AB19E
:101AA00003680B43036002E003688B4303607047E5
:101AB0000146486880B2704701460020002201F0CC
:101AC00080531BB11D4B1B1F1A6802E0194B443B8E
:101AD0001A6802EA01030BB1012000E00020704700
:101AE00000F0805111B11549086002E011494439F4
:101AF0004860704701460020002201F080531BB16E
:101B00000E4B1B1F1A6802E00A4B443B1A6802EA9C
:101B100001030BB1012000E00020704700F080516C
:101B200011B10649086002E0024944394860704733
:101B30008000024044000240F8FFFDBF0404024060
:101B400010B500F051FA00BF034800680128FBD02F
:101B500005F04AFE002010BD00812242704700BF00
:101B6000FEE700BFFEE700BFFEE700BFFEE77047ED
:101B700070477047704770477047704770477047AD
:101B8000704770477047704770477047704770479D
:101B9000704770477047704770477047704770478D
:101BA000704770472D480068401C2C4908604FF46E
:101BB00080702B4908602A48143800682849143975
:101BC000086008050088090508807047704770475D
:101BD000704770474FF08040008A00F0020060B10B
:101BE0000120204908701E48143800681C49143927
:101BF000086008050088090508804FF08040008AC9
:101C000020F002004FF08041088270477047704713
:101C1000704770477047704770477047704770470C
:101C200070470E480068401C0C4908604FF4805013
:101C30000B4908607047704770477047704770479E
:101C400070477047704770477047704770477047DC
:101C50007047704770477047704770470400002016
:101C600014040140080000204FF0E021096921F030
:101C700004014FF0E0221161C21700EB5272C2F36F
:101C8000C702234B1A701946097801EB4102C2EBD7
:101C9000C1114FF6FF7202EAC1011E4A118070475E
:101CA00001461C4A12884A434FF0E0235A61002241
:101CB0009A6101221A6100BF4FF0E022106900F022
:101CC00001021AB100F48032002AF5D000224FF050
:101CD000E0231A619A61704701460D4A12784A431F
:101CE0004FF0E0235A6100229A6101221A6100BF7D
:101CF0004FF0E022106900F001021AB100F48032C6
:101D0000002AF5D000224FF0E0231A619A61704753
:101D10000000002002000020A84A0A400243A84B0D
:101D20001A6070470146072323EA01021202A44BFE
:101D30001B1D18684FF6FF031840A24B18431043B1
:101D40009F4B1B1D186070472DE9F0478046894660
:101D500014461D462046E11704EB9171C1F3870A32
:101D6000E11704EB91718910A4EB8101CFB204203B
:101D700000EBC700C7B22846FFF7D4FFC5F1040047
:101D800008FA00F60F20284100EA0900064306F091
:101D90000F06202C09DA8C4801680120A04001437D
:101DA0004FF0E020C0F800110BE08748001D0068EC
:101DB000A4F1200101228A4010434FF0E021C1F834
:101DC0000401824850F82A0006FA07F108437F49C7
:101DD00041F82A00BDE8F08770B504460B46CE17DF
:101DE00001EB9676C6F38700CE1701EB9676B61018
:101DF000A1EB8606B606350E754B9B6943F00103D1
:101E0000734EB3614FEAB63353F820300F26AE401D
:101E1000B343704E46F82030334653F8203004FA6E
:101E200005F61E436B4B43F820606B4B1B68012685
:101E30008E403343684E336002F0010343B1664B7A
:101E40000C331B6801268E403343634E0C363360DF
:101E500002F0020343B1604B08331E6801238B403C
:101E60001E435D4B08331E6070BD00B5002058490D
:101E70000861C8601420486100208861C861084674
:101E8000006840F001000860084640685349084077
:101E90004F49486008460068514908404C4908606D
:101EA0000846006820F4802008600846406820F456
:101EB000FE0048600020886000214FF00060FFF7BE
:101EC0002BFF00BD3F48001D3D49091D08607047BC
:101ED000014649063E4A926942F001023C4B9A6132
:101EE0003C4A083A526822F0E0623A4B083B5A609A
:101EF0001A4652680A435A60704730B504460025B6
:101F0000FFF7B3FF3248006840F480303049086082
:101F100000BF2F480068400C0028FAD04FF48060C2
:101F20002B494860A01EC4B20846406840EA84407D
:101F300048600846406840F480304860294800689E
:101F400040F03200274908602148006840F0807066
:101F50001F49086000BF1E480068400E0028FAD0E4
:101F60001B48406840F002001949486005E01848E5
:101F70004068C0F3870505F00305022DF7D114482A
:101F8000806940F00400124988610846806940F089
:101F9000080088610846806940F0100088610846A2
:101FA000806940F0200088610846806940F0400068
:101FB00088610220FFF78CFF30BD000080FFFF1F0B
:101FC00008ED00E00000FA0500E100E000E400E0B8
:101FD0000010024008000140000401400000FFF82A
:101FE000FFFFF6FE0020024010B50920FFF785FF35
:101FF0004820FFF739FE01F0CBF900F099FB00F023
:102000000BF800F06FF800F0B7FC00F071FE00F084
:10201000C9FC00F0E9FE10BD00B589B00121022025
:10202000FEF783FA0121F748FFF7F3F944F6206041
:10203000ADF80C004720ADF808000020ADF80E0008
:10204000ADF80A0002A9F048FEF731FB6020ADF8B8
:1020500014000120ADF816000020ADF81A00ADF80C
:102060001C0005A9E848FEF73BFB0821E648FEF7FF
:10207000D5FE0020ADF81A0005A9E348FEF767FB7E
:102080000821E148FEF7D3FE0020ADF81A0005A9AB
:10209000DD48FEF7A6FB0821DB48FEF7D5FE002051
:1020A000ADF81A0005A9D848FEF7E3FB0821D64889
:1020B000FEF7D3FE0121D448FEF780FE0121D2486D
:1020C000FEF77BFD4FF44070ADF8040018208DF84A
:1020D000070003208DF8060001A9CC48FFF7C8F8D7
:1020E00009B000BD00B589B001210420FEF71DFA3A
:1020F00044F62060ADF80C004720ADF80800002041
:10210000ADF80E00ADF80A0002A9C148FEF7CFFAFB
:102110006020ADF814000120ADF816000020ADF8E5
:102120001A00ADF81C0005A9B948FEF7D9FA082134
:10213000B748FEF773FE0020ADF81A0005A9B448B1
:10214000FEF705FB0821B248FEF771FE0020ADF84E
:102150001A0005A9AE48FEF744FB0821AC48FEF77B
:1021600073FE0020ADF81A0005A9A948FEF781FB0F
:102170000821A748FEF771FE0121A548FEF71EFEC3
:102180000121A348FEF719FD4FF47070ADF804006B
:1021900018208DF8070003208DF8060001A99D483E
:1021A000FFF766F89C48006820F070409A49086084
:1021B0000846006840F04050086097480C300068BE
:1021C00040F0800094490C3108609248006820F487
:1021D0007040904908600846006840F4405008602C
:1021E0008C480C30006840F008008A490C310860C7
:1021F0008A48006820F00F00884908600846006897
:1022000040F00300086085480C30006840F0010091
:1022100082490C3108608148006820F0F0007F4955
:1022200008600846006840F0300008607B480C30C9
:10223000006840F0020079490C31086009B000BD27
:1022400030B500280EDD00EBC00404EB00144FF69F
:10225000FF7505EAC4046E4D34352C800024704DA2
:102260002C6010E000280EDC444204EBC40505EBB2
:1022700004144FF6FF7505EAC404654D34352C800F
:102280000124674D2C6000290EDD01EBC10404EB35
:1022900001144FF6FF7505EAC4045D4D38352C80F6
:1022A0000024604D2C6010E000290EDC4C4204EB51
:1022B000C40505EB04144FF6FF7505EAC404544D3C
:1022C00038352C800124574D2C6064245443092553
:1022D00094FBF5F404F2DC544B4D3C352C80642423
:1022E0005C43092594FBF5F404F2DC54464D40357B
:1022F0002C8030BD00290CDD01EB81024FF6FF730D
:1023000003EA4202424B38331A8000221B1F1A8014
:102310000EE000290CDC4A4202EB82024FF6FF730A
:1023200003EA42023A4B34331A8000221B1D1A8002
:1023300000280CDD00EB80024FF6FF7303EA420237
:10234000334B3C331A8000221B1D1A800EE00028FC
:102350000CDC424202EB82024FF6FF7303EA4202B8
:102360002B4B40331A8000221B1F1A807047002815
:1023700009DD64214143092291FBF2F101F2DC51B4
:10238000294A11800EE020B940F2DC51264A118022
:1023900008E064214143092291FBF2F101F2DC5192
:1023A000214A1180704700280BDD00EB80010901F4
:1023B000092291FBF2F101F2DC511B4A121D11803E
:1023C00011E028B940F2DC51174A121D11800AE0D1
:1023D00000EB80010901092291FBF2F101F2DC51CD
:1023E000114A121D1180704700281FDD64214143EE
:1023F000092291FBF2F101F2DC51034A3C321180D7
:1024000023E00000000C1A0000040040001001400E
:1024100000080040000C0140001401400018014079
:102420009C8122428C812142342C014020B940F20F
:10243000DC51204A118008E064214143092291FBCC
:10244000F2F101F2DC511B4A1180704700280ADDCD
:1024500064214143092291FBF2F101F2DC51154A5A
:10246000121D118010E028B940F2DC51114A121DF2
:10247000118009E064214143092291FBF2F101F24C
:10248000DC510C4A121D1180704730B504460D46D0
:1024900000231A4621462846FFF7D2FE30BD30B54C
:1024A00004460D462B46224600210846FFF7C8FE8B
:1024B00030BD00003C04004000B58BB0F748FFF78A
:1024C0001FFAF7480090F7480190002002904FF45F
:1024D00048700390002004908020059040000690F2
:1024E00080000790202008900002099000200A90A8
:1024F0006946EA48FFF79DFA0BB000BD00B585B00C
:10250000E7484C38FEF7E4FF0020009001208DF8EA
:1025100004008DF805004FF4602002900020039025
:1025200010208DF810006946DD484C38FEF7FDFF9D
:10253000072301220021DA484C38FFF78EF80723E1
:1025400002220121D6484C38FFF787F807230322DF
:102550000221D3484C38FFF780F8072304220321D7
:10256000CF484C38FFF779F8072305220421CC48DF
:102570004C38FFF772F8072306220521C8484C386B
:10258000FFF76BF807231A460621C5484C38FFF7BA
:1025900064F8072308221946C1484C38FFF75DF854
:1025A000072309220821BE484C38FFF756F80723B5
:1025B0000A220921BA484C38FFF74FF807230B22AB
:1025C0000A21B7484C38FFF748F807230C220B21A3
:1025D000B3484C38FFF741F807230D220C21B048CF
:1025E0004C38FFF73AF807230E220D21AC484C383F
:1025F000FFF733F807230F220E21A9484C38FFF7C5
:102600002CF8072310220F21A5484C38FFF725F896
:102610000121A3484C38FEF7BFFF0121A0484C38E8
:10262000FEF7AFFF9E484C38FEF7CDFF00BF9C4839
:102630004C38FEF7CDFF0028F9D199484C38FEF709
:10264000D1FF00BF96484C38FEF7D1FF0028F9D1E2
:1026500005B000BD08B5FF20ADF8000000208DF8E2
:10266000030003208DF8020069468F48FEF700FE44
:102670000320ADF8000000208DF8030003208DF842
:10268000020069468948FEF7F3FD3F20ADF80000DF
:1026900000208DF8030003208DF80200694684486D
:1026A000FEF7E6FD4FF48070ADF8000048208DF88D
:1026B000030069467C48FEF7DBFD4FF47C40ADF833
:1026C000000048208DF8030069467848FEF7D0FDE9
:1026D0004FF46070ADF8000048208DF803006946A3
:1026E0007348FEF7C5FD4FF63870ADF8000048207E
:1026F0008DF8030069466F48FEF7BAFD4FF41540A8
:10270000ADF8000048208DF8030069466A48FEF7DE
:10271000AFFD08BD10B501214802FDF7F9FE4FF4E9
:102720000040FDF759FE01210846FDF7E4FE10BD0B
:1027300010B5FFF7EFFFFFF78DFFFFF7DFFEFFF7A5
:10274000BBFE012156484C38FEF75BFF0121534880
:10275000FFF79AF910BD10B50021002205E0514B9A
:1027600033F810301944531CDAB2322AF7DB322323
:1027700091FBF3F3514C24F81030002110BD10B53B
:102780000446611EC8B2FFF7E6FF601E4B4931F8F0
:10279000100010BD01460020172914D2DFE801F017
:1027A000E40C141D262F374049525B646C75969ECD
:1027B000A7B0B9C2CAD3DC00414A1268012A01D1CC
:1027C000012000E00020CFE03D4A08321268012AD3
:1027D00001D1012000E00020C6E0394A1032126821
:1027E000012A01D1012000E00020BDE0344A1C3262
:1027F0001268012A01D1012000E00020B4E0314A32
:102800001268012A01D1012000E00020ACE02D4A2D
:10281000121D1268012A01D1012000E00020A3E06E
:10282000284A08321268012A01D1012000E0002064
:102830009AE0244A0C321268012A01D1012000E0FA
:10284000002091E01F4A10321268012A01D10120B4
:1028500000E0002088E01B4A14321268012A01D1EE
:10286000012000E000207FE0174A1268012A01D110
:10287000012000E0002077E0134A121D1268012AAF
:1028800001D1012000E000206EE00F4A08321268FA
:10289000012A01D1012000E0002065E0080002408B
:1028A0004C2401405C02002000080140000C014063
:1028B000001001400014014000180140C002002037
:1028C000200123422881214220812242274A126886
:1028D000012A01D1012000E0002045E0234A121D19
:1028E0001268012A01D1012000E000203CE01F4ACB
:1028F00008321268012A01D1012000E0002033E0F3
:102900001A4A0C321268012A01D1012000E000208D
:102910002AE0164A10321268012A01D1012000E093
:10292000002021E0124A1268012A01D1012000E0B2
:10293000002019E00E4A121D1268012A01D101205F
:1029400000E0002010E00A4A08321268012A01D192
:10295000012000E0002007E0064A1268012A01D1A8
:10296000012000E0002000BF00BF70472C81224200
:102970001C012242200121420948006820F47060B5
:10298000074908600846006840F440700860044841
:102990000C30006840F0040001490C3108607047B9
:1029A00000140140CF48006820F47F00CD49086042
:1029B0000846006840F44C100860CA480C300068B3
:1029C00040F01000C7490C3108600846006840F02C
:1029D00020000860704710B5C248006820F47000FD
:1029E000C04908600846006840F4401008600120B3
:1029F000BD490860BD49C1F890010420FFF76CF99A
:102A00000020B94908600420FFF766F90020B749A3
:102A1000C1F8900110BD10B5B248006820F47000F4
:102A2000B04908600846006840F440100860002083
:102A3000AD49091F0860AD49C1F894010420FFF7B2
:102A40004BF90120A849091F0860A849C1F8940161
:102A50000420FFF741F910BD10B50024A14800681B
:102A600020F470009F4908600846006840F40000A8
:102A7000086001209C490860FFF72EF901209B495E
:102A8000C1F89001FFF728F907E0601CC4B2FA2CE6
:102A900003DDFFF7C0FF012010BD934880380068B8
:102AA0000028F2D19049091F086000BFF4E710B573
:102AB00000208D49091F08608A48006820F47000D2
:102AC000884908600846006840F44010086000200B
:102AD0008649C1F894010220FFF7FEF801208249DF
:102AE000091F08600220FFF7F7F800207F49C1F8AE
:102AF000900110BD10B500207B49091F086079487E
:102B0000006820F47000774908600846006840F4C7
:102B10004010086001207549C1F894010220FFF7B8
:102B2000DBF801207049091F08600220FFF7D4F884
:102B300000206E49C1F8900110BD70B50446694887
:102B4000006820F47000674908600846006840F497
:102B50004010086000206449091F0860002517E044
:102B6000E009614908606006040E0220FFF7B4F82E
:102B700001205E49C1F890010220FFF7ADF8002066
:102B80005949091F08600220FFF7A6F8681CC5B262
:102B9000082DE5DB70BD70B505460024514800687E
:102BA00020F470004F4908600846006840F40000B7
:102BB0000860002617E000204B49091F086002202A
:102BC000FFF78AF801204949C1F890016006040E18
:102BD00045488038006808B1601CC4B20120FFF786
:102BE0007BF8701CC6B2082EE5DB15B9FFF782FF33
:102BF00001E0FFF75CFF204670BD70B5044600257C
:102C0000FFF7E9FEA020FFF798FFFFF725FF610619
:102C1000080EFFF792FFFFF71FFFFFF7DCFEA12072
:102C2000FFF78BFFFFF718FF0020FFF7B4FF054603
:102C3000FFF7F1FEFFF7CFFEA020FFF77EFFFFF7C3
:102C40000BFF012101EB4401C8B2FFF776FFFFF74C
:102C500003FFFFF7C0FEA120FFF76FFFFFF7FCFEA9
:102C60004FF6FF7000EA05250020FFF794FF0543AB
:102C7000FFF7D1FE284670BD70B504460D46FFF73C
:102C8000AAFEA020FFF759FFFFF7E6FE6106080E37
:102C9000FFF753FFFFF7E0FE2E0A3046FFF74DFF28
:102CA000FFF7DAFEFFF7B7FE0A20FEF7F9FFFFF79E
:102CB00092FEA020FFF741FFFFF7CEFE012101EBBE
:102CC0004401C8B2FFF739FFFFF7C6FEEEB2304647
:102CD000FFF733FFFFF7C0FEFFF79DFE0A20FEF768
:102CE000DFFF70BD00180140940123420000234221
:102CF0001948006820F0FF0017490860084600687E
:102D000040F08800086014480C30006840F0010072
:102D100011490C3108600846006840F00200086064
:102D20000E4840680E4908400C4948600846406813
:102D30000C490843094948600846C06840F480606F
:102D4000C8600846C06840F40060C8600846C068B3
:102D500040F48050C86070470014014000100140EA
:102D6000FF00F0FF0088080070B505460C46012101
:102D70000846FDF7DAFB4FF08040858504858089A1
:102D800040F002004FF0804188810846808940F081
:102D9000400088810846008840F001000880022336
:102DA0001C2201210846FEF7CFFF70BD10B5E54893
:102DB000806940F00400E3498861E348006820F03E
:102DC0000F00E14908600846006840F0080008600C
:102DD000012208210320FEF7FFFF022317221946D4
:102DE0001846FEF7B1FF10BD10B5D848006820F0B6
:102DF0007F60D64908600846006840F04C70086063
:102E0000D2480830006840F40050D04908310860CA
:102E10000846006840F48040086041F61F414FF4C6
:102E2000C870FFF7A1FFFFF7C1FF10BD012804D054
:102E3000022811D0032816D106E00021C44A1160EF
:102E4000C44AC2F8B8110FE00021C14A1160012143
:102E5000C04AC2F8B81107E00121BD4A1160BD4A5D
:102E6000C2F8B81100E000BF00BF70474FF08040CB
:102E7000008840F001004FF0804108800020B649F2
:102E80000860B6490870B648006840F48070B449DC
:102E90000860704710B504462046FFF7C7FF0520BD
:102EA000FEF7FEFEFFF7E2FF00BFAC480078002807
:102EB000FBD0A948006810BD2DE9FE4F0025002673
:102EC000A946A8480290002422E00120FFF7E2FF73
:102ED000804604F0A9FF0746294604F075FE054622
:102EE0000320FFF7D7FF804604F09EFF07463146D8
:102EF00004F06AFE06460220FFF7CCFF804604F08D
:102F000093FF0746494604F05FFE8146601CC4B249
:102F1000032CDADB9449284604F0C4FE05469249A6
:102F2000304604F0BFFE06468F49484604F0BAFE1C
:102F30008146304604F01CFE824600228B4B04F092
:102F4000E3FC07468846284604F012FE3A4643460C
:102F5000CDE9000104F0D6FD16D2484604F008FE83
:102F60000022824BCDE9000104F0CEFC07468846E2
:102F7000284604F0FDFD82463A46434604F0C2FD71
:102F800002D20120BDE8FE8F304604F0F1FD4FF083
:102F90006632774BCDE9000104F0B6FC074688465F
:102FA000484604F0E5FD82463A46434604F0AAFD51
:102FB00015D2284604F0DCFD6E4A6F4BCDE90001C6
:102FC00004F0A2FC07468846484604F0D1FD82463C
:102FD0003A46434604F096FD01D20220D2E7284645
:102FE00004F0C6FD0746654A654B04F08DFC824639
:102FF0008B46304604F0BCFD52465B46CDE90001ED
:1030000004F080FD15D2484604F0B2FD07465B4A45
:103010005B4B04F079FC82468B46304604F0A8FDF9
:1030200052465B46CDE9000104F06CFD01D203205D
:10303000A8E73146029804F03FFF0746294604F00E
:1030400007FF0AD23146029804F036FF0746494688
:1030500004F0FEFE01D2042094E7002092E770B550
:103060000120FFF717FF84B20320FFF713FF86B29A
:103070000220FFF70FFF85B242A20221042000F0D8
:103080002BFB224602210A2000F03AFA3EA203213D
:10309000042000F021FB2A4603210A2000F030FA28
:1030A0003AA20421084600F017FB324604210A2008
:1030B00000F026FAB4F57A6F0DDDB5F57A6F0ADD0A
:1030C000A6F52F70B0F57A6F05DD31A205210A2033
:1030D00000F002FB35E040F6282084420DDA8542FC
:1030E0000BDAA6F52F7040F62821884205DA2AA2CD
:1030F00005210A2000F0F0FA23E0AC4209DDA6F534
:103100002F70A04205DA26A205210A2000F0E4FA79
:1031100017E0A54209DDA6F52F70A84205DA22A224
:1031200005210A2000F0D8FA0BE0A6F54870A84265
:1031300007DD6430A04204DD1DA205210A2000F055
:10314000CBFA70BD0010024004140140040C014091
:10315000B4812142008021420400002008000020A8
:10316000000401403333B33F000040400000F43F0F
:103170006666F23FCDCCCCCCCCCCF03F9A999999F5
:103180009999F53F7200000067000000620000009E
:103190007768697465000000626C61636B00000011
:1031A0007265642020000000677265656E00000093
:1031B000626C756520000000FE48806940F00400E4
:1031C000FC4988610846806940F010008861084623
:1031D000806940F020008861F748006820F0706046
:1031E000F54908600846006840F040700860F34800
:1031F000006820F07060F14908600846006840F0FF
:1032000040700860EE480068EE490840EC490860EC
:1032100008460068EC490843E9490860E848083076
:10322000006840F40060E64908310860084600681C
:1032300040F4805008600846006840F40050086080
:10324000DE48C06840F04000DC49C860DA480C3015
:10325000006840F04000D8490C310860704710B554
:103260000246D74B10331B6843F40063D44C103430
:103270002360012A06D1231F1B6843F48053241FB7
:10328000236007E0CE4B10331B6843F48053CC4CD3
:1032900010342360002025E001F0800343B1C84BC7
:1032A0000C331B6843F40053C54C0C34236007E017
:1032B000C34B10331B6843F40053C14C10342360DC
:1032C000BD4B14331B6843F04003BB4C14342360E4
:1032D0004B06190E231F1B6843F04003241F236075
:1032E000431CD8B20828D7DBB54B0C331B6843F41A
:1032F0000063B34C0C34236010BD30B504460D465A
:1033000044F080010020FFF7AAFF45F040010020B3
:10331000FFF7A5FF30BD10B500210846FFF7EDFF10
:10332000002404E000210120FFF799FF641CB4F59C
:10333000FC7FF7DB10BD70B50546A5F1200000EB62
:10334000800086B2002407E03019A04A115C0120F9
:10335000FFF785FF601C84B2052CF5DB70BD10B54E
:10336000044603E02078FFF7E6FF641C207800287D
:10337000F8D110BD002107E0002201E0531C9AB2F1
:103380008242FBDB4B1C99B2B1F5FA7FF4DB70474C
:1033900000B5FFF711FF8948406940F040008749B8
:1033A00048616420FFF7E6FF8448006940F0400070
:1033B0008249086182480C30006840F4006080490E
:1033C0000C31086021210020FFF749FFBE210020B9
:1033D000FFF745FF06210020FFF741FF13210020E2
:1033E000FFF73DFF20210020FFF739FF0C210020CF
:1033F000FFF735FFFFF78FFF00BDF0B507460E461C
:103400001546002431463846FFF777FF00BF05E038
:10341000295D0120FFF723FF601CC4B2102CF7DBED
:10342000701CC1B23846FFF768FF102405E0295D23
:103430000120FFF714FF601CC4B2202CF7DBF0BDA5
:103440002DE9F04105460F46164600243946284628
:10345000FFF753FF00BF0EE0642096FBF0F000EB97
:1034600080005B49084410F8048041460120FFF7C2
:10347000F6FE601CC4B2052CEEDB691DC8B23946ED
:10348000FFF73BFF002413E00A2096FBF0F00A212F
:1034900090FBF1F201FB120000EB80004C49084464
:1034A00010F8048041460120FFF7D9FE601CC4B229
:1034B000052CE9DB05F10A01C8B23946FFF71DFF0B
:1034C000002410E00A2096FBF0F100FB116000EBF5
:1034D00080003F49084410F8048041460120FFF76E
:1034E000BEFE601CC4B2052CECDB05F10F01C8B2B6
:1034F0003946FFF702FF7620FFF71DFFBDE8F08198
:103500002DE9F04106460F4615460024394630465F
:10351000FFF7F3FE00BF0FE04FF47A7095FBF0F079
:1035200000EB80002A49084410F80480414601203D
:10353000FFF795FE601CC4B2052CEDDB711DC8B20F
:103540003946FFF7DAFE002413E0642095FBF0F023
:103550000A2190FBF1F201FB120000EB80001C49F4
:10356000084410F8048041460120FFF778FE601CF3
:10357000C4B2052CE9DB06F10A01C8B23946FFF7EF
:10358000BCFE00242AE00A2095FBF0F0642190FBA9
:10359000F1F201FB12000A2190FBF1F201FB120093
:1035A00000EB80000A49084410F8048041460120DD
:1035B00010E0000000100240001401400010014023
:1035C00004080140FF0F00FF0030330029000020F5
:1035D0000E020020FFF743FE601CC4B2052CD2DBB4
:1035E00006F10F01C8B23946FFF787FE002410E04C
:1035F0000A2095FBF0F100FB115000EB80003C49E4
:10360000084410F8048041460120FFF728FE601CA2
:10361000C4B2052CECDBBDE8F0812DE9F041064693
:103620000F461546002439463046FFF766FE00BFB8
:1036300013E00A2095FBF0F00A2190FBF1F201FB68
:10364000120000EB80002A49084410F8048041462B
:103650000120FFF704FE601CC4B2052CE9DB711DDC
:10366000C8B23946FFF749FE002410E00A2095FB56
:10367000F0F100FB115000EB80001D49084410F8E8
:10368000048041460120FFF7EAFD601CC4B2052C0E
:10369000ECDBBDE8F0812DE9F04106460F4615460A
:1036A000002439463046FFF728FE00BF10E00A200C
:1036B00095FBF0F100FB115000EB80000C49084431
:1036C00010F8048041460120FFF7C9FD601CC4B218
:1036D000052CECDBBDE8F08170B505460E461446BE
:1036E00031462846FFF709FE2046FFF738FE70BD39
:1036F0000E02002010B54FF40071FE48FDF74BFE9E
:1037000001281BD18102FB48FDF745FEB0B94FF4FB
:103710000061F848FDF73FFE80B94FF40041F548DD
:10372000FDF739FE50B98021F348FDF734FE28B982
:1037300042216FF02300FEF7A8FE12E24FF4007161
:10374000EC48FDF728FE01281BD18102E948FDF76E
:1037500022FE012815D1C102E648FDF71CFE80B902
:103760004FF40041E348FDF716FE50B98021E248CE
:10377000FDF711FE28B941216FF02200FEF785FE0A
:10378000E0E34FF40071DB48FDF705FEE0B94FF4CC
:103790008061D848FDF7FFFD012815D1C102D54849
:1037A000FDF7F9FD80B94FF40041D248FDF7F3FD74
:1037B00050B98021D048FDF7EEFD28B940216FF0C7
:1037C0002100FEF762FEBDE34FF40071C948FDF72A
:1037D000E2FDE0B94FF48061C648FDF7DCFD012849
:1037E00015D1C102C348FDF7D6FD01280FD1C10391
:1037F000C048FDF7D0FD50B98021BF48FDF7CBFD93
:1038000028B93F216FF02000FEF73FFE9AE34FF406
:103810000071B848FDF7BFFD10BB4FF48061B5489B
:10382000FDF7B9FDE0B94FF40061B248FDF7B3FD13
:10383000012815D10103AF48FDF7ADFD80B94FF464
:103840000041AC48FDF7A7FD50B98021AA48FDF71B
:10385000A2FD28B93E216FF01F00FEF716FE71E3AE
:103860004FF40071A348FDF796FD10BB4FF4806143
:10387000A048FDF790FDE0B94FF400619D48FDF7C9
:103880008AFD012815D101039A48FDF784FD01281E
:103890000FD1C1039748FDF77EFD50B980219648AE
:1038A000FDF779FD28B93D216FF01E00FEF7EDFD13
:1038B00048E34FF400718F48FDF76DFD48BB4FF4AE
:1038C00080618C48FDF767FD18BB4FF400618948A3
:1038D000FDF761FDE8B94FF480518648FDF75BFDC7
:1038E000012816D141038348FDF755FD88B94FF4EF
:1038F00080418048FDF74FFD58B94FF400417D48A5
:10390000FDF749FD28B93C216FF01D00FEF7BDFD14
:1039100018E34FF400717748FDF73DFD10BB4FF4FD
:1039200080617448FDF737FDE0B94FF400617148DC
:10393000FDF731FDB0B94FF480516E48FDF72BFD16
:1039400001280FD141036B48FDF725FD012809D15E
:1039500081036848FDF71FFD20B93C210846FEF7AA
:1039600094FDEFE24FF400716248FDF714FD40BB97
:103970004FF480615F48FDF70EFD10BB4FF480519E
:103980005C48FDF708FDE0B94FF400515948FDF7D8
:1039900002FD012815D181035648FDF7FCFC80B9D2
:1039A0004FF400415348FDF7F6FC50B980215248CE
:1039B000FDF7F1FC28B96FF01D013C20FEF765FD15
:1039C000C0E24FF400714B48FDF7E5FC40BB4FF4FB
:1039D00080614848FDF7DFFC10BB4FF4805145483B
:1039E000FDF7D9FCE0B94FF400514248FDF7D3FC94
:1039F000012815D181033F48FDF7CDFC01280FD1E7
:103A0000C1033C48FDF7C7FC50B980213A48FDF797
:103A1000C2FC28B96FF01E013D20FEF736FD91E291
:103A20004FF400713348FDF7B6FC10BB4FF48061D2
:103A30003048FDF7B0FCE0B94FF400512D48FDF7D8
:103A4000AAFCB0B94FF480412A48FDF7A4FC012834
:103A50000FD1C1032748FDF79EFC50B980212648AD
:103A6000FDF799FC28B96FF01F013E20FEF70DFD10
:103A700068E24FF400711F48FDF78DFC18BB4FF44E
:103A800080611C48FDF787FCE8B94FF400511948E4
:103A9000FDF781FCB8B94FF480411648FDF77BFC77
:103AA000012810D1C1031348FDF775FC01280AD184
:103AB00080211148FDF76FFC28B96FF020013F20ED
:103AC000FEF7E3FC3EE24FF400710A48FDF763FCA9
:103AD00018BB4FF480610748FDF75DFCE8B94FF46F
:103AE00080410448FDF757FCB8B94FF40041014844
:103AF00004E000000014014000100140FDF74BFC01
:103B000001280AD18021FE48FDF745FC28B96FF055
:103B100021014020FEF7B9FC14E24FF40071F9488E
:103B2000FDF739FCF0B94FF48061F648FDF733FC3E
:103B3000C0B94FF48041F348FDF72DFC90B94FF424
:103B40000041F048FDF727FC01280BD18021EC480B
:103B5000FDF721FC012805D16FF022014120FEF77D
:103B600094FCEFE14FF40071E648FDF714FCE8B96E
:103B70004FF48061E348FDF70EFCB8B94FF4804183
:103B8000E048FDF708FC88B94FF40041DD48FDF737
:103B900002FC58B98021DA48FDF7FDFB012805D168
:103BA0006FF023014220FEF770FCCBE14FF400716F
:103BB000D448FDF7F0FB58B94FF48061D148FDF7C8
:103BC000EAFB28B94FF40061CE48FDF7E4FB78B179
:103BD0004FF40041CB48FDF7DEFB48B98021C848CF
:103BE000FDF7D9FB20B928210846FEF74EFCA9E1D4
:103BF0004FF40071C348FDF7CEFBD8B94FF4806194
:103C0000C048FDF7C8FBA8B94FF48041BD48FDF797
:103C1000C2FB50B94FF40041BA48FDF7BCFB20B9D4
:103C20008021B748FDF7B7FB20B128210846FEF7F1
:103C30002CFC87E14FF40071B248FDF7ACFB044661
:103C40004FF40061AF48FDF7A6FB04444FF4005168
:103C5000AC48FDF7A0FB04444FF40041A948FDF730
:103C60009AFB204402281DDB4FF48061A548FDF734
:103C700092FB04464FF48051A248FDF78CFB0444AC
:103C80004FF480419F48FDF786FB044480219C4807
:103C9000FDF781FB2044022804DB28210846FEF7BB
:103CA000F4FB4FE14FF400719648FDF774FB0446B6
:103CB0004FF480619348FDF76EFB04444FF40041DC
:103CC0009048FDF768FB044480218D48FDF763FBB5
:103CD000204402281EDB4FF480618A48FDF75BFB1D
:103CE00004464FF400618748FDF755FB04444FF448
:103CF00000518448FDF74FFB04444FF48041814854
:103D0000FDF749FB2044022804DB28210846FEF782
:103D1000BCFB17E14FF400717A48FDF73CFB044609
:103D20004FF480617748FDF736FB04444FF40051AF
:103D30007448FDF730FB04444FF480417148FDF7AF
:103D40002AFB204402281DDB4FF480616D48FDF7FB
:103D500022FB04464FF400616A48FDF71CFB044453
:103D60004FF400416748FDF716FB04448021644886
:103D7000FDF711FB2044022804DB28210846FEF74A
:103D800084FBDFE04FF400715E48FDF704FB04465E
:103D90004FF480615B48FDF7FEFA04444FF4006184
:103DA0005848FDF7F8FA04444FF480515548FDF7A0
:103DB000F2FA204402281DDB4FF400515148FDF770
:103DC000EAFA04464FF480414E48FDF7E4FA044411
:103DD0004FF400414B48FDF7DEFA04448021484887
:103DE000FDF7D9FA2044022804DB28210846FEF713
:103DF0004CFBA7E04FF400714248FDF7CCFA0446B3
:103E00004FF400613F48FDF7C6FA04444FF40051F7
:103E10003C48FDF7C0FA04444FF480413948FDF7AF
:103E2000BAFA204402281DDB4FF480613548FDF7C3
:103E3000B2FA04464FF480513248FDF7ACFA04441C
:103E40004FF400412F48FDF7A6FA044480212C4886
:103E5000FDF7A1FA2044022804DB28210846FEF7DA
:103E600014FB6FE04FF400712648FDF794FA044606
:103E70004FF480512348FDF78EFA04444FF400516B
:103E80002048FDF788FA04444FF480411D48FDF7AF
:103E900082FA204402281DDB4FF400611948FDF727
:103EA0007AFA04464FF480511648FDF774FA044438
:103EB0004FF400511348FDF76EFA04448021104876
:103EC000FDF769FA2044022804DB28210846FEF7A2
:103ED000DCFA37E04FF400710A48FDF75CFA88BB62
:103EE0004FF480610748FDF756FA58BB4FF4006164
:103EF0000448FDF750FA28BB4FF48051014803E015
:103F00000010014000140140FDF745FAD0B94FF40C
:103F10000051F748FDF73FFAA0B94FF48041F4484B
:103F2000FDF739FA70B94FF40041F148FDF733FA63
:103F300040B98021EF48FDF72EFA18B9282108462C
:103F4000FEF7A3FA10BD10B54FF40071E848FDF775
:103F500022FA04464FF48061E548FDF71CFA044458
:103F60004FF40061E248FDF716FA04444FF4805123
:103F7000DF48FDF710FA04444FF40051DC48FDF728
:103F80000AFA04444FF48041D948FDF704FA044486
:103F90004FF40041D648FDF7FEF904448021D5488E
:103FA000FDF7F9F9204405280EDB4FF40071D048E5
:103FB000FDF7F1F940B18021CE48FDF7ECF918B1D9
:103FC0000120CD49086001E0002010BDCA4800680A
:103FD00001284BD103E03C210846FEF756FA4FF486
:103FE0000071C348FDF7D7F904464FF48061C0481B
:103FF000FDF7D1F904444FF40061BD48FDF7CBF95A
:1040000004444FF48051BA48FDF7C5F904444FF415
:104010000051B748FDF7BFF904444FF48041B4485C
:10402000FDF7B9F904444FF40041B148FDF7B3F985
:1040300004448021AF48FDF7AEF920440528CADAD0
:104040004FF40071AA48FDF7A6F90028C3D18021DA
:10405000A848FDF7A0F90028BDD100210846FEF7C9
:1040600014FA0020A44908600120AEE70020ACE764
:1040700070B5054600244FF4806615F1B40F01D0E9
:10408000B42D7CD14FF400719948FDF784F928B123
:104090004FF400419648FDF77EF9B8B94FF48061BE
:1040A0009348FDF778F920B180219248FDF773F924
:1040B00060B94FF400718E48FDF76DF900287CD08F
:1040C00080218C48FDF767F90028F8D004E06FF0F4
:1040D0004F010846FEF7D9F94FF400718448FDF707
:1040E0005AF930B14FF400418148FDF754F90028E6
:1040F000EDD14FF480617E48FDF74DF928B1802164
:104100007C48FDF748F90028E1D14FF40071784868
:10411000FDF741F928B180217648FDF73CF90028E8
:10412000D5D14020FDF7BCFD4FF400717048FDF77C
:1041300032F9A8B94FF480616D48FDF72CF978B9D0
:104140004FF400616A48FDF726F948B96FF0400165
:104150006FF03600FEF799F95120FDF7A1FD1BE045
:1041600080216448FDF717F9B0B94FF40041604869
:10417000FDF711F980B94FF480415D4800E06AE035
:10418000FDF709F940B96FF036016FF04000FEF716
:104190007CF95120FDF784FD4FF400715448FDF780
:1041A000FAF888B94FF480615148FDF7F4F858B92E
:1041B0006FF045016FF03B0000E044E0FEF765F969
:1041C0005120FDF76DFD13E080214A48FDF7E3F82B
:1041D00070B94FF400414648FDF7DDF840B96FF083
:1041E0003B016FF04500FEF750F95120FDF758FDF7
:1041F0004FF400713E48FDF7CEF878B94FF4806176
:104200003B48FDF7C8F848B16FF04C016FF0410032
:10421000FEF73BF95120FDF743FD1CE080213548B6
:10422000FDF7B9F8B8B94FF400413148FDF7B3F8DC
:1042300088B16FF041016FF04C00FEF726F9512074
:10424000FDF72EFD07E06FF04F010846FEF71DF960
:104250005120FDF725FD15F1B40F0CD13C2148424A
:10426000FEF713F9722403E00A20FDF719FD641E1E
:10427000002CF9D148E015F15A0F16D13C214842E3
:10428000FEF703F93A2403E00A20FDF709FD641E56
:10429000002CF9D13C210846FEF7F7F8E120FDF7A4
:1042A000FFFC6420FDF7FCFC2EE05A2D17D16FF0C7
:1042B0003B013C20FEF7E9F83A2403E00A20FDF731
:1042C000EFFC641E002CF9D13C210846FEF7DDF816
:1042D000DB20FDF7E5FC6420FDF7E2FC14E0B42DE3
:1042E00012D16FF03B013C20FEF7CFF8742409E0B7
:1042F0000014014000100140480200200A20FDF790
:10430000CFFC641E002CF9D115F15A0F02D015F123
:10431000B40F7CD10324D3E003E046214842FEF7EA
:10432000B4F84FF40071FE48FDF735F8012805D1C7
:104330008102FB48FDF72FF80028EED003E043216F
:104340004842FEF7A2F84FF40071F548FDF723F854
:10435000012805D18102F248FDF71DF80128EED0B1
:1043600003E03F214842FEF790F84FF40071EC481B
:10437000FDF711F801280BD18102E948FDF70BF890
:10438000012805D1C102E648FDF705F80128E8D06B
:1043900003E03A214842FEF778F84FF40071E04814
:1043A000FCF7F9FF60B94FF48061DD48FCF7F3FFDB
:1043B000012805D1C102DA48FCF7EDFF0128E8D059
:1043C00003E035214842FEF760F84FF48061D4489D
:1043D000FCF7E1FF012805D1C102D148FCF7DBFF62
:1043E0000128EED003E032214842FEF74EF84FF4A8
:1043F0008061CB48FCF7CFFF01280DD1C102C8482E
:10440000FCF7C9FF012807D10103C54800E036E1E8
:10441000FCF7C1FF0128E6D003E030214842FEF757
:1044200034F84FF48061BE48FCF7B5FF60B94FF433
:104430000061BB48FCF7AFFF012805D10103B84874
:10444000FCF7A9FF0128E8D003E02A214842FEF743
:104450001CF84FF40061B248FCF79DFF012805D11C
:104460000103AF48FCF797FF0128EED003E02621B7
:104470004842FEF70AF84FF40061A948FCF78BFFA9
:1044800001280BD10103A648FCF785FF012805D1BF
:104490004103A348FCF77FFF0128E8D04FF4805187
:1044A0009F48FCF778FF012809D141039C48FCF79D
:1044B00072FF012803D100210846FDF7E6FF641EC4
:1044C000002C7FF429AF0224D5E004E06FF0450111
:1044D0004620FDF7DAFF80219248FCF75CFF0128B7
:1044E00005D1C1038E48FCF756FF0028EED004E04A
:1044F0006FF042014320FDF7C8FF80218948FCF797
:104500004AFF012805D1C1038548FCF744FF012873
:10451000EED004E06FF03E013F20FDF7B6FF8021B2
:104520008048FCF738FF01280BD1C1037C48FCF719
:1045300032FF012805D181037948FCF72CFF0128BF
:10454000E8D004E06FF039013A20FDF79EFF8021AA
:104550007448FCF720FF60B94FF400417048FCF745
:104560001AFF012805D181036D48FCF714FF0128CB
:10457000E8D004E06FF031013220FDF786FF4FF400
:1045800000416748FCF707FF012805D18103644813
:10459000FCF701FF0128EDD004E06FF02F0130207F
:1045A000FDF773FF4FF400415D48FCF7F4FE01286E
:1045B0000BD181035A48FCF7EEFE012805D14103D7
:1045C0005748FCF7E8FE0128E7D004E06FF02C0123
:1045D0002D20FDF75AFF4FF400415148FCF7DBFE58
:1045E00060B94FF480414E48FCF7D5FE012805D153
:1045F00041034B48FCF7CFFE0128E7D004E06FF001
:1046000029012A20FDF741FF4FF480414448FCF77F
:10461000C2FE012805D141034148FCF7BCFE012838
:10462000EDD04FF480413E48FCF7B5FE012810D193
:1046300041033B48FCF7AFFE01280AD1010338488B
:10464000FCF7A9FE012804D16FF025012620FDF713
:104650001CFF4FF400513248FCF79DFE012809D1A0
:1046600001032F48FCF797FE012803D100210846DB
:10467000FDF70BFF641E002C7FF427AFB6E1032487
:10468000DAE004E06FF045014620FDF7FEFE8021F0
:104690002448FCF780FE012805D1C1032048FCF71F
:1046A0007AFE0028EED004E06FF042014320FDF7CF
:1046B000ECFE80211B48FCF76EFE012805D1C103EA
:1046C0001748FCF768FE0128EED004E06FF03E01C9
:1046D0003F20FDF7DAFE80211248FCF75CFE01283E
:1046E0000BD1C1030E48FCF756FE012805D181030A
:1046F0000B48FCF750FE0128E8D004E06FF03901C8
:104700003A20FDF7C2FE80210648FCF744FE88B936
:104710004FF400410248FCF73EFE01280AD103E0B5
:1047200000140140001001408103FE48FCF733FEF5
:104730000128E3D004E06FF031013220FDF7A5FE3F
:104740004FF40041F748FCF726FE012805D181030C
:10475000F448FCF720FE0128EDD004E06FF02F01B3
:104760003020FDF792FE4FF40041EE48FCF713FEB7
:1047700001280BD18103EB48FCF70DFE012805D180
:104780004103E848FCF707FE0128E7D004E06FF09A
:104790002C012D20FDF779FE4FF40041E148FCF794
:1047A000FAFD60B94FF48041DE48FCF7F4FD0128C2
:1047B00005D14103DB48FCF7EEFD0128E7D004E01A
:1047C0006FF029012A20FDF760FE4FF48041D548A3
:1047D000FCF7E1FD012805D14103D248FCF7DBFDE0
:1047E0000128EDD04FF48041CE48FCF7D4FD0128DC
:1047F00010D14103CB48FCF7CEFD01280AD10103BB
:10480000C848FCF7C8FD012804D16FF02501262017
:10481000FDF73BFE4FF40051C248FCF7BCFD0128F8
:1048200009D10103BF48FCF7B6FD012803D10021DF
:104830000846FDF72AFE641E002C7FF422AF0224F6
:10484000D1E003E046214842FDF71FFE4FF400711E
:10485000B448FCF7A0FD012805D18102B148FCF75E
:104860009AFD0028EED003E043214842FDF70DFEFB
:104870004FF40071AB48FCF78EFD012805D1810291
:10488000A848FCF788FD0128EED003E03F2148420C
:10489000FDF7FBFD4FF40071A248FCF77CFD0128F9
:1048A0000BD181029F48FCF776FD012805D1C1029A
:1048B0009C48FCF770FD0128E8D003E03A2148420B
:1048C000FDF7E3FD4FF400719648FCF764FD60B915
:1048D0004FF480619348FCF75EFD012805D1C102C9
:1048E0009048FCF758FD0128E8D003E03521484204
:1048F000FDF7CBFD4FF480618A48FCF74CFD0128A1
:1049000005D1C1028748FCF746FD0128EED003E03F
:1049100032214842FDF7B9FD4FF480618148FCF730
:104920003AFD01280BD1C1027E48FCF734FD012875
:1049300005D101037B48FCF72EFD0128E8D003E0F8
:1049400030214842FDF7A1FD4FF480617548FCF726
:1049500022FD60B94FF400617248FCF71CFD01288C
:1049600005D101036F48FCF716FD0128E8D003E0EC
:104970002A214842FDF789FD4FF400616948FCF7A0
:104980000AFD012805D101036648FCF704FD012852
:10499000EED003E026214842FDF777FD4FF4006199
:1049A0006048FCF7F8FC01280BD101035D48FCF7D7
:1049B000F2FC012805D141035A48FCF7ECFC012820
:1049C000E8D04FF480515748FCF7E5FC012809D1A5
:1049D00041035448FCF7DFFC012803D100210846BD
:1049E000FDF753FD641E002C7FF42BAF15F1B40FBF
:1049F00001D0B42D0ED137210846FDF746FD4FF406
:104A00009670FDF74DF901E0FEF774FE3000A6F157
:104A10000106F9D100210846FDF737FD70BD10B53C
:104A20004FF480614048FCF7B6FC30B94FF4805138
:104A30003D48FCF7B0FC00283DD004E06FF00901D0
:104A40003C20FDF722FD4FF480613748FCF7A3FCC2
:104A500030B94FF480513448FCF79DFC0028EDD16B
:104A600004E03C216FF00900FDF70FFD4FF4806179
:104A70002D48FCF790FC30B14FF480512A48FCF7E8
:104A80008AFC0028EDD04FF480612748FCF783FCB6
:104A900098B14FF480512448FCF77DFC68B13C216B
:104AA0000846FDF7F2FC4FF4AA70FDF7F9F8012073
:104AB0001E49086001E0002010BD1C480068012864
:104AC00053D138213C20FDF7E0FC5020FDF7E8F8F9
:104AD00003E028210846FDF7D8FC4FF40071114887
:104AE000FCF759FC04464FF480610E48FCF753FC78
:104AF00004444FF400610B48FCF74DFC04444FF4B0
:104B000080510848FCF747FC04444FF40051054825
:104B1000FCF741FC04444FF480410248FCF73BFCA5
:104B2000044405E000140140001801404C0200203C
:104B30004FF40041F648FCF72EFC04448021F54870
:104B4000FCF729FC20440428C3DA3C215A20FDF755
:104B50009CFC6420FDF7A4F800210846FDF795FCB5
:104B60000020ED4908600120A6E70020A4E710B569
:104B70004FF48061E948FCF70EFC30B94FF48051E6
:104B8000E648FCF708FC00283DD004E06FF009017E
:104B90003C20FDF77AFC4FF48061E048FCF7FBFB1A
:104BA00030B94FF48051DD48FCF7F5FB0028EDD11A
:104BB00004E03C216FF00900FDF767FC4FF48061D1
:104BC000D648FCF7E8FB30B14FF48051D348FCF7EE
:104BD000E2FB0028EDD04FF48061D048FCF7DBFB0E
:104BE00098B14FF48051CD48FCF7D5FB68B13C211A
:104BF0000846FDF74AFC4FF4AA70FDF751F8012072
:104C0000C549086001E0002010BDC34800680128C4
:104C10004CD13C213820FDF738FC5020FDF740F8FE
:104C200003E028210846FDF730FC4FF40071B84836
:104C3000FCF7B1FB04464FF48061B548FCF7ABFBD1
:104C400004444FF40061B248FCF7A5FB04444FF460
:104C50008051AF48FCF79FFB04444FF40051AC482F
:104C6000FCF799FB04444FF48041A948FCF793FBFF
:104C700004444FF40041A648FCF78DFB0444802116
:104C8000A448FCF788FB20440428CADA5A213C20B7
:104C9000FDF7FBFB3220FDF703F800210846FDF786
:104CA000F4FB00209C4908600120ADE70020ABE741
:104CB00010B54FF480619948FCF76DFB30B94FF4A3
:104CC00080519648FCF767FB00283DD004E06FF068
:104CD00009013C20FDF7D9FB4FF480618F48FCF7B8
:104CE0005AFB30B94FF480518C48FCF754FB002834
:104CF000EDD104E03C216FF00900FDF7C6FB4FF455
:104D000080618648FCF747FB30B14FF480518348FF
:104D1000FCF741FB0028EDD04FF480617F48FCF7A1
:104D20003AFB98B14FF480517C48FCF734FB68B1F2
:104D30003C210846FDF7A9FB4FF4AA70FCF7B0FF31
:104D400001207549086001E0002010BD724800682C
:104D500001284CD138213C20FDF797FB5020FCF76F
:104D60009FFF03E028210846FDF78FFB4FF40071F9
:104D70006748FCF710FB04464FF480616448FCF779
:104D80000AFB04444FF400616148FCF704FB04444F
:104D90004FF480515E48FCF7FEFA04444FF4005192
:104DA0005B48FCF7F8FA04444FF480415848FCF79C
:104DB000F2FA04444FF400415548FCF7ECFA04447D
:104DC00080215448FCF7E7FA20440428CADA3C2141
:104DD0005A20FDF75AFB3220FCF762FF00210846FB
:104DE000FDF753FB00204C4908600120ADE700208F
:104DF000ABE710B56FF027010846FDF746FB4FF40F
:104E00009670FCF74DFF10BD10B56FF027010846F6
:104E1000FDF73BFB4FF4C870FCF742FF10BD10B527
:104E20001E20FDF7E1FA6FF01D00FDF70FFB10BD2E
:104E300070B504460025012C01D0022C33D104E0CA
:104E40006FF009013C20FDF720FB4FF480613348EF
:104E5000FCF7A1FA30B94FF480513048FCF79BFAC7
:104E60000028EDD104E03C216FF00900FDF70DFBB7
:104E70004FF480612948FCF78EFA30B14FF480512D
:104E80002648FCF788FA0028EDD04FF480612348CB
:104E9000FCF781FAD8B34FF480512048FCF77BFA35
:104EA000A8B3012070BD04E06FF009013C20FDF7BC
:104EB000ECFA4FF480611948FCF76DFA30B94FF401
:104EC00080511648FCF767FA0028EDD104E03C2138
:104ED0006FF00900FDF7D9FA4FF480610F48FCF735
:104EE0005AFA30B14FF480510C48FCF754FA0028BC
:104EF000EDD04FF480610948FCF74DFA38B14FF41A
:104F000080510648FCF747FA08B10120CAE707E0DC
:104F100000140140001001404C0200200018014024
:104F20002846BFE710B5044601E0FEF7E3FB204644
:104F3000FFF77EFF0028F8D000210846FDF7A5FA0C
:104F4000C820FCF7ADFEFFF76AFF4FF4FA70FCF7DC
:104F5000A7FEFFF759FFFFF74CFFB420FFF788F8D3
:104F60003CB901E0FEF7C6FBFFF7A2FE0028F9D02E
:104F700006E001E0FEF7BEFBFFF751FD0028F9D087
:104F800010BD70B5054600244FF4806615F1B40FCE
:104F900001D0B42D71D14FF40071FE48FCF7FBF93C
:104FA00028B14FF40041FB48FCF7F5F9B8B94FF4CC
:104FB0008061F848FCF7EFF920B18021F648FCF752
:104FC000EAF960B94FF40071F248FCF7E4F90028FF
:104FD0007DD08021F048FCF7DEF90028F8D006E00B
:104FE0006FF04F010846FDF750FAFFF718FF4FF436
:104FF0000071E848FCF7CFF930B14FF40041E548C3
:10500000FCF7C9F90028EBD14FF48061E148FCF7C7
:10501000C2F928B18021E048FCF7BDF90028DFD1B2
:105020004FF40071DB48FCF7B6F928B18021DA486B
:10503000FCF7B1F90028D3D14020FCF731FE4FF442
:105040000071D448FCF7A7F9C0B94FF48061D1488A
:10505000FCF7A1F990B94FF40061CE48FCF79BF939
:1050600060B96FF040016FF03600FDF70EFAFFF700
:10507000D6FE5120FCF714FE1CE084E08021C648D7
:10508000FCF789F9B0B94FF40041C248FCF783F945
:1050900080B94FF48041BF48FCF77DF950B96FF0FB
:1050A00036016FF04000FDF7F0F9FFF7B8FE512030
:1050B000FCF7F6FD4FF40071B648FCF76CF998B9AF
:1050C0004FF48061B348FCF766F968B900E050E03E
:1050D0006FF045016FF03B00FDF7D7F9FFF79FFE3A
:1050E0005120FCF7DDFD15E08021AB48FCF753F9BA
:1050F00080B94FF40041A748FCF74DF950B96FF063
:105100003B016FF04500FDF7C0F9FFF788FE512025
:10511000FCF7C6FD4FF400719E48FCF73CF988B9D6
:105120004FF480619B48FCF736F958B16FF04C01A1
:105130006FF04100FDF7A9F9FFF771FE5120FCF770
:10514000AFFD20E080219448FCF725F9D8B94FF451
:1051500000419048FCF71FF9A8B16FF041016FF0D2
:105160004C00FDF792F9FFF75AFE5120FCF798FD2D
:1051700009E06FF04F010846FDF787F9FFF74FFE92
:105180005120FCF78DFD15F1B40F0ED13C214842A2
:10519000FDF77BF9FFF743FE712403E00A20FCF7DB
:1051A0007FFD641E002CF9D146E015F15A0F17D18E
:1051B0003C214842FDF769F9FFF731FE3A2403E04C
:1051C0000A20FCF76DFD641E002CF9D13C21084635
:1051D000FDF75BF9FFF723FEE120FCF761FD2BE013
:1051E0005A2D18D16FF03B013C20FDF74EF9FFF727
:1051F00016FE3A2403E00A20FCF752FD641E002C40
:10520000F9D13C210846FDF740F9FFF708FEDB2005
:10521000FCF746FD10E0B42D0ED16FF03B013C20B1
:10522000FDF733F9FFF7FBFD742403E00A20FCF7D8
:1052300037FD641E002CF9D115F15A0F02D015F17B
:10524000B40F72D10324EAE005E046214842FDF79D
:105250001CF9FFF7E4FD4FF400714E48FCF79BF892
:10526000012805D181024B48FCF795F80028ECD0C5
:1052700005E043214842FDF708F9FFF7D0FD4FF460
:1052800000714448FCF787F8012805D181024148A4
:10529000FCF781F80128ECD005E03F214842FDF7FA
:1052A000F4F8FFF7BCFD4FF400713A48FCF773F8CF
:1052B00001280BD181023748FCF76DF8012805D190
:1052C000C1023448FCF767F80128E6D005E03A212E
:1052D0004842FDF7DAF8FFF7A2FD4FF400712D48C0
:1052E000FCF759F860B94FF480612A48FCF753F88D
:1052F000012805D1C1022748FCF74DF80128E6D066
:1053000005E035214842FDF7C0F8FFF788FD4FF46E
:1053100080612048FCF73FF8012805D1C1021D48F3
:10532000FCF739F80128ECD006E06BE13221484265
:10533000FDF7ABF8FFF773FD4FF480611548FCF7FC
:105340002AF801280BD1C1021248FCF724F80128E1
:1053500005D101030F48FCF71EF80128E6D005E04F
:1053600030214842FDF791F8FFF759FD4FF4806175
:105370000848FCF710F860B94FF400610548FCF7E5
:105380000AF8012805D101030248FCF704F80128B6
:10539000E6D009E000140140001001402A214842F3
:1053A000FDF773F8FFF73BFD4FF40061FE48FBF794
:1053B000F2FF012805D10103FB48FBF7ECFF0128B0
:1053C000ECD005E026214842FDF75FF8FFF727FD06
:1053D0004FF40061F448FBF7DEFF01280BD1010315
:1053E000F148FBF7D8FF012805D14103EE48FBF750
:1053F000D2FF0128E6D04FF48051EB48FBF7CBFFFA
:1054000001280BD14103E848FBF7C5FF012805D16E
:1054100000210846FDF739F8FFF701FD641E002C56
:105420007FF412AF0224E9E006E06FF04501462068
:10543000FDF72BF8FFF7F3FC8021DC48FBF7ABFF0F
:10544000012805D1C103D848FBF7A5FF0028ECD0FF
:1054500006E06FF042014320FDF717F8FFF7DFFC8D
:105460008021D248FBF797FF012805D1C103CE4820
:10547000FBF791FF0128ECD006E06FF03E013F20E2
:10548000FDF703F8FFF7CBFC8021C848FBF783FF4B
:1054900001280BD1C103C448FBF77DFF012805D1CA
:1054A0008103C148FBF777FF0128E6D006E06FF0E3
:1054B00039013A20FCF7E9FFFFF7B1FC8021BB4836
:1054C000FBF769FF60B94FF40041B748FBF763FF92
:1054D000012805D18103B448FBF75DFF0128E6D020
:1054E00006E06FF031013220FCF7CFFFFFF797FCA9
:1054F0004FF40041AC48FBF74EFF012805D1810372
:10550000A948FBF748FF0128EBD006E06FF02F0118
:105510003020FCF7BAFFFFF782FC4FF40041A248AD
:10552000FBF739FF01280BD181039F48FBF733FFBD
:10553000012805D141039C48FBF72DFF0128E5D048
:1055400006E06FF02C012D20FCF79FFFFFF767FCB2
:105550004FF400419448FBF71EFF60B94FF48041BF
:105560009148FBF718FF012805D141038E48FBF74E
:1055700012FF0128E5D006E06FF029012A20FCF790
:1055800084FFFFF74CFC4FF480418748FBF703FF93
:10559000012805D141038448FBF7FDFE0128EBD02B
:1055A0004FF480418048FBF7F6FE012812D14103F9
:1055B0007D48FBF7F0FE01280CD101037A48FBF788
:1055C000EAFE012806D16FF025012620FCF75DFFD9
:1055D000FFF725FC4FF400517348FBF7DCFE012870
:1055E0000BD101037048FBF7D6FE012805D100213D
:1055F0000846FCF74AFFFFF712FC641E002C7FF4FC
:1056000013AFDEE10324EEE006E06FF04501462033
:10561000FCF73BFFFFF703FC80216448FBF7BBFE70
:10562000012805D1C1036048FBF7B5FE0028ECD086
:1056300006E06FF042014320FCF727FFFFF7EFFB86
:1056400080215A48FBF7A7FE012805D1C10356481F
:10565000FBF7A1FE0128ECD006E06FF03E013F20F1
:10566000FCF713FFFFF7DBFB80215048FBF793FEAD
:1056700001280BD1C1034C48FBF78DFE012805D151
:1056800081034948FBF787FE0128E6D006E06FF06A
:1056900039013A20FCF7F9FEFFF7C1FB80214348AE
:1056A000FBF779FE60B94FF400413F48FBF773FE0A
:1056B000012805D181033C48FBF76DFE0128E6D0A7
:1056C00006E06FF031013220FCF7DFFEFFF7A7FBA9
:1056D0004FF400413448FBF75EFE012805D18103F9
:1056E0003148FBF758FE0128EBD006E06FF02F01A0
:1056F0003020FCF7CAFEFFF792FB4FF400412A4826
:10570000FBF749FE01280BD181032748FBF743FE35
:10571000012805D141032448FBF73DFE0128E5D0CF
:1057200006E06FF02C012D20FCF7AFFEFFF777FBB2
:105730004FF400411C48FBF72EFE60B94FF4804146
:105740001948FBF728FE012805D141031648FBF74D
:1057500022FE0128E5D006E06FF029012A20FCF79F
:1057600094FEFFF75CFB4FF480410F48FBF713FEFC
:10577000012805D141030C48FBF70DFE0128EBD0B1
:105780004FF480410848FBF706FE012817D141037A
:105790000548FBF700FE012811D101030248FBF781
:1057A000FAFD01280BD103E0001401400010014074
:1057B0006FF025012620FCF768FEFFF730FB4FF461
:1057C0000051FE48FBF7E7FD01280BD10103FB4820
:1057D000FBF7E1FD012805D100210846FCF755FE45
:1057E000FFF71DFB641E002C7FF40EAF0224E5E0E2
:1057F00005E046214842FCF748FEFFF710FB4FF456
:105800000071EE48FBF7C7FD012805D18102EB4886
:10581000FBF7C1FD0028ECD005E043214842FCF72E
:1058200034FEFFF7FCFA4FF40071E448FBF7B3FDD8
:10583000012805D18102E148FBF7ADFD0128ECD03C
:1058400005E03F214842FCF720FEFFF7E8FA4FF45D
:105850000071DA48FBF79FFD01280BD18102D74880
:10586000FBF799FD012805D1C102D448FBF793FD50
:105870000128E6D005E03A214842FCF706FEFFF792
:10588000CEFA4FF40071CD48FBF785FD60B94FF4B7
:105890008061CA48FBF77FFD012805D1C102C748D6
:1058A000FBF779FD0128E6D005E035214842FCF7F9
:1058B000ECFDFFF7B4FA4FF48061C048FBF76BFDD5
:1058C000012805D1C102BD48FBF765FD0128ECD0D8
:1058D00005E032214842FCF7D8FDFFF7A0FA4FF46B
:1058E0008061B648FBF757FD01280BD1C102B348D0
:1058F000FBF751FD012805D10103B048FBF74BFD33
:105900000128E6D005E030214842FCF7BEFDFFF754
:1059100086FA4FF48061A948FBF73DFD60B94FF46A
:105920000061A648FBF737FD012805D10103A34814
:10593000FBF731FD0128E6D005E02A214842FCF7BB
:10594000A4FDFFF76CFA4FF400619C48FBF723FDC0
:10595000012805D101039948FBF71DFD0128ECD072
:1059600005E026214842FCF790FDFFF758FA4FF476
:1059700000619248FBF70FFD01280BD101038F480E
:10598000FBF709FD012805D141038C48FBF703FD16
:105990000128E6D04FF480518848FBF7FCFC012831
:1059A0000BD141038548FBF7F6FC012805D1002106
:1059B0000846FCF76AFDFFF732FA641E002C7FF4FC
:1059C00017AF15F1B40F01D0B42D0FD13721084610
:1059D000FCF75BFDFFF723FA6420FCF761F901E0B7
:1059E000FDF788FE3000A6F10106F9D10021084636
:1059F000FCF74BFDFFF713FA70BD052070490870E6
:105A000004204870032088700220C87001200871AB
:105A10000020487105206B4908700420487002205E
:105A200088700320C8700020087101204871644804
:105A30004079654908706248807864490870604818
:105A4000C07863490870704770B5FFF7D6FF032030
:105A5000FDF720FA84B20120FDF71CFA86B204207B
:105A6000FDF718FA85B241F29410844209DD41F243
:105A70003420854205DD41F25C20864201DD0020B4
:105A800070BDB4F57A6F09DD41F20400854205DD91
:105A900041F23010864201DD0120F1E7B4F5616F7B
:105AA00009DD40F6D860854205DD40F68C708642FF
:105AB00001DD0220E4E7B4F5486F09DD40F6F84067
:105AC000854205DD40F6E850864201DD0320D7E738
:105AD000B4F5166F09DD40F68C20854205DD40F6F1
