:020000040800F2
:1000000018090020416D0008D5010008D70100083B
:10001000DB010008DF010008E30100080000000028
:10002000000000000000000000000000E9010008DE
:10003000E701000800000000EB010008ED010008E6
:10004000EF010008F1010008F3010008F5010008C4
:10005000F7010008F9010008FB010008FD01000894
:10006000FF0100080102000803020008FD02000869
:10007000FF0200080103000803030008050300084D
:1000800007030008090300080B0300080D0300081C
:100090000F030008110300081303000815030008EC
:1000A00017030008190300081B0300081D030008BC
:1000B0001F0300087B0300087D0300087F0300087E
:1000C00081030008830300088503000887030008F4
:1000D000890300088B0300088D0300088F030008C4
:1000E0009103000893030008950300089703000894
:1000F000990300089B0300089D0300089F03000864
:10010000A1030008A3030008A5030008A703000833
:10011000A9030008AB030008AD030008AF03000803
:10012000B1030008B3030008B5030008B7030008D3
:1001300000F002F800F03CF80AA090E8000C8244BD
:100140008344AAF10107DA4501D100F031F8AFF29A
:10015000090EBAE80F0013F0010F18BFFB1A43F0A5
:1001600001031847AC810000CC810000103A24BF85
:1001700078C878C1FAD8520724BF30C830C144BF0C
:1001800004680C607047000000230024002500264E
:10019000103A28BF78C1FBD8520728BF30C148BFEA
:1001A0000B6070471FB507F03EFE1FBD10B510BDB8
:1001B00006F09AFD1146FFF7F5FF00F011F906F081
:1001C000B8FD03B4FFF7F2FF03BC014600BF000017
:1001D00030BF0000704700BFFEE700BFFEE700BF72
:1001E000FEE700BFFEE770477047704770477047F3
:1001F0007047704770477047704770477047704747
:10020000704770B500240025002671E06A48006838
:10021000B8B304F051FE0446FA2C00D169E0C82CB2
:1002200003DBFA2C01DA012555E0552C48DBC82CFC
:1002300046DA01206149087061480078401C604935
:10024000087004F04BFE682833D010DC302823D02F
:1002500006DC102825D018281FD022282ED123E014
:10026000382822D0422827D0522827D125E0A2289A
:100270000FD007DC7A2811D0902819D098281DD1EA
:1002800018E035E0A82812D0B02814D0E02815D105
:100290000CE003F06DF811E010E00FE003F094FFC4
:1002A0000CE003F095FF09E008E007E006E005E058
:1002B00004E003E002E001E000E000BF00BF18E05E
:1002C000322C03DB552C01DA012604E00A2C02DB78
:1002D000322C00DA00265DB13A4800684000394906
:1002E00008600846006830440860002034490870FF
:1002F0008CE700BF10203449086070BD704770471C
:100300007047704770477047704770477047704735
:10031000704770477047704770477047704710B517
:100320000121880702F0C5FE18B10121880702F0FB
:10033000D1FE26480068401C24490860244802F089
:10034000A6FE0446642C00D900240021204802F0B7
:100350007DFE20480460204800681E490968084462
:100360001D4908601B4800681C490968884203D978
:10037000184800681949086010BD704770477047F9
:1003800070477047704770477047704770477047B5
:1003900070477047704770477047704770477047A5
:1003A0007047704770477047704770477047704795
:1003B0007047704770477047100123421D000020AE
:1003C0001C00002018000020140401402000002020
:1003D000002C01402C0000202400002028000020D8
:1003E00003F0FAFD00BF04F034FD0028FBD00DA29D
:1003F0001821202004F02BF80DA20021084604F05B
:10040000AAF80DA20A21002004F0A5F80CA21421DC
:10041000002004F0A0F803E00521084600F046F8AB
:10042000FAE70000C7E0B7E6BBFAC6F7C8CB0000A2
:10043000582D593A00000000582D5A3A000000008B
:10044000592D5A3A000000002DE9F04106460C46AD
:1004500015460127304604F035FAA04206DD304645
:1004600004F030FAA84201DA002700E001273846FC
:10047000BDE8F0812DE9F05F06460F4614461D46A3
:10048000DDE90CABDDE90A893946304604F08BFE24
:100490002946204604F087FE4946404604F083FE84
:1004A0005946504604F07FFEBDE8F09F7FB50446F4
:1004B0000D46042203202B46CDE90225CDE9000498
:1004C000022221460120FFF7D5FF7FBD10B54FF472
:1004D000C8624FF496610220FFF7B6FF60B94FF48F
:1004E000C8624FF496610320FFF7AEFF20B9502198
:1004F0004B20FFF7DBFF32E040F68C224FF4C8615F
:100500000220FFF7A1FF20B952214B20FFF7CEFFB9
:1005100025E040F68C224FF4C8610320FFF794FFDA
:1005200020B950214D20FFF7C1FF18E040F6C4125A
:100530004FF4C8610120FFF787FF20B953214B20FA
:10054000FFF7B4FF0BE040F68C224FF4C8610420A3
:10055000FFF77AFF18B950214F20FFF7A7FF10BD12
:1005600010B54FF4C8624FF47A710220FFF76CFFA8
:1005700060B94FF4C8624FF47A710320FFF764FF4B
:1005800020B932212E20FFF791FF4BE040F68C225C
:1005900040F2DC510220FFF757FF20B934212D2013
:1005A000FFF784FF3EE040F6543240F2DC51032076
:1005B000FFF74AFF20B931213020FFF777FF31E004
:1005C00040F68C224FF4AF610120FFF73DFF20B9C8
:1005D00035212C20FFF76AFF24E04FF42F625110E1
:1005E0000420FFF731FF20B930213120FFF75EFFF3
:1005F00018E040F698024FF496610020FFF724FFC0
:1006000020B937212B20FFF751FF0BE040F6FC0209
:100610004FF496610520FFF717FF18B92F213320FB
:10062000FFF744FF10BD10B54FF4C8624FF4966158
:100630000220FFF709FF60B94FF4C8624FF49661DA
:100640000320FFF701FF20B921211E20FFF72EFF15
:100650004CE040F68C224FF4C8610220FFF7F4FE14
:1006600020B923211E20FFF721FF3FE040F68C2216
:100670004FF4C8610320FFF7E7FE20B91E210846AA
:10068000FFF714FF32E04FF42F6240F2DC510120FB
:10069000FFF7DAFE20B924211D20FFF707FF25E030
:1006A0004FF42F6240F2DC510420FFF7CDFE20B959
:1006B00020212320FFF7FAFE18E040F698024FF4BD
:1006C000AF610020FFF7C0FE20B928211C20FFF7F2
:1006D000EDFE0BE04FF4FA624FF496610520FFF750
:1006E000B3FE18B91F212A20FFF7E0FE10BD10B598
:1006F0004FF4FA6240F2DC510920FFF7A5FE70B911
:100700004FF4FA6240F2DC510A20FFF79DFE30B947
:100710006FF059016FF05000FFF7C8FE55E040F64A
:100720008C224FF4FA610920FFF78EFE28B96FF092
:100730005601C81CFFF7BAFE47E040F68C224FF482
:10074000FA610A20FFF780FE30B96FF05C016FF0AC
:100750004D00FFF7ABFE38E040F68C2240F2A4617A
:100760000820FFF771FE28B96FF05501481CFFF70C
:100770009DFE2AE04FF416624FF4E1610B20FFF773
:1007800063FE30B96FF05D016FF04C00FFF78EFE35
:100790001BE040F6980240F2DC510720FFF754FEC0
:1007A00028B96FF05301481EFFF780FE0DE040F6B8
:1007B0008C224FF4E1610C20FFF746FE28B96FF060
:1007C0005D016FF04A00FFF771FE10BD10B54FF4E8
:1007D000617264210220FFF737FE01281DD14FF41A
:1007E000617264210320FFF72FFE012815D14FF419
:1007F000617264210920FFF727FE01280DD14FF413
:10080000617264210A20FFF71FFE012805D16FF0F5
:100810003F01081DFFF74AFE20E14FF46172642199
:100820000920FFF711FE01286BD16FF03E01881CF3
:10083000FFF73CFE54E04FF4617264210220FFF7A1
:1008400003FE012805D16FF03E01881CFFF72EFE44
:1008500046E04FF4617264210320FFF7F5FD0128A3
:1008600005D16FF04001881DFFF720FE38E04FF4FE
:10087000617264210120FFF7E7FD012805D16FF0C7
:100880003D010846FFF712FE2AE04FF46172642131
:100890000420FFF7D9FD012806D16FF041016FF068
:1008A0003900FFF703FE1BE04FF461726421002062
:1008B000FFF7CAFD012805D16FF03D010846FFF79B
:1008C000F5FD0DE04FF4617264210520FFF7BCFDDA
:1008D000012805D16FF041016FF03900FFF7E6FD07
:1008E0004FF4617264210920FFF7AEFD012807D1A2
:1008F0004FF4617264210A20FFF7A6FD01289AD007
:10090000ACE04FF4617264210A20FFF79DFD0128DD
:100910006BD16FF04001881DFFF7C8FD54E04FF424
:10092000617264210220FFF78FFD012805D16FF06D
:100930003E01881CFFF7BAFD46E04FF46172642166
:100940000320FFF781FD012805D16FF04001881DCC
:10095000FFF7ACFD38E04FF4617264210120FFF72E
:1009600073FD012805D16FF03D010846FFF79EFD9C
:100970002AE04FF4617264210420FFF765FD01282D
:1009800006D16FF041016FF03900FFF78FFD1BE0DA
:100990004FF4617264210020FFF756FD012805D154
:1009A0006FF03D010846FFF781FD0DE04FF46172E5
:1009B00064210520FFF748FD012805D16FF04101B2
:1009C0006FF03900FFF772FD4FF461726421092066
:1009D000FFF73AFD012841D14FF4617264210A20EA
:1009E000FFF732FD01289AD038E04FF4617264219C
:1009F0000820FFF729FD012805D16FF03F01881C71
:100A0000FFF754FD2AE04FF4617264210B20FFF7D9
:100A10001BFD012806D16FF041016FF03900FFF78F
:100A200045FD1BE04FF4617264210720FFF70CFDC8
:100A3000012805D16FF03F01881CFFF737FD0DE05D
:100A40004FF4617264210C20FFF7FEFC012805D1F0
:100A50006FF041016FF03900FFF728FD10BD10B5B0
:100A600040F26C724FF496610920FFF7EDFC68B913
:100A700040F26C724FF496610A20FFF7E5FC28B94A
:100A80006FF01D010846FFF711FD38E040F68C229B
:100A900040F26C710920FFF7D7FC28B96FF01B01F9
:100AA000081FFFF703FD2AE040F68C2240F26C712C
:100AB0000A20FFF7C9FC28B96FF01F01081DFFF7D6
:100AC000F5FC1CE040F6C4124FF4E1610820FFF78A
:100AD000BBFC30B96FF018016FF02200FFF7E6FCA5
:100AE0000DE040F68C2240F26C710B20FFF7ACFC5D
:100AF00028B96FF022016FF01800FFF7D7FC10BD86
:100B000070B506460C461546FD480078552840D17C
:100B1000F6B904F056FDA04208D904F052FDA842EF
:100B200004D216211220FFF7C1FC79E004F049FD40
:100B3000A04204D20A211220FFF7B8FC70E004F0B2
:100B400040FDA8426CD916210A20FFF7AFFC67E0F0
:100B5000012E65D104F035FDA04208D904F031FD25
:100B6000A84204D20D210A20FFF7A0FC58E004F0AF
:100B700028FDA04204D207210A20FFF797FC4FE08E
:100B800004F01FFDA8424BD90A210520FFF78EFC77
:100B900046E016BB04F015FDA04209D904F011FD92
:100BA000A84205D26FF01301881CFFF77FFC37E0E5
:100BB00004F007FDA04206D26FF011016FF00900AA
:100BC000FFF774FC2CE004F0FCFCA84228D96FF07D
:100BD00009014800FFF76AFC22E0012E20D104F051
:100BE000F0FCA04209D904F0ECFCA84205D26FF059
:100BF0000B01881CFFF75AFC12E004F0E2FCA04253
:100C000005D26FF009014810FFF750FC08E004F02E
:100C1000D8FCA84204D96FF00401C81FFFF746FCB6
:100C200070BD10B54FF4C8624FF47A710220FFF71F
:100C30000BFC60B94FF4C8624FF47A710320FFF7E0
:100C400003FC20B932212E20FFF730FC4BE040F6A8
:100C50008C2240F2DC510220FFF7F6FB20B9342150
:100C60002D20FFF723FC3EE040F6543240F2DC51E9
:100C70000320FFF7E9FB20B931213020FFF716FCF4
:100C800031E040F68C224FF4AF610120FFF7DCFB2E
:100C900020B935212C20FFF709FC24E04FF42F6206
:100CA00051100420FFF7D0FB20B930213120FFF78D
:100CB000FDFB18E040F698024FF496610020FFF724
:100CC000C3FB20B937212B20FFF7F0FB0BE040F6E8
:100CD000FC024FF496610520FFF7B6FB18B92F21EF
:100CE0003320FFF7E3FB10BD10B540F2DC524FF4A8
:100CF00096610920FFF7A8FB68B940F2DC524FF477
:100D000096610A20FFF7A0FB28B96FF03601481D55
:100D1000FFF7CCFB55E040F68C2240F2DC51092075
:100D2000FFF792FB28B96FF03501881CFFF7BEFB77
:100D300047E040F68C2240F2DC510A20FFF784FBAA
:100D400030B96FF038016FF03000FFF7AFFB38E0DB
:100D50004FF42F624FF4C8610820FFF775FB28B9E4
:100D60006FF033010846FFF7A1FB2AE04FF416624B
:100D70004FF4E1610B20FFF767FB30B96FF03701EB
:100D80006FF02E00FFF792FB1BE040F698024FF445
:100D9000AF610720FFF758FB28B96FF03201C81F79
:100DA000FFF784FB0DE040F68C224FF496610C2097
:100DB000FFF74AFB28B96FF039016FF02D00FFF7FC
:100DC00075FB10BD10B50446DCBB4FF461726421A5
:100DD0000220FFF739FB01280CD14FF46172642126
:100DE0000320FFF731FB012804D123211E20FFF748
:100DF0005DFBC2E04FF4617264210220FFF724FB27
:100E0000012804D12A211720FFF750FBB5E04FF449
:100E1000617264210320FFF717FB012804D11C2114
:100E20002520FFF743FBA8E04FF461726421012005
:100E3000FFF70AFB012805D12D211420FFF736FB0F
:100E40009BE026E04FF4617264210420FFF7FCFA76
:100E5000012804D11C212520FFF728FB8DE04FF449
:100E6000617264210020FFF7EFFA012804D13021DC
:100E70001320FFF71BFB80E04FF461726421052013
:100E8000FFF7E2FA012878D113213020FFF70EFB9B
:100E900073E0012C71D14FF4617264210920FFF7D6
:100EA000D3FA01280DD14FF4617264210A20FFF7B3
:100EB000CBFA012805D16FF01D01481FFFF7F6FAA4
:100EC0005BE04FF4617264210920FFF7BDFA01284D
:100ED00006D16FF016016FF02900FFF7E7FA4CE03A
:100EE0004FF4617264210A20FFF7AEFA012809D19C
:100EF0006FF023016FF01B00FFF7D8FA3DE0000010
:100F0000000000204FF4617264210820FFF79CFA72
:100F1000012806D16FF02C016FF01300FFF7C6FA1D
:100F20002BE04FF4617264210B20FFF78DFA01284A
:100F300006D16FF024016FF01B00FFF7B7FA1CE039
:100F40004FF4617264210720FFF77EFA012806D171
:100F50006FF012016FF02F00FFF7A8FA0DE04FF4C9
:100F6000617264210C20FFF76FFA012805D16FF040
:100F70002F016FF01200FFF799FA10BD10B504466B
:100F800004BB4FF4617264210220FFF75DFA01286F
:100F90000CD14FF4617264210320FFF755FA012848
:100FA00004D11E212120FFF781FA3FE04FF4617246
:100FB00064210220FFF748FA012804D120212120D2
:100FC000FFF774FA32E04FF4617264210320FFF7F7
:100FD0003BFA012804D11B212420FFF767FA25E002
:100FE0004FF4617264210120FFF72EFA012804D129
:100FF0001E212520FFF75AFA18E04FF46172642190
:101000000420FFF721FA012804D11A212420FFF738
:101010004DFA0BE04FF4617264210520FFF714FADA
:10102000012803D119212520FFF740FA012C61D1B5
:101030004FF4617264210220FFF706FA01280CD1F7
:101040004FF4617264210320FFF7FEF9012804D1F7
:1010500023211E20FFF72AFA4CE04FF4617264212D
:101060000220FFF7F1F9012804D124211E20FFF707
:101070001DFA3FE04FF4617264210320FFF7E4F9A9
:10108000012804D122211E20FFF710FA32E04FF48C
:10109000617264210120FFF7D7F9012804D12521CD
:1010A0001E20FFF703FA25E04FF46172642104204B
:1010B000FFF7CAF9012804D121212320FFF7F6F90F
:1010C00018E04FF4617264210020FFF7BDF9012898
:1010D00004D126211E20FFF7E9F90BE04FF46172DD
:1010E00064210520FFF7B0F9012803D120211E203B
:1010F000FFF7DCF910BD10B50446FF48007855280D
:101100000BD10CB9FFF7E2F9012C01D1FFF728FA56
:10111000022C0DD1FFF787FA0AE00CB9FFF7E7FAC6
:10112000012C01D1FFF752FB022C01D1FFF797FCF4
:1011300010BD7FB505460C46EDBB5A2C3ED12D2186
:101140004842FFF7B3F9082001F0DFFF00BF40F687
:101150008C224FF448710020FFF776F90028F6D171
:101160001E214842FFF7A2F900BF40F68C224FF43F
:10117000AF610120FFF768F90028F6D10A21484243
:10118000FFF794F900BF40F68C224FF4AF610220C4
:10119000FFF75AF90028F6D100210846FFF786F933
:1011A0006FF031013220FFF781F900210846FFF787
:1011B0007DF90A2000E060E001F0A7FF1E2C2FD18E
:1011C00022216042FFF772F9322001F09EFF00BF3A
:1011D00040F68C224FF47A710020FFF735F9002891
:1011E000F6D10F214842FFF761F900BF40F68C228B
:1011F0004FF47A710120FFF727F90028F6D100BFDC
:1012000040F68C224FF47A710220FFF71DF9002876
:10121000F6D100210846FFF749F90A2001F075FFD1
:101220002D2C2BD11E2304222D2103208DE80F000D
:101230005B42022249420120FFF71CF90A2001F01B
:1012400064FF00BF40F68C224FF47A710020FFF754
:10125000FBF80028F6D100BF40F68C224FF47A71DB
:101260000120FFF7F1F80028F6D100210846FFF72A
:101270001DF90A2001F049FF00E000BF7FBD10B555
:1012800064214842FFF712F9E62001F03EFF0021F9
:101290000846FFF70BF910BD7FB505460C46F5BBB8
:1012A0005A2C39D16FF02C012D20FFF7FFF80820C0
:1012B00001F02BFF00BF40F68C224FF47A7105201D
:1012C000FFF7C2F80028F6D16FF01D011E20FFF7CE
:1012D000EDF800BF40F68C224FF4AF610420FFF719
:1012E000B3F80028F6D100BF40F68C224FF4AF616E
:1012F0000320FFF7A9F80028F6D100210846FFF7E0
:10130000D5F832214842FFF7D1F800210846FFF70F
:10131000CDF80A2001F0F9FE1E2C37D100E036E0AE
:101320006FF01F0304226FF0130103208DE80F00FC
:101330001E23022214210120FFF79CF8322001F025
:10134000E4FE00BF40F68C224FF47A710520FFF7CF
:101350007BF80028F6D100BF40F68C2240F2AA515B
:101360000420FFF771F80028F6D100BF40F68C2268
:1013700040F2AA510320FFF767F80028F6D10021B8
:101380000846FFF793F80A2001F0BFFEA0E0012D08
:101390007DD15A2C39D16FF02C012D20FFF786F822
:1013A000082001F0B2FE00BF40F68C224FF47A71A3
:1013B0000C20FFF749F80028F6D16FF01D011E2020
:1013C000FFF774F800BF40F68C224FF4AF610B209A
:1013D000FFF73AF80028F6D100BF40F68C224FF410
:1013E000AF610A20FFF730F80028F6D10021084647
:1013F000FFF75CF832214842FFF758F80021084611
:10140000FFF754F80A2001F080FE1E2C31D16FF056
:1014100021011E20FFF74AF8322001F076FE00BFBE
:1014200040F68C224FF47A710920FFF70DF800285E
:10143000F6D16FF00E010F20FFF738F800BF40F62D
:101440008C224FF47A710A20FEF7FEFF0028F6D1B5
:1014500000BF40F68C224FF47A710B20FEF7F4FFA8
:101460000028F6D100210846FFF720F80A2001F0F5
:101470004CFE2D2C2CD16FF01D0304226142032061
:101480008DE80F001E2302222D21012000E01FE025
:10149000FEF7F0FF0A2001F038FE00BF40F68C2274
:1014A0004FF47A710C20FEF7CFFF0028F6D100BF71
:1014B00040F68C224FF47A710B20FEF7C5FF00280E
:1014C000F6D100210846FEF7F1FF0A2001F01DFECB
:1014D0007FBD2DE9F047824600208146074606463B
:1014E0000546044680460448007855283BD140F61E
:1014F0008C224FF4AF6101E0000000200020FEF7D5
:10150000A3FF08B94FF0010840F68C2240F2A46115
:101510000120FEF799FF00B9012440F68C2240F229
:10152000A4610220FEF790FF00B9012540F68C224D
:1015300040F2A4610320FEF787FF00B9012640F6C0
:101540008C2240F2A4610420FEF77EFF00B901273F
:1015500040F68C224FF4AF610520FEF775FFD0BB3B
:101560004FF0010937E040F68C2240F2AA510720E3
:10157000FEF76AFF08B94FF0010840F68C2240F2EE
:10158000AA510820FEF760FF00B9012440F68C2222
:1015900040F2AA510920FEF757FF00B9012540F695
:1015A0008C2240F2AA510A20FEF74EFF00B9012614
:1015B00040F68C2240F2AA510B20FEF745FF00B9FD
:1015C000012740F68C2240F2AA510C20FEF73CFF86
:1015D00008B94FF00109B8F1010F01D1012C48D031
:1015E000B8F1010F03D1012C01D1012D41D0B8F187
:1015F000010F05D1012C03D1012D01D1012E38D0CD
:10160000B8F1010F07D1012C05D1012D03D1012E15
:1016100001D1012F2DD0B8F1010F0AD1012C08D131
:10162000012D06D1012E04D1012F02D1B9F1010FF4
:101630001FD0012C08D1012D06D1012E04D1012F7C
:1016400002D1B9F1010F14D0012D06D1012E04D120
:10165000012F02D1B9F1010F0BD0012E04D1012FBE
:1016600002D1B9F1010F04D0012F04D1B9F1010F5A
:1016700001D10AF1010A00208146074606460546C7
:10168000044680465046BDE8F0872DE9F041064605
:101690004FF47A770024002500210846FEF706FF64
:1016A0000A2001F04DFD09E0122003F041F900B9D4
:1016B0000124132003F03CF900B901253800A7F1FB
:1016C0000107F1D1FF480078552876D12D2E4DD154
:1016D0004AE0122003F02CF940B9132003F028F956
:1016E00020B900210846FEF7E1FE3EE0122003F09B
:1016F0001FF938B9012D05D16FF01D010020FEF74B
:10170000D5FE31E0122003F013F928B925B91E21C6
:101710000020FEF7CBFE27E0132003F009F938B9CB
:10172000012C05D100216FF01D00FEF7BFFE1BE06C
:10173000132003F0FDF828B924B900211E20FEF77C
:10174000B5FE11E0012C07D1012D05D16FF0130179
:101750000846FEF7ABFE07E034B92DB901F094FE60
:1017600014210846FEF7A2FEB3E7BAE0042E18D112
:1017700015E0122003F0DCF820B900210846FEF73E
:1017800095FE0DE0012C05D16FF027010846FEF70C
:101790008DFE04E01CB928210846FEF787FEE8E725
:1017A0009FE0052E18D116E0132003F0C1F828B9E8
:1017B00000210846FEF77AFE0EE00EE0012D05D16D
:1017C0006FF01D010846FEF771FE04E01DB90A2105
:1017D0000846FEF76BFEE7E783E02D2E4BD148E08D
:1017E000122003F0A5F840B9132003F0A1F820B9A6
:1017F00000210846FEF75AFE3CE0122003F098F85C
:1018000030B9012D04D11E210020FEF74FFE30E03B
:10181000122003F08DF830B92DB96FF01D010020B2
:10182000FEF744FE25E0132003F082F830B9012CC6
:1018300004D100211E20FEF739FE1AE0132003F028
:1018400077F830B92CB900216FF01D00FEF72EFE9D
:101850000FE0012C06D1012D04D128210846FEF706
:1018600025FE06E02CB925B96FF027010846FEF7E2
:101870001DFEB5E735E0042E18D115E0122003F067
:1018800057F820B900210846FEF710FE0DE0012CA4
:1018900004D128210846FEF709FE05E024B96FF0BF
:1018A00027010846FEF702FEE8E71AE0052E18D1E8
:1018B00015E0132003F03CF820B900210846FEF79C
:1018C000F5FD0DE0012D04D128210846FEF7EEFDBF
:1018D00005E025B96FF027010846FEF7E7FDE8E7C8
:1018E00000BFBDE8F08110B57648007855281AD1C0
:1018F00002E00120FFF7FFFB142003F019F8002895
:10190000F7D100210846FEF7D1FD02F05DFC4FF44F
:10191000967001F0FAFB02F05BFC6A480078C04365
:101920006849087017E002E00120FFF7E4FB15208A
:1019300002F0FEFF0028F7D100210846FEF7B6FDB1
:1019400002F042FC4FF4967001F0DFFB02F040FC25
:1019500055205C49087010BD70B504460D4616460A
:1019600004E0324629462046FFF7CAF8142002F068
:10197000DFFF0028F5D100210846FEF797FD02F0B1
:1019800023FC4FF4967001F0C0FB02F021FC70BD07
:101990002DE9F05F04464FF0010B0020824681469E
:1019A0008046074606460546F4BB40F6B8324FF47B
:1019B0007A71FEF749FD00B9012540F6B8324FF4BF
:1019C0007A710120FEF740FD00B9012640F6B832D9
:1019D0004FF47A710220FEF737FD00B9012740F677
:1019E000B8324FF47A710320FEF72EFD08B94FF09C
:1019F000010840F6B8324FF47A710420FEF724FD56
:101A000008B94FF0010940F6B8324FF47A71052059
:101A1000FEF71AFD08B94FF0010A012D60D1012E21
:101A20005ED1012F5CD100E00BE0B8F1010F57D17E
:101A3000B9F1010F54D1BAF1010F51D14FF0000BA0
:101A40004EE0012C4CD140F6B8324FF47A710720A9
:101A5000FEF7FAFC00B9012540F6B8324FF47A716E
:101A60000820FEF7F1FC00B9012640F6B8324FF429
:101A70007A710920FEF7E8FC00B9012740F6B83278
:101A80004FF47A710A20FEF7DFFC08B94FF0010825
:101A900040F6B8324FF47A710B20FEF7D5FC08B946
:101AA0004FF0010940F6B8324FF47A710C20FEF77E
:101AB000CBFC08B94FF0010A012D11D1012E0FD135
:101AC000012F01E0000000200AD1B8F1010F07D179
:101AD000B9F1010F04D1BAF1010F01D14FF0000BA0
:101AE00000208246814680460746064605465846FF
:101AF000BDE8F09F70B504460D46F84800785528BB
:101B00003AD137E00220FFF7F6FA162002F010FF74
:101B100018B1172002F00CFF60BB02F059FB26E061
:101B20000120FFF735FFE8B919E002F04DFB002076
:101B3000FFF72EFF20B92A4621460020FEF7E0FFDE
:101B40000020FFF725FF012803D12A462146FEF792
:101B5000D7FF0120FFF71CFF012800D100E0E4E7D8
:101B600000BF05E02A4621460020FEF7C9FFD7E75F
:101B700000BF00E0C6E73CE039E00120FFF7BBFA18
:101B8000182002F0D5FE18B1192002F0D1FE70BB6A
:101B900002F01EFB28E00020FFF7FAFEF8B919E07A
:101BA00002F012FB0120FFF7F3FE20B92A4621467E
:101BB0000020FEF7A5FF0120FFF7EAFE012803D170
:101BC0002A462146FEF79CFF0020FFF7E1FE012890
:101BD00000D100E0E4E700BF02F0FAFA05E02A468F
:101BE00021460020FEF78CFFD5E700BF00E0C4E7E8
:101BF00000BF70BD2DE9F0478246BAF1000F7DD1DC
:101C000092E0FEF72CFF00208146804607460546FD
:101C10000446064640F68C2240F2AA510720FEF701
:101C200013FC00B9012640F68C2240F2AA5108208C
:101C3000FEF70AFC00B9012440F68C2240F2AA51BA
:101C40000920FEF701FC00B9012540F68C2240F284
:101C5000AA510A20FEF7F8FB00B9012740F68C22B2
:101C600040F2AA510B20FEF7EFFB08B94FF0010834
:101C700040F68C2240F2AA510C20FEF7E5FB08B991
:101C80004FF00109012E01D1012C4CD0012E03D1BE
:101C9000012C01D1012D46D0012E05D1012C03D1FB
:101CA000012D01D1012F3ED0012E08D1012C06D1EA
:101CB000012D04D1012F02D1B8F1010F33D0012E33
:101CC0000BD1012C09D1012D07D1012F05D1B8F17C
:101CD000010F02D1B9F1010F25D0012C09D1012D3D
:101CE00007D1012F05D1B8F1010F02D1B9F1010FD0
:101CF00019D0012D09D1012F07D100E016E0B8F16C
:101D0000010F02D1B9F1010F0DD0012F05D1B8F1AA
:101D1000010F02D1B9F1010F05D0B8F1010F03D1C4
:101D2000B9F1010F00D100E06BE75CE0BAF1010FFF
:101D300059D156E0FEF775FF0020814680460746E0
:101D400005460446064640F68C224FF4AF61FEF786
:101D50007BFB00B9012640F68C2240F2A4610120F1
:101D6000FEF772FB00B9012440F68C2240F2A46118
:101D70000220FEF769FB00B9012540F68C2240F2F3
:101D8000A4610320FEF760FB00B9012740F68C2216
:101D900040F2A4610420FEF757FB08B94FF0010898
:101DA00040F68C224FF4AF610520FEF74DFB08B9D9
:101DB0004FF00109012E01D1012C11D0012E01D1CA
:101DC000012D0DD0012E01D1012F09D0012C01D1FF
:101DD000012D05D0012C04D1012D02D1012F00D1FC
:101DE00000E0A7E700BFBDE8F08710B504469CBB44
:101DF00025E00120FFF77FF9162002F099FD18B1C8
:101E0000172002F095FDD0B900210846FEF74EFBE1
:101E100003E021211E20FEF749FB142002F088FD7B
:101E20000028F6D100210846FEF740FB02F0CCF96D
:101E30004FF4967001F069F902F0CAF900E0D8E7B2
:101E400000BF6FF01601C81CFEF730FB642001F0E4
:101E50005CF9FFF714FA15E016E017211420FEF7DD
:101E600025FB0020FFF794FD01280BD107E0FEF7CA
:101E7000DAFB0120FFF78CFD012800D100E0F6E736
:101E800000BF00E0E9E74FE0012C4DD128E0012040
:101E9000FFF731F9162002F04BFD18B1172002F0C0
:101EA00047FDE8B900210846FEF700FB04E06FF0AB
:101EB0002001C81CFEF7FAFA142002F039FD0028B0
:101EC000F5D100210846FEF7F1FA02F07DF94FF452
:101ED000967001F01AF902F07BF902E00000002090
:101EE000D5E700BF17211420FEF7E0FA642001F0C7
:101EF0000CF9FFF7C4F915E06FF01601C81CFEF7E6
:101F0000D5FA0120FFF744FD01280BD107E0FEF7C9
:101F10008AFB0020FFF73CFD012800D100E0F6E736
:101F200000BF00E0E8E700BF10BD10B542E0FEF7DB
:101F300078FE162002F0FCFC18B1172002F0F8FC25
:101F4000A0BB0EE017211420FEF7B0FA012001F02B
:101F5000A9FAAA2805DA032001F0A4FAC02800DDB6
:101F600000E0EFE700BF40F2366240F2BE510020D1
:101F7000FFF7F2FC6FF01601C81CFEF797FA642019
:101F800001F0C3F8FFF77BF911E040F6874240F615
:101F9000FB310120FEF7B4FD0020FFF7F9FC01281A
:101FA00005D1FFF7F5FC012801D101E002E0ECE7E3
:101FB00000BF00E0BBE700BF10BD10B53EE0FEF77C
:101FC00093FE182002F0B4FC88BB192002F0B0FC8C
:101FD00068BB02F0F9F82EE0FEF741FD012001F0A8
:101FE00061FAC32827DD032001F05CFAC32822DD53
:101FF00000210846FEF75AFA1AE06FF01D01084664
:10200000FEF754FA012001F04DFAB12810DA012050
:1020100001F048FAA0280BDD032001F043FAB728AD
:1020200006DD032001F03EFAC82801DA01E005E0F0
:10203000E3E700BF00E0CFE700BF00E0BFE700BF7D
:1020400002F0C6F810BD10B52CE0FEF7EAFD162030
:1020500002F06EFC30BB172002F06AFC10BB1EE0E1
:10206000FEF7E1FA012001F01DFAAA2817DA032091
:1020700001F018FABE2812DD0EE01E210846FEF718
:1020800015FA012001F00EFAC32805DD032001F046
:1020900009FAC32800DD00E0EFE700BF00E0DFE75A
:1020A00000BF00E0D1E700BF10BD10B52DE000205B
:1020B000FEF788FE162002F03BFC30BB172002F032
:1020C00037FC10BB1EE0FEF7AEFA012001F0EAF982
:1020D000AA2817DA032001F0E5F9BE2812DD0EE088
:1020E0001E210846FEF7E2F9012001F0DBF9C328C2
:1020F00005DD032001F0D6F9C32800DD00E0EFE79D
:1021000000BF00E0DFE700BF00E0D0E700BF10BD88
:1021100010B523E0FEF785FD02F056F8012001F02E
:10212000C1F9AC281ADA032001F0BCF9BE2815DD8C
:1021300011E040F2D66240F2DC510020FEF7E0FCF4
:10214000012001F0AFF9AC2805DD032001F0AAF968
:10215000BE2800DA00E0ECE700BF00E0DAE700BFED
:1021600002F036F84FF4BE6240F296510020FFF7BD
:10217000F3FB6FF01601C81CFEF798F9642000F01D
:10218000C4FFFFF77CF802F01FF826E040F6CA42D1
:1021900040F659410120FEF7B3FC012001F082F91D
:1021A000BA281ADD032001F07DF9BA2815DD11E007
:1021B00040F684524FF455610120FEF7A1FC012046
:1021C00001F070F9BA2805DA032001F06BF9BA289A
:1021D00000DA00E0ECE700BF00E0D7E700BF122123
:1021E0000F20FEF763F901F0F3FF27E0012001F073
:1021F00059F9BA2822DD032001F054F9BA281DDD6F
:1022000019E040F684524FF455610120FEF778FC46
:102210000020FFF7BDFB01280DD1FFF7B9FB012816
:1022200009D101F03FF9BA2805DA032001F03AF9A3
:10223000BA2800DA00E0E4E700BF00E0D6E700BF1C
:1022400010BD04460D462BE0012001F02BF9AA2811
:1022500026DA032001F026F9BE2821DD022001F054
:1022600021F9A84209D2022001F01CF9A04204D9A8
:102270001C211920FEF71AF912E0022001F012F9D0
:10228000A84204D314211920FEF710F908E0022017
:1022900001F008F9A04203D81C211420FEF706F92A
:1022A000D2E7000010B50446C149601A8C422FD015
:1022B00009DCC048201810D0B0F5806F16D0B0F5FA
:1022C000006F4AD11BE0B0F5806F2AD0B0F5006FE7
:1022D00030D0B0F5406F40D135E00121042003F04B
:1022E00049FB0021042003F045FB37E001210820D1
:1022F00003F040FB0021082003F03CFB2EE001210D
:10230000102003F037FB0021102003F033FB25E001
:102310000121202003F02EFB0021202003F02AFBC6
:102320001CE00121402003F025FB0021402003F0A8
:1023300021FB13E00121802003F01CFB0021802001
:1023400003F018FB0AE00121080203F013FB00214F
:102350004FF4807003F00EFB00E000BF00BF10BD23
:1023600010B50121084603F005FB0021012003F010
:1023700001FB10BDF0B5002200230024002500263B
:10238000002791F803C00CF00F0291F803C01CF075
:10239000100F03D091F802C04CEA0202B1F800C05D
:1023A0001CF0FF0F31D0066800242BE04FF0010C29
:1023B0000CFA04F5B1F800C00CEA0503AB4220D1D9
:1023C000A5004FF00F0C0CFA05F7BE4302FA05FC0E
:1023D0004CEA060691F803C0BCF1280F06D14FF075
:1023E000010C0CFA04FCC0F814C00AE091F803C018
:1023F000BCF1480F05D14FF0010C0CFA04FCC0F8F9
:1024000010C0641C082CD1D30660B1F800C0BCF128
:10241000FF0F34DD466800242EE004F1080C4FF075
:10242000010E0EFA0CF5B1F800C00CEA0503AB4240
:1024300021D1A5004FF00F0C0CFA05F7BE4302FAAC
:1024400005FC4CEA060691F803C0BCF1280F05D143
:1024500004F1080C0EFA0CFEC0F814E091F803C069
:10246000BCF1480F07D104F1080C4FF0010E0EFA31
:102470000CFEC0F810E0641C082CCED34660F0BD02
:102480004FF6FF710180022181700421C1707047F5
:102490000246002093680B4201D0012000E000209A
:1024A00070470146886880B2704702460020D368B2
:1024B0000B4201D0012000E0002070470146C868AF
:1024C00080B2704701617047416170470AB1016194
:1024D00000E041617047C16070474FF480320A43A9
:1024E0008261816182618269826970470022324B18
:1024F0001A684FF680731A4042EA00120A432E4BC4
:102500001A6070472D49C8617047F0B5002200235A
:1025100000250024284E7568C0F3034482B200F4FD
:102520004016B6F5401F08D125F07065224E76683A
:1025300026F07066204F7E6012E000F48016B6F53B
:10254000801F06D1032606FA04F39D4345F070650B
:1025500006E0460D360102FA06F6B54345F0706511
:1025600021B1460D360102FA06F63543124E75606A
:10257000F0BD30B500228B071C0F0F2303FA04F2C5
:102580000D4B08338C1053F8244094438D1043F8BE
:1025900025408C1053F824308C07240F00FA04F4E3
:1025A0002343054C08348D1044F8253030BD00001D
:1025B0000014014000F8FEBF00000140000020426E
:1025C00010B50446F849601A8C4245D00CDCB4F1D1
:1025D000804F1DD0F548201823D0B0F5806F29D04A
:1025E000B0F5006F54D12EE0B0F5806F3DD0B0F55E
:1025F0008E3F03D0B0F5923F4AD13FE00121C8029F
:1026000003F0B8F900214FF4006003F0B3F940E0A3
:102610000121084603F0BBF90021012003F0B7F9BE
:1026200037E00121022003F0B2F90021022003F07B
:10263000AEF92EE00121042003F0A9F900210420C5
:1026400003F0A5F925E00121082003F0A0F90021FD
:10265000082003F09CF91CE00121102003F097F9F9
:102660000021102003F093F913E00121202003F052
:102670008EF90021202003F08AF90AE001214803A5
:1026800003F078F900214FF4005003F073F900E0F3
:1026900000BF00BF10BD028802F08F020280CA880E
:1026A0004B881A4303881A4302808A8882850A88E5
:1026B000028501228282BE4A904202D0BD4A9042E7
:1026C00001D10A7A0286704770B5002200230024E7
:1026D000058C4FF6FE7635400584038C8488028B8A
:1026E0004FF68F752A400D882A43751E2B400D89A1
:1026F0002B434D882B43CD888586AD4DA84202D013
:10270000AC4DA84213D14FF6F7752B404D892B43A2
:102710004FF6FB752B408D882B4347F6FF652C4009
:1027200047F6FF552C408D892C43CD892C4384805E
:102730000283038470BD70B5002200230024058C41
:102740004FF6EF7635400584038C8488028B48F67B
:10275000FF752A400D882D0642EA15424FF6DF75B7
:102760002B400D892D0543EA15434D882D0543EA7D
:102770001543CD8805878E4DA84202D08D4DA842C5
:102780001BD14FF67F752B404D892D0543EA15432C
:102790004FF6BF752B408D882D0543EA154347F64C
:1027A000FF352C4047F2FF752C408D89AD0444EA7B
:1027B0001544CD89AD0444EA154484800283038422
:1027C00070BD70B5002200230024058C4FF6FF6613
:1027D00035400584038C8488828B4FF68F752A40A0
:1027E0000D882A434FF6FF552B400D892D0643EAED
:1027F00015434D882D0643EA1543CD8885876C4DDA
:10280000A84202D06B4DA8421BD14FF2FF752B405E
:102810004D892D0643EA15434FF6FF352B408D8831
:102820002D0643EA154346F6FF752C4045F6FF7525
:102830002C408D892D0544EA1544CD892D0544EAA7
:10284000154484808283038470BD70B50022002308
:102850000024058C4EF6FF7635400584038C848871
:10286000828B48F6FF752A400D882D0642EA1542F4
:102870004DF6FF752B400D892D0743EA15434D8812
:102880002D0743EA1543CD88A0F84050484DA84293
:1028900002D0484DA84205D1C4F30D048D89AD0581
:1028A00044EA154484808283038470BD828B4FF296
:1028B000FF331A408283828B0B0642EA13428283E3
:1028C0007047F0B5002400250026078C4EF6FF7CEB
:1028D00007EA0C070784848B058C0F073E0C40F633
:1028E000FF473C4017063F0C4FEA037C47EA1C4772
:1028F0003C434DF6FF773D4046F480573D4384838B
:102900000584F0BD828B4FF6F3731A408283828B6D
:102910000A4382837047F0B5002400250026078C07
:102920004FF6FF6C07EA0C070784848B058C0F06B3
:102930003E0C4FF60C773C401F0542EA17473C43DC
:102940004FF6FF573D4046F480773D43848305842E
:10295000F0BD028B4FF2FF331A400283028B0B064D
:1029600042EA134202837047F0B500240025002696
:10297000078C4FF6EF7C07EA0C070784048B058C65
:102980000F053E0C40F6FF473C401F0744EA174442
:10299000170644EA17444FF6DF773D4046F010072C
:1029A0003D4304830584F0BD0010004000FCFFBFE0
:1029B000002C014000340140028B4FF6F3731A40A3
:1029C0000283028B0A4302837047F0B5002400257E
:1029D000068C4FF6FE773E400684048B058C4FF63E
:1029E0000C7634401E0542EA164634437E1E3540BE
:1029F00041F00106354304830584F0BD70B50446FB
:102A00000D46288850B92B89AA8869882046FFF787
:102A1000DCFFE9882046FFF7CFFF25E0288804285F
:102A20000AD12B89AA8869882046FFF79DFFE9888B
:102A30002046FFF78EFF17E0288808280AD12B8947
:102A4000AA8869882046FFF766FFE9882046FFF7D5
:102A500059FF09E02B89AA8869882046FFF731FFD2
:102A6000E9882046FFF722FF70BD2DE9F0410446BA
:102A70000D4600260127688808B9022600E00026D6
:102A8000A888012801D1022700E001272888A0B9E1
:102A90002B89AA8869882046FFF797FFE988204696
:102AA000FFF78AFF2B893A4631462046FFF75CFF45
:102AB000E9882046FFF74DFF13E02B89AA88698833
:102AC0002046FFF751FFE9882046FFF742FF2B8998
:102AD0003A4631462046FFF778FFE9882046FFF75F
:102AE0006BFFBDE8F0810A884B881A438B881A4334
:102AF000CB881A430B891A434B891A438B891A4393
:102B0000A0F8442070474FF6FF71818000210180BA
:102B1000C180418001727047002101804180818025
:102B2000C180018141818181C18170470021018083
:102B30004180012181800021C180018170470021F5
:102B4000018041808180C180018141818181704704
:102B500021B1028842F00102028004E0028840F2C2
:102B6000FE331A400280704731B1B0F8442042F47D
:102B70000042A0F8442005E0B0F84420C2F30E0261
:102B8000A0F84420704710B51AB183890B438381A4
:102B900004E08389CC43A4B22340838110BD8182A9
:102BA000704741EA0203A0F84830704710B51AB1E7
:102BB00083890B43838104E08389CC43A4B22340FF
:102BC000838110BD01894FF6F87211400181704771
:102BD000002202894FF68F731A400A430281704720
:102BE00030B504460D4629462046FFF7F1FF2089FF
:102BF00040F00700208130BD2DE9F04104460D462C
:102C000016461F46602D06D13B460122314620461E
:102C1000FFF7AAFE05E03B46012231462046FFF7BA
:102C2000D4FE29462046FFF7D3FF208940F0070055
:102C30002081BDE8F08170B500240489E4B241EA46
:102C400002051E0645EA16452C43048170BD2DE998
:102C5000F04104460D461646984600274346324644
:102C600029462046FFF7E7FF27894FF6F87007400F
:102C700047F007074FF68F70074047F0700727812E
:102C8000BDE8F081F0B504460D4616461F463B46AA
:102C9000324629462046FFF7CEFF208940F4804087
:102CA0002081F0BD0185828270470022028840F2B7
:102CB0008F331A400A4302807047F0B50024002584
:102CC00000260489058B068C4FF6F8773C400C43B0
:102CD0004FF6FC473D4040F201173D434FF6DD778C
:102CE0003E401F0542EA17473E43048105830684A0
:102CF000F0BD0022028B4FF68F731A400A43028305
:102D000070470022028B48F6FF731A400B0642EA16
:102D10001342028370470022828B4FF68F731A4052
:102D20000A43828370470022828B48F6FF731A4061
:102D30000B0642EA13428283704721B1028842F0B7
:102D40008002028004E0028840F27F331A40028051
:102D5000704721B1828842F00402828004E08288B8
:102D60004FF6FB731A408280704721B1828842F08F
:102D70000802828004E082884FF6F7731A4082804E
:102D8000704721B1828842F00102828004E082888B
:102D90004FF6FE731A40828070470022028B4FF676
:102DA000F7731A400A43028370470022028B4FF2E6
:102DB000FF731A400B0642EA134202837047002257
:102DC000828B4FF6F7731A400A43828370470022C2
:102DD000828B4FF2FF731A400B0642EA1342828342
:102DE00070470022028B4FF6FB731A400A4302839E
:102DF00070470022028B4FF6FF331A400B0642EA5F
:102E00001342028370470022828B4FF6FB731A40F5
:102E10000A43828370470022828B4FF6FF331A40A9
:102E20000B0642EA1342828370470022028B4FF660
:102E30007F731A400A43028370470022028BC2F359
:102E40000E020B0642EA1342028370470022828B75
:102E50004FF67F731A400A43828370470022828BA9
:102E6000C2F30E020B0642EA13428283704700222D
:102E7000028C4FF6FD731A400A4302847047002209
:102E8000028C4FF6F7731A400A43028470470022FF
:102E9000028C4FF6DF731A400B0542EA134202849C
:102EA00070470022028C4FF67F731A400B0542EAEE
:102EB0001342028470470022028C4FF6FF531A40DF
:102EC0000B0642EA1342028470470022028C4FF242
:102ED000FF731A400B0642EA134202847047002235
:102EE000028C4DF6FF731A400B0742EA134202842C
:102EF000704710B5038C01248C40E443A4B22340F6
:102F00000384038C02FA01F4A4B22343038410BDAA
:102F100010B5038C04248C40E443A4B22340038402
:102F2000038C02FA01F4A4B22343038410BD30B52C
:102F3000038C01248C40E443A4B22340038409B1F0
:102F4000082918D100F1180303EB61031C684FF640
:102F50008F731C4000F1180303EB61031C6000F148
:102F6000180303EB61031C68144300F1180303EB1F
:102F700061031C6021E00B1F9CB200F1180303EBFE
:102F800064031C6848F6FF731C400B1F9DB200F1E0
:102F9000180303EB65031C600B1F9CB200F11803C0
:102FA00003EB64031B68140643EA14430C1FA5B229
:102FB00000F1180404EB6504236030BD21B10288E0
:102FC00042F00202028004E0028840F2FD331A401F
:102FD0000280704721B1028842F00402028004E0BE
:102FE000028840F2FB331A400280704721B1828888
:102FF00042F08002828004E082884FF67F731A409C
:1030000082807047028840F2F7331A4002800288BB
:103010000A430280704782884FF68F731A4082807D
:1030200082880A438280704702894FF6F8731A40FB
:10303000028102890A430281704702894FF67F7339
:103040001A40028102890A430281704781847047D5
:1030500081857047818670470187704781877047F7
:10306000A0F8401070470288D2B2028002880A435A
:10307000028070470146888E70470146088F70476E
:103080000146888F70470146B1F8400070470146FD
:10309000888C70470146088D704702460020138ACD
:1030A0000B4201D0012000E000207047CA43028299
:1030B000704730B50246002000230024158A05EA37
:1030C0000103958905EA010413B10CB1012000E068
:1030D000002030BDCA430282704700004FF0E0215B
:1030E000096921F004014FF0E02211610146C21785
:1030F00000EB5272D2101F4B1A70194609784FF428
:103100007A7251439A1C118070471A4A921C128895
:1031100042434FF0E0235A6100229A6101221A6172
:1031200000BF4FF0E022116911F0010F02D011F43D
:10313000803FF6D000224FF0E0231A619A61704779
:103140000C4A127842434FF0E0235A6100229A6100
:1031500001221A6100BF4FF0E022116911F0010F46
:1031600002D011F4803FF6D000224FF0E0231A6124
:103170009A61704702000020AC4A0A400243AC4BFF
:103180001A607047072323EA00021202A84B1B1D96
:1031900019684FF6FF031940A64B194311434FF02E
:1031A000E023C3F80C1D70472DE9F04704460D4697
:1031B00016461F463046F11706EB91714FEAA109FA
:1031C000F11706EB91718910A6EB810101F0FF0A5E
:1031D000042101EBCA0000F0FF0A3846FFF7D2FFD6
:1031E000C7F1040004FA00F80F203841284040EAF3
:1031F000080808F00F08202E09DA8F48006801211E
:10320000B14008434FF0E021C1F800010BE08A48CB
:10321000001D0168A6F120020120904001434FF0FB
:10322000E020C0F80411854850F8290008FA0AF196
:103230000143824840F82910BDE8F08770B50D467B
:10324000CE1701EB9676B310CE1701EB9676B6103B
:10325000A1EB8606B606340E794DAD6945F0010541
:10326000774EB5614FEAB63555F823600F25A54076
:10327000AE43744D45F8236055F8235000FA04F628
:103280003543704E46F823506F4D2E6801258D4012
:103290002E436C4D083DC5F8006412F0010F09D0B3
:1032A000694D0C352E6801258D402E43654D083D36
:1032B000C5F80C6412F0020F09D0634D08352E6872
:1032C00001258D402E435F4D083DC5F8086470BD53
:1032D00000B500205A490861C860142048610020E8
:1032E0008861C8610846006840F00100086008462F
:1032F00040685649084052494860084600685449A9
:1033000008404F4908600846006820F480200860A3
:103310000846406820F4FE004860002088600021D4
:103320004FF00060FFF728FF00BD10B5404808309F
:10333000006840F004004FF0E021C1F8100D404853
:10334000C06940F080503E49C8614248406840F43E
:103350008070404948600846006840F004000860FA
:103360000846006840F002000860FCF731FF10BD1D
:103370003048001D2E49091D086070470146084667
:1033800049062F4A926942F001022D4B9A612D4A5B
:10339000083A526822F0E0622A4B083B5A601A460B
:1033A00052680A435A60704730B504460025FFF75B
:1033B0008FFF2348006840F480302149086000BF37
:1033C0001F480068400CFBD04FF480601C494860E7
:1033D000A01EC4B20846406840EA844048600846DF
:1033E000406840F4803048601B48006840F032007C
:1033F000194908601248006840F080701049086060
:1034000000BF0F480068400EFBD00D48406840F0F8
:1034100002000B49486005E009484068C0F3870591
:1034200005F00305022DF7D130BD000080FFFF1F1E
:1034300008ED00E00000FA0500E100E000E400E033
:103440000010024008000140000401400000FFF8A5
:10345000FFFFF6FE00700040002002400E480068AA
:1034600020F470000D49C1F800080846D0F80008A3
:1034700040F44010C1F800080846D0F80C0840F0AD
:103480002000C1F80C08704700200549086070470B
:1034900001200349086070470018014000100140F6
:1034A000940123422DE9F04104460A23F84AF949E0
:1034B000F94803F0C7FA012C1AD1F548B0F9000019
:1034C00004F0D2FB0546F348B0F9000004F0CCFB51
:1034D0000646F148B0F9000004F0C6FB0746012398
:1034E0002A46314603F0EFFAB43080B2BDE8F081ED
:1034F000022C19D1E648B0F9000004F0B5FB0546EE
:10350000E448B0F9000004F0AFFB0646E248B0F929
:10351000000004F0A9FB074602232A46314603F0C7
:10352000D2FAB43080B2E1E7032C19D1D848B0F90F
:10353000000004F099FB0546D648B0F9000004F0FD
:1035400093FB0646D448B0F9000004F08DFB074613
:1035500000232A46314603F0B6FAB43080B2C5E7FC
:103560000020C3E710B5CDA20021084600F06FFF90
:10357000222001F0DDF90446024600211A2001F064
:1035800010F8232001F0D4F90446024600213E2021
:1035900001F007F8242001F0CBF90446024600218F
:1035A000622000F0FEFF0220FFF7AFFDBDA20A215E
:1035B000002000F04CFF252001F0BAF90446024635
:1035C0000A211A2000F0EDFF262001F0B1F904468F
:1035D00002460A213E2000F0E4FF272001F0A8F96E
:1035E000044602460A21622000F0DBFF0220FFF7BA
:1035F0008CFDAEA21421002000F029FF282001F04C
:1036000097F90446024614211A2000F0CAFF292027
:1036100001F08EF90446024614213E2000F0C1FF5D
:103620002A2001F085F9044602461421622000F0A8
:10363000B8FF0220FFF769FD9EA21E21002000F0C6
:1036400006FF2B2001F074F9044602461E211A20C1
:1036500000F0A7FF2C2001F06BF9044602461E2162
:103660003E2000F09EFF2D2001F062F90446024644
:103670001E21622000F095FF0220FFF746FD8FA279
:103680002821002000F0E3FE2E2001F051F904462D
:10369000024628211A2000F084FF2F2001F048F96B
:1036A0000446024628213E2000F07BFF302001F036
:1036B0003FF9044602462821622000F072FF0220F2
:1036C000FFF723FD7FA23221002000F0C0FE312051
:1036D00001F02EF90446024632211A2000F061FF63
:1036E0000220FFF712FD10BD10B578A20021084698
:1036F00000F0ADFE102001F01BF904460246002147
:103700001A2000F04EFF112001F012F90446024683
:1037100000213E2000F045FF122001F009F9044687
:1037200002460021622000F03CFF0220FFF7EDFC82
:1037300068A20A21002000F08AFE132001F0F8F8A8
:10374000044602460A211A2000F02BFF142001F043
:10375000EFF8044602460A213E2000F022FF152021
:1037600001F0E6F8044602460A21622000F019FF43
:103770000220FFF7CAFC59A21421002000F067FEC6
:10378000162001F0D5F80446024614211A2000F054
:1037900008FF172001F0CCF80446024614213E2011
:1037A00000F0FFFE182001F0C3F804460246142181
:1037B000622000F0F6FE0220FFF7A7FC49A21E21BE
:1037C000002000F044FE192001F0B2F80446024641
:1037D0001E211A2000F0E5FE1A2001F0A9F8044687
:1037E00002461E213E2000F0DCFE1B2001F0A0F866
:1037F000044602461E21622000F0D3FE0220FFF79D
:1038000084FC3AA22821002000F021FE1C2001F0B7
:103810008FF80446024628211A2000F0C2FE1D201F
:1038200001F086F80446024628213E2000F0B9FE49
:103830001E2001F07DF8044602462821622000F097
:10384000B0FE0220FFF761FC2AA23221002000F026
:10385000FEFD1F2001F06CF80446024632211A20BA
:1038600000F09FFE202001F063F80446024632215A
:103870003E2000F096FE212001F05AF80446024650
:103880003221622000F08DFE0220FFF73EFC10BDC9
:103890000A00002008000020060000204433343ACB
:1038A000000000004433373A000000004434303A4E
:1038B000000000004434333A000000004434363A3B
:1038C000000000004434393A000000004431363A28
:1038D000000000004431393A000000004432323A1E
:1038E000000000004432353A000000004432383A0B
:1038F000000000004433313A0000000010B5F8A287
:103900000021084600F0A3FD002001F011F8044654
:10391000024600211A2000F044FE012001F008F8C0
:103920000446024600213E2000F03BFE022000F04B
:10393000FFFF044602460021622000F032FE022012
:10394000FFF7E3FBE7A20A21002000F080FD03203F
:1039500000F0EEFF044602460A211A2000F021FE84
:10396000042000F0E5FF044602460A213E2000F054
:1039700018FE052000F0DCFF044602460A21622002
:1039800000F00FFED8A21421002000F060FD0620F8
:1039900000F0CEFF0446024614211A2000F001FE7A
:1039A000072000F0C5FF0446024614213E2000F027
:1039B000F8FD082000F0BCFF0446024614216220F6
:1039C00000F0EFFD0220FFF7A0FBC8A21E2100209F
:1039D00000F03DFD092000F0ABFF044602461E2129
:1039E0001A2000F0DEFD0A2000F0A2FF0446024685
:1039F0001E213E2000F0D5FD0B2000F099FF04466B
:103A000002461E21622000F0CCFD0220FFF77DFB64
:103A1000B7A22821002000F01AFD0C2000F088FF3A
:103A20000446024628211A2000F0BBFD0D2000F0BC
:103A30007FFF0446024628213E2000F0B2FD0E2002
:103A400000F076FF044602462821622000F0A9FD1E
:103A50000220FFF75AFBA8A23221002000F0F7FC59
:103A60000F2000F065FF0446024632211A2000F0C4
:103A700098FD0220FFF749FB10BD10B5A0A2002160
:103A8000084600F0E4FC002000F01CFF044602465B
:103A900000211A2000F085FD012000F013FF0446EC
:103AA000024600213E2000F07CFD022000F00AFFCB
:103AB000044602460021622000F073FD0220FFF759
:103AC00024FB90A20A21002000F0C1FC032000F09A
:103AD000F9FE044602460A211A2000F062FD042085
:103AE00000F0F0FE044602460A213E2000F059FD97
:103AF000052000F0E7FE044602460A21622000F09D
:103B000050FD0220FFF701FB7FA21421002000F0EE
:103B10009EFC062000F0D6FE0446024614211A2020
:103B200000F03FFD072000F0CDFE044602461421C0
:103B30003E2000F036FD082000F0C4FE0446024698
:103B40001421622000F02DFD0220FFF7DEFA6FA2A3
:103B50001E21002000F07BFC092000F0B3FE04468B
:103B600002461E211A2000F01CFD0A2000F0AAFEC9
:103B7000044602461E213E2000F013FD0B2000F0FB
:103B8000A1FE044602461E21622000F00AFD02202A
:103B9000FFF7BBFA5EA22821002000F058FC0C20A1
:103BA00000F090FE0446024628211A2000F0F9FC9D
:103BB0000D2000F087FE0446024628213E2000F03A
:103BC000F0FC0E2000F07EFE044602462821622012
:103BD00000F0E7FC0220FFF798FA4FA23221002004
:103BE00000F035FC0F2000F06DFE04460246322145
:103BF0001A2000F0D6FC0220FFF787FA10BD2DE94D
:103C0000F041012401250121084600F01CFB01219F
:103C1000084600F0CAFB42A21821142000F09BFCC9
:103C200041A21821442000F012FCC2E14048006883
:103C300078B13F48001F006858B13E48006840B165
:103C40003C48001F006820B13A4808380068002846
:103C500073D10A20FFF759FA3548006878B1344823
:103C6000001F006858B13348006840B13148001F58
:103C7000006820B12F4808380068002870D100F093
:103C8000D7FA2C48001F0068A8B9601EC4B2FFF71D
:103C9000FFFB012C08D10121084600F0D4FA0121D4
:103CA000084600F082FB71E0022C6FD10121002058
:103CB00000F0C9FA6AE01E48006830B9012C65D1ED
:103CC000092D63DA681CC5B260E01948001F00685E
:103CD00090BB012C5AD1012D58DD681EC5B255E0AC
:103CE00044303A0044333A0044363A0044393A000A
:103CF0004431323A000000004431353A00000000FF
:103D000041303A0041333A0041363A0041393A00F5
:103D10004131323A000000004131353A00000000E4
:103D200041302D4131350000C4A3C4E2D6B50000B6
:103D30002C0122423C01214200E097E0DB48006870
:103D400020BB601CC4B2FFF79FFB012C09D10121ED
:103D5000084600F078FA0121084600F026FB15E03D
:103D60002CE0022C12D10121002000F06CFA01217C
:103D7000002000F01AFB0021CD48FFF767F9002072
:103D8000CC490860CC490860CC49086000BFCC48E9
:103D900000680028FBD0CA48001F00680028F6D041
:103DA000C24800680028F2D0C048001F0068002800
:103DB000EDD0BE48083800680028E8D0012C55D165
:103DC0000A2D52D2DFE805F05105121D2833393F84
:103DD000454BAFF2B4021821142000F0BCFBAFF247
:103DE000B8021821442000F032FB3EE0B5A21821B1
:103DF000142000F0B0FBB5A21821442000F027FBEE
:103E000033E0B4A218210C2000F0A5FBAFA21821CA
:103E1000442000F01CFB28E0B0A218210C2000F088
:103E20009AFBAAA21821442000F011FB1DE0ADA2CC
:103E30001821082000F00BFB17E0AEA21821082083
:103E400000F005FB11E0AFA21821082000F0FFFAF6
:103E50000BE0B0A21821122000F0F9FA05E0B1A29F
:103E60001821122000F0F3FA00BF00BF022C7DD110
:103E70000A2D08D2DFE805F09905080B0E11255030
:103E80007E90FFF7FAFD90E0FFF738FD8DE0FFF739
:103E90002BFC8AE0FFF766FB87E0A6A2182114201E
:103EA00000F0D5FA0A23A74AA749A84802F0CAFD9C
:103EB000A44AA549A54802F047FD00F0B9F9062536
:103EC00073E0A3A20021084600F045FB0120FFF7A4
:103ED000E9FA074602460021192000F062FB9EA283
:103EE0000A21002000F037FB0220FFF7DBFA07462B
:103EF00002460A21192000F054FB99A21421002047
:103F000000F029FB0320FFF7CDFA074602461421F3
:103F1000192000F046FB48E093A20021084600F07B
:103F200096FA6648006882B20021482000F039FB0A
:103F300091A20E21002000F08AFA5F48006882B248
:103F40000E21482000F02DFB8FA21C21002000F044
:103F50007EFA58480068020C2A21002000F021FB5C
:103F60005448006882B22A211E2000E021E000F0BF
:103F700018FB1AE001F05AFB002605E04FF47A70B6
:103F8000FFF7C3F8701CC6B23C2EF7DB01F05DFBF7
:103F900000F04EF9092508E001F013FB0746024640
:103FA0000021084600F0FDFA00BF00BFC820FFF75F
:103FB000ACF8002C7FF43AAEBDE8F08110B5402398
:103FC000482200211C2000F084FA4FF47A70FFF799
:103FD0009CF800F02DF910BD10B50920FFF7E4F9A9
:103FE0004820FFF77BF86C48806940F004006A497C
:103FF00088610846806940F0080088610846806949
:1040000040F0100088610846806940F02000886117
:104010000846806940F0400088610846806940F0A9
:10402000010088610220FFF7A9F9FFF717FA00F0F5
:10403000B5F800F04DF900F01EFC00F0D1FE00F0E4
:1040400019FF00F073FF00F0E3FF02F00BFA0A2300
:104050003C4A3D493D4802F0F5FC3A4A3A493B4862
:1040600002F072FC01F02CF901F059F902F048FB62
:1040700001218807FEF76CFD01210D48FEF768FD60
:10408000FFF79CFFFFF7BBFD0121002000F0DBF8EC
:104090000121002000F089F900214FF08040FEF757
:1040A00057FD00210248FEF753FD10BD3C0121429F
:1040B000002C014024000020280000202C000020BB
:1040C0002C01224244302D4431350000CAFDD7D6A0
:1040D000D6B500004431362D443333004433342DFB
:1040E00044343900C7E3BDC7B4ABB8D0C6F7D0A3DA
:1040F000D7BC0000C7E3BDC7B4ABB8D0C6F7B2E2C7
:10410000CAD40000D0FDD7AAB1E0C2EBC6F7B2E234
:10411000CAD40000B5E7D7D3C2DEC5CCD0A3D7BC84
:1041200000000000B5E7D7D3C2DEC5CCB2E2CAD4E6
:1041300000000000C7E3BDC7B4C5B3A1D0A3D7BC7E
:10414000D6D000000A000020080000200600002051
:10415000582D593A00000000582D5A3A000000002E
:10416000592D5A3A00000000B5B1C7B0CBD9B6C836
:10417000D6B5A3BA00000000D7EEB4F3CBD9B6C8C9
:10418000D6B5A3BA00000000C2F6B3E5BCC6CAFDAE
:10419000D6B5A3BA00000000001002400E48006827
:1041A00020F470400D49C1F804040846D0F8040416
:1041B00040F44050C1F804040846D0F80C0420F440
:1041C0000060C1F80C047047012005490860704781
:1041D00000200349086070470414014000100140AA
:1041E000AC81224218B10121FC4A116002E0002199
:1041F000FA4A11607047002100BF16E00022F74B19
:10420000083B1A6010F0800F03D001221B1D1A60BA
:1042100003E00022F14B1B1F1A600122EF4B083B09
:104220001A604206100E4A1CD1B20829E6DB70471C
:1042300000B50020FFF7D6FF8020FFF7DCFF01204C
:10424000FFF7D0FF00BD70B504460D46002634B917
:104250000620E34908700A20E249087005E00820BA
:10426000DF4908701020DF49087045EA0410C6B223
:104270000020FFF7B7FF8120FFF7BDFF3046FFF7B3
:10428000BAFF0120FFF7AEFF70BD70B504460D46C2
:10429000002645EA0410C6B20020FFF7A3FF8920DC
:1042A000FFF7A9FF3046FFF7A6FF0120FFF79AFFAF
:1042B00070BD10B504460020FFF794FF8A20FFF779
:1042C0009AFF2046FFF797FF0120FFF78BFF10BDF5
:1042D00010B5C548006820F07060C449C1F80008F6
:1042E0000846D0F8000840F04070C1F800080846C1
:1042F000D0F80C0840F04000C1F80C08BC48006839
:1043000040F48070BA490860BA48006A20F00100A1
:10431000B8490862B848B0F8300C20F00100B6493E
:10432000A1F8300CB248006820F48070B0490860F1
:10433000AE484068C0F31300AC4948600846406886
:10434000AE490843A94948600846C06840F4005097
:10435000C8600846C06840F48040C8600846C0682D
:1043600040F40040C86001209C49083908609B491E
:1043700008600020A249C1F898010220FEF7C5FE9E
:1043800001209F49C1F898010A20FEF7BEFE0520D2
:10439000FFF78FFF00210120FFF777FF01210020A9
:1043A000FFF751FFFFF744FF10BD70B504460D46FF
:1043B00000262CB90C20934908709349087004E03A
:1043C0001020904908709049087045EA0410C6B260
:1043D0000020FFF707FF8220FFF70DFF3046FFF7B1
:1043E0000AFF0120FFF7FEFE70BD70B504460D46C2
:1043F00016460020FFF7F6FE0720FFF7FCFE2046DA
:10440000FFF7F9FE2846FFF7F6FE3046FFF7F3FE0A
:104410000120FFF7E7FE70BD70B505460E46144655
:104420000020FFF7DFFE0820FFF7E5FE2846FFF734
:10443000E2FE3046FFF7DFFE14F8010BFFF7DBFE6C
:104440002078FFF7D8FE0120FFF7CCFE70BD70B5D5
:1044500004460D46164637E0307880281ADA32785E
:1044600029462046FFF7C1FF5D480078401C2044E4
:10447000C4B27F2C0CDD65480478C5F13F00594972
:104480000978884200DA22E05F4800782844C5B203
:10449000761C19E0324629462046FFF7BDFF5948F1
:1044A0000078401C2044C4B27F2C0CDD57480478AF
:1044B000C5F13F0054490978884200DA07E05248C4
:1044C00000782844C5B2B61C30780028C4D100BF9B
:1044D00070BD2DE9F04704460D4616461F464FF0C5
:1044E0000009CA460020FFF77DFE0E20FFF783FE7D
:1044F0002046FFF780FE2846FFF77DFE3046FFF797
:104500007AFE3846FFF777FEF01DC6B2F01000FBCA
:1045100007F814E00AF1010000F0FF0A3C4911F825
:104520000900FFF768FEBAF1FA0F04DD1C20FEF760
:10453000ECFD4FF0000A09F101001FFA80F95FEA73
:104540000800A8F101011FFA81F8E3D10120FFF76B
:1045500049FEBDE8F08770B504460E4615461BE0DF
:104560002A7831462046FFF740FF1D480078204456
:10457000C4B21B48007820447F280CDD234804780F
:10458000C6F13F0017490978884200DA07E015486C
:1045900000783044C6B26D1C28780028E0D100BFF6
:1045A00070BD70B504460D4616460020FFF71AFE92
:1045B0000C20FFF720FE2046FFF71DFE2846FFF7E0
:1045C0001AFE3012FFF717FEF0B2FFF714FE0020BC
:1045D000FFF711FE0120FFF705FE70BDBC0122426E
:1045E00012000020130000200018014000100140BC
:1045F00000700040001002400060004000002022D7
:1046000000002342140000201500002016000020A6
:104610001E80000800B58BB0F84801F005FCF84892
:104620000090F8480190002002904FF448700390E9
:1046300000200490802005904000069080000790A4
:10464000202008900002099000200A906946EB485B
:1046500001F08DFC0BB000BD00B585B0E8484C38CA
:1046600001F0D0F90020009001208DF804008DF8B1
:1046700005004FF4602002900020039010208DF878
:1046800010006946DE484C3801F0E9F907230122A1
:104690000021DB484C3801F078FA0723022201217F
:1046A000D7484C3801F071FA072303220221D4487D
:1046B0004C3801F06AFA072304220321D0484C3811
:1046C00001F063FA072305220421CD484C3801F09C
:1046D0005CFA072306220521C9484C3801F055FA37
:1046E00007231A460621C6484C3801F04EFA072324
:1046F00008221946C2484C3801F047FA072309221C
:104700000821BF484C3801F040FA07230A2209214A
:10471000BB484C3801F039FA07230B220A21B8486C
:104720004C3801F032FA07230C220B21B4484C38E4
:1047300001F02BFA07230D220C21B1484C3801F06F
:1047400024FA07230E220D21AD484C3801F01DFA42
:1047500007230F220E21AA484C3801F016FA07232E
:1047600010220F21A6484C3801F00FFA0121A4486D
:104770004C3801F0AAF90121A1484C3801F09AF90E
:104780009F484C3801F0B8F900BF9D484C3801F003
:10479000B8F90028F9D19A484C3801F0BCF900BFAB
:1047A00097484C3801F0BCF90028F9D105B000BD9C
:1047B00008B5FF20ADF8000000208DF803000320AD
:1047C0008DF8020069469048FDF7D4FD0320ADF84E
:1047D000000000208DF8030003208DF802006946D8
:1047E0008A48FDF7C7FD3F20ADF8000000208DF896
:1047F000030003208DF8020069468548FDF7BAFDE5
:104800004FF63870ADF8000048208DF80300694677
:104810007E48FDF7AFFD4FF48050ADF80000482012
:104820008DF8030069467A48FDF7A4FD40F2FF7059
:10483000ADF8000048208DF8030069467548FDF783
:1048400099FD4FF68370ADF8000048208DF8030005
:1048500069467148FDF78EFD08BD10B5012148027B
:1048600001F06EF84FF4004000F0CEFF0121084641
:1048700001F059F810BD10B5FFF7EFFFFFF798FFF3
:10488000FFF7EAFEFFF7C6FE01215D484C3801F054
:1048900051F90121594801F095FB10BD10B50022D6
:1048A000002105E0574B33F810301A444B1CD9B2A5
:1048B0003229F7DB322392FBF3F3584C24F8103003
:1048C000002210BD30B50446102C29D2DFE804F0D8
:1048D000080A0C0E10121416181A1C1E2022242668
:1048E0000A251DE00B251BE00C2519E00D2517E01E
:1048F000002515E0012513E0022511E003250FE056
:1049000004250DE005250BE0062509E0072507E055
:104910000E2505E00F2503E0082501E0092500BF6D
:1049200000BF2846FFF7BAFF3C4830F8150030BDFD
:1049300030B504460025322C21D2DFE804F01921DD
:104940002A333C454E57757D858E97A0A9B2BAC3D0
:10495000CCF3FCEEEDECEBEAE9E8E7E6E5E4E3E2D4
:10496000E1E0DFDEDDDCDBDAD9D8D7D6D5D4D3D2AF
:104970002B480068012801D1012500E0002508E24C
:104980002748001D0068012801D1012500E000250D
:10499000FFE1234808300068012801D1012500E02B
:1049A0000025F6E11E480C300068012801D10125E0
:1049B00000E00025EDE11A4810300068012801D11F
:1049C000012500E00025E4E11548143000680128C5
:1049D00001D1012500E00025DBE111481830006815
:1049E000012801D1012500E00025D2E10C481C304E
:1049F0000068012816D1012515E0000008000240DA
:104A00004C2401403000002000080140000C01400F
:104A100000100140001401400018014094000020E3
:104A20001C0123420025B4E1E9480068012801D1B6
:104A3000012500E00025ACE1E6480068012801D12D
:104A4000012500E00025A4E1E248001D00680128DE
:104A500001D1012500E000259BE1DE480830006817
:104A6000012801D1012500E0002592E1D9480C3050
:104A70000068012801D1012500E0002589E1D54821
:104A800010300068012801D1012500E0002580E1F7
:104A9000D04814300068012801D1012500E000252C
:104AA00077E1CD480068012801D1012500E000250B
:104AB0006FE1C948001D0068012801D1012500E00F
:104AC000002566E1C44808300068012801D10125AD
:104AD00000E000255DE1C1480068012820D10125E2
:104AE0001FE04BE13FE133E127E11BE10FE103E18F
:104AF000F7E0EBE0DFE0D3E0C7E0BBE0AFE0A3E04E
:104B000097E08DE083E079E06FE065E05BE051E005
:104B100047E03DE033E029E01FE015E00BE001E075
:104B2000002536E1AC4820380068012801D1012574
:104B300000E000252DE1A8481C380068012801D1BB
:104B4000012500E0002524E1A34818380068012869
:104B500001D1012500E000251BE19F4814380068C1
:104B6000012801D1012500E0002512E19A48103802
:104B70000068012801D1012500E0002509E19648DF
:104B80000C380068012801D1012500E0002500E172
:104B9000914808380068012801D1012500E000256E
:104BA000F7E08D48001F0068012801D1012500E0D1
:104BB0000025EEE087481C380068012801D1012556
:104BC00000E00025E5E0834818380068012801D19D
:104BD000012500E00025DCE07E481438006801284B
:104BE00001D1012500E00025D3E07A4808380068AB
:104BF000012801D1012500E00025CAE07548001F09
:104C00000068012801D1012500E00025C1E07048BD
:104C10003C380068012801D1012500E00025B8E0FA
:104C20006B4838380068012801D1012500E00025D3
:104C3000AFE00020FFF746FE40F2DC51884201DB86
:104C4000012500E00025A4E00120FFF73BFE40F233
:104C5000DC51884201DB012500E0002599E00220BB
:104C6000FFF730FE40F2DC51884201DB012500E015
:104C700000258EE00320FFF725FE40F2DC5188423C
:104C800001DB012500E0002583E00420FFF71AFE88
:104C900040F2DC51884201DB012500E0002578E08C
:104CA0000520FFF70FFE40F2DC51884201DB0125B1
:104CB00000E000256DE00620FFF704FE40F2DC5125
:104CC000884201DB012500E0002562E00720FFF7B4
:104CD000F9FD40F2DC51884201DB012500E00025AE
:104CE00057E00820FFF7EEFD40F2DC51884201DB7F
:104CF000012500E000254CE00920FFF7E3FD40F22C
:104D0000DC51884201DB012500E0002541E00A205A
:104D1000FFF7D8FD40F2DC51884201DB012500E0BD
:104D2000002536E00B20FFF7CDFD40F2DC51884234
:104D300001DB012500E000252BE00C20FFF7C2FD80
:104D400040F2DC51884201DB012500E0002520E033
:104D50000D20FFF7B7FD40F2DC51884201DB012551
:104D600000E0002515E00E20FFF7ACFD40F2DC511D
:104D7000884201DB012500E000250AE00F20FFF753
:104D8000A1FD40F2DC51884201DB012500E0002555
:104D900000BF00BF284630BD70B504465CB90E2088
:104DA000FFF790FD4FF48F7100FB01F5E81705EB5D
:104DB0001050001370BD0F20FFF784FD4FF48F716A
:104DC00000FB01F6F01706EB10500013F2E70000AD
:104DD0003C0123422881214220812242300122428B
:104DE0001F480068C0F313001E49C1F804081C489E
:104DF00000681D4908431B49C1F804080846D0F85B
:104E00000C0840F40050C1F80C080846D0F80C0813
:104E100040F48040C1F80C080846D0F80C0840F473
:104E20000040C1F80C081148406820F47F400F4949
:104E300048600846406840F4084048600846C0683A
:104E400040F48060C8600846C06840F40060C860F4
:104E500070470748006808B9012070470020FCE748
:104E6000040801400000014000008088001001405B
:104E70003401214210B52848006820F470202749E9
:104E8000C1F800080846D0F8000840F40020C1F836
:104E900000080846D0F80C0840F01000C1F80C08D3
:104EA000012204210846FEF7C9F902230A22002143
:104EB0000846FEF779F910BD10B5002408E0601C23
:104EC000C4B21420FEF73CF9FA2C01D1204610BDE3
:104ED000134800680028F2D12046F8E7114800681E
:104EE000010E10480068C0F3074200200E4B1870F6
:104EF000D043C0B281420DD161B90A480068C0F305
:104F0000072108480068C2B2D043C0B2814201D133
:104F1000084670470020FCE70018014000100140DF
:104F200010012342180000201D00002000B589B0A8
:104F30000121042000F011FDD848FDF741FB0121BB
:104F40000803FDF7E2FA4FF47040ADF804001820B2
:104F50008DF8070003208DF8060001A9D048FDF761
:104F600009FA49F63F40ADF80C002320ADF80800DF
:104F70000020ADF80E00ADF80A0002A9C748FDF701
:104F80008AFB6020ADF814000120ADF81600002067
:104F9000ADF81A00ADF81C0005A9C048FDF794FB58
:104FA0000821BE48FDF7F9FE0020ADF81A0005A95A
:104FB000BA48FDF7C0FB0821B848FDF7F6FE00200F
:104FC000ADF81A0005A9B548FDF7FBFB0821B34869
:104FD000FDF7F5FE0020ADF81A0005A9AF48FDF772
:104FE00034FC0821AD48FDF7F2FE0121AB48FDF786
:104FF000A4FE0121A948FDF7ABFDA8484430008874
:1050000040F400404FF08041A1F8440809B000BDD1
:1050100000B589B00121480300F092FC40F2E7306E
:10502000ADF80C004720ADF808000020ADF80E00E8
:10503000ADF80A0002A99B48FDF72DFB6020ADF8F2
:1050400014000120ADF816000020ADF81A00ADF8EC
:105050001C0005A99348FDF737FB08219148FDF78F
:105060009CFE0020ADF81A0005A98E48FDF763FBF1
:1050700008218C48FDF799FE0020ADF81A0005A91B
:105080008848FDF79EFB08218648FDF798FE002022
:10509000ADF81A0005A98348FDF7D7FB0821814820
:1050A000FDF795FE01217F48FDF747FE01217D4870
:1050B000FDF74EFD01217B48FDF756FD4FF4707062
:1050C000ADF8040018208DF8070003208DF80600C5
:1050D00001A97548FDF74EF9744800687449084005
:1050E0007449C1F80408714800687349084371495C
:1050F000C1F804080846D0F80C0840F40070C1F864
:105100000C080846D0F80C0840F48060C1F80C0880
:105110000846D0F80C0840F40060C1F80C080846B6
:10512000D0F80C0840F48050C1F80C0809B000BD5C
:10513000012806D0022810D003281AD0042830D124
:1051400023E001EB410202EBC10240F6B833A3EBCE
:105150004202524B34331A8023E001EB410202EB4E
:10516000C10240F6B833A3EB42024C4B38331A80ED
:1051700017E001EB410202EBC10240F6B833A3EBAA
:105180004202464B3C331A800BE001EB410202EB3A
:10519000C10240F6B833A3EB4202404B40331A80C1
:1051A00000BF00BF7047002939DB012806D0022864
:1051B00010D003281AD0042830D123E001EB81025B
:1051C0005204120C374B34331A8000223B4BC3F885
:1051D000A42123E001EB81025204120C314B38333D
:1051E0001A800022354BC3F8A82117E001EB810299
:1051F0005204120C2B4B3C331A8000222F4BC3F865
:10520000AC210BE001EB81025204120C254B403320
:105210001A800022294BC3F8B02100BF3DE00128CD
:1052200006D0022811D003281CD0042834D126E04F
:105230004A4202EB82025204120C1A4B34331A8097
:1052400001221E4BC3F8A42126E04A4202EB82024F
:105250005204120C134B38331A800122174BC3F837
:10526000A82119E04A4202EB82025204120C0D4BB3
:105270003C331A800122114BC3F8AC210CE04A42A6
:1052800002EB82025204120C064B40331A800122B8
:105290000A4BC3F8B02100BF00BF704700080040B0
:1052A0000014014000340140001001400408014096
:1052B0000F00F0FF000001403033030000002142E6
:1052C0001FB50121084600F048FB4FF47A70ADF895
:1052D000080040F2CF20ADF804000020ADF80A002D
:1052E000ADF8060001A94FF08040FDF7D4F9012286
:1052F00011469007FDF747FC1C208DF800000220A6
:105300008DF8010000208DF8020001208DF80300C7
:10531000684600F000FF0020294908601FBD1FB546
:105320004FF48070ADF80C0004208DF80F000320BE
:105330008DF80E0003A92348FDF71CF80121C802CF
:1053400000F0FEFA2048FDF73BF94FF6FF70ADF88C
:1053500004000020ADF80000ADF80600ADF8020032
:1053600069461948FDF797F908230022502116488D
:10537000FDF742FC00211448FDF768FE00201349A8
:10538000086013490860134908601FBD10B500206C
:105390000B49086001218807FDF7DAFB01210A4863
:1053A000FDF7D6FB10BD10B500214FF08040FDF792
:1053B000CFFB00210448FDF7CBFB0148006810BD7E
:1053C0002000002000080140002C014024000020A3
:1053D000280000202C00002010B5A348006820F011
:1053E0007040A249C1F8000C0846D0F8000C40F00B
:1053F00040509D49086001209D4908609D49C1F8C1
:1054000098010520FDF79CFE00209A49C1F89C01F7
:105410000520FDF795FE00209649C1F8980110BDC2
:1054200010B59148006820F070409049C1F8000C18
:105430000846D0F8000C40F040508B49086000202E
:105440008B49086001208B49C1F898010520FDF7C0
:1054500077FE0120864908600520FDF771FE10BD2A
:1054600010B504468048006820F070407F49C1F8BC
:10547000000C0846D0F8000C40F04050C1F8000C79
:105480007B48046001207B49C1F898010520FDF7A5
:1054900057FE00207649091F08600520FDF750FEE1
:1054A00010BD10B500247048006820F070406F49AE
:1054B000C1F8000C0846D0F8000C40F000406A49E2
:1054C000086001206A49091F08600520FDF738FEC1
:1054D000674880380068C4B200206549091F086029
:1054E0000520FDF72DFE204610BD70B505465E482F
:1054F000006820F070405D49C1F8000C0846D0F803
:10550000000C40F04050C1F8000C002414E0E80901
:10551000574908606806050E01205649C1F89801F0
:105520000520FDF70DFE00205149091F08600520E8
:10553000FDF706FE601CC4B2082CE8DBFFF7B1FFE4
:1055400070BD70B500254848006820F0704047499C
:10555000C1F8000C0846D0F8000C40F04050424919
:10556000086001204349C1F89C014048D0F8000C74
:1055700020F070403D49C1F8000C0846D0F8000CFE
:1055800040F0004038490860002416E06806050E27
:1055900001203749091F08600520FDF7D1FD354876
:1055A000D0F81C012843C5B200203149091F08600A
:1055B0000520FDF7C5FD601CC4B2082CE6DB2846BB
:1055C00070BD10B5FFF708FFE020FFF78EFF002049
:1055D000FFF78BFF3120FFF788FFFFF721FF372010
:1055E000FDF793FDFFF7F8FEE020FFF77EFF0120B7
:1055F000FFF77BFFFFF7F0FEE120FFF776FF1420B7
:10560000FDF79EFDFFF79DFF04460020FFF728FFF2
:1056100024021420FDF794FDFFF793FF04430120BB
:10562000FFF71EFFFFF7FCFE204610BD10B5FFF789
:10563000D3FEE020FFF759FF0020FFF756FFC02000
:10564000FFF753FFFFF7ECFE10BD10B5FFF7C4FEE8
:10565000E020FFF74AFF0020FFF747FFC120FFF7D8
:1056600044FFFFF7DDFE10BD000C014000000140CB
:105670009C81214200802142DA48006840F001000C
:10568000D849086008464068D7490840D54948606D
:1056900008460068D5490840D249086008460068B5
:1056A00020F4802008600846406820F4FE0048602E
:1056B000002088607047CB49096821F48031C94ACD
:1056C00011601146096821F480211160B0F5803F16
:1056D00003D0B0F5802F0ED106E0C249096841F42D
:1056E0008031C04A116007E0BE49096841F4A02139
:1056F000BC4A116000E000BF00BF704710B5014612
:105700000022002300204A11012A02D1B54C23684F
:1057100006E0022A02D1B34C236A01E0B14C636A6D
:1057200001F01F02012494401C4201D0012000E03E
:10573000002010BD70B500240025002600BF3120D8
:10574000FFF7DCFF0646641C16B9B4F5A06FF6D16E
:105750003120FFF7D3FF08B1012500E000252846DE
:1057600070BD00219F4A116821F0F80141EAC00193
:10577000116070479E49086070470022994B5A6833
:1057800022F47C1240EA01031A43964B5A60704798
:105790009749086670470021924A516821F0030139
:1057A0000143516070478F48406800F00C0070471B
:1057B00000218C4A516821F0F0010143516070478B
:1057C0000021884A516821F4E0610143516070472B
:1057D0000021844A516821F4605141EAC0015160BE
:1057E000704729B17F4A527A02437E4B5A7206E0D3
:1057F0007C4A527AC343DBB21A407A4B5A727047E2
:105800007B49D831086070470021764A516821F4FD
:1058100040410143516070470021724A20321170AB
:10582000704A82F82010012802D004280AD104E02E
:1058300001216C4A2032117005E00521694A2032AD
:10584000117000E000BF00BF70476A4908607047F0
:105850006449096A0143634A1162704765494439E2
:105860000860704730B500210022002300245D4D00
:105870006D6805F00C0121B1042905D0082923D158
:1058800005E05D4D056022E05B4D05601FE0554D74
:105890006D6805F47012022505EB9242514D6D685A
:1058A00005F480331BB9554D554305600BE04D4D54
:1058B0006D6815F4003F03D0504D5543056002E07C
:1058C0004D4D5543056002E04B4D056000BF00BFE4
:1058D000444D6D6805F0F0010909494D6C5C05689F
:1058E000E54045603F4D6D6805F4E061090A444DAF
:1058F0006C5C4568E54085603A4D6D6805F4605123
:10590000C90A3F4D6C5C4568E540C560354D6D6822
:1059100005F44041890B3A4D10356C5CC568B5FB08
:10592000F4F5056130BD29B12E4A526902432D4B71
:105930005A6104E02B4A526982432A4B5A617047EC
:1059400029B1284A92690243264B9A6104E0254A0C
:1059500092698243234B9A61704729B1214AD269E7
:105960000243204BDA6104E01E4AD26982431D4B98
:10597000DA61704729B11B4AD2680243194BDA60D9
:1059800004E0184AD2688243164BDA60704729B1A6
:10599000144A12690243134B1A6104E0114A126956
:1059A0008243104B1A6170471249403908607047B2
:1059B0000F49C86470470B49C87170470948406A6D
:1059C00040F0807007494862704701460020054A50
:1059D00092680A4201D0012000E00020704701498E
:1059E00088727047001002400000FFF8FFFFF6FECB
:1059F000000042428004424200127A0000093D0049
:105A00005E82000810B50446FD48201806D0B0F5A7
:105A1000806F0DD0B0F5C05F1ED113E001214802A8
:105A2000FFF7A8FF00214FF40070FFF7A3FF14E079
:105A300001218802FFF79EFF00214FF48060FFF7ED
:105A400099FF0AE00121C803FFF794FF00214FF4FA
:105A50000040FFF78FFF00E000BF00BF10BD30B572
:105A6000002200234268E74C22400D790C6844EA8A
:105A70000524224342608268E34C2240D1E902546B
:105A80002C434D7944EA450422438260C26A22F4E1
:105A900070020C7C641E1C43E3B242EA0352C262F1
:105AA00030BD00210160017141718160C16001213F
:105AB0000174704721B1826842F00102826003E004
:105AC000826822F001028260704721B1826842F44C
:105AD0008072826003E0826822F480728260704784
