:101100003140000A3C4000023E40241330120100EE
:10111000B01216132153B0126011B012FC12F2D0AB
:10112000C8001A00F2F0370019004E43083CF2C024
:1011300040001900F2D0800019004C5C5E537E9292
:10114000092CF2C0800019004C93F137F2D0400016
:101150001900F03FF2D219000343F2C219003041E6
:10116000B240805A20017C40B000B0121E11F2C083
:1011700080005700E2C302007E43013C7E535E9331
:10118000FD2FE2B30200F62FF2D088005800B2D053
:1011900010006201B2D0C0026001B240FF1F920194
:1011A000B2D010008201B2D0D0018001F2D0800014
:1011B0003600F2432A00F243290032D232D05000E6
:1011C0003041F2E08000350000130E12F29300026D
:1011D0000320B2D010006001D25300025E42000230
:1011E0008E113E901100862C0E5E104EEE111012E4
:1011F0001E122C123A1248125612641272128012E7
:101200008E129C12AA12B812C612D412E212F01256
:10121000B24088137201F240FE0029006B3CB240DC
:10122000C4097201F240FD002900643CB240E204AE
:101230007201F240FC0029005D3CB2407102720173
:10124000F240FB002900563CB240F4017201F2402A
:10125000FA0029004F3CB240FA007201F240F90056
:101260002900483CB240A7007201F240F800290072
:10127000413CB2407D007201F240F70029003A3C47
:10128000B24064007201F240F6002900333CB240E3
:1012900053007201F240F50029002C3CB240470097
:1012A0007201F240F4002900253CB2403F00720177
:1012B000F240F30029001E3CB24038007201F240B7
:1012C000F2002900173CB24032007201F240F100F6
:1012D0002900103CB24021007201F240F0002900C8
:1012E000093CB24019007201F240EF002900023CB3
:1012F000F24300023E410013304022133040F81206
:101300001F4102000D4C043CFD4E00001D533F5395
:101310000F93FA23304111120400B012001321532D
:051320003041FF3FFF1A
:02FFEC00C21140
:02FFFA00CA112A
:02FFFE000011F0
:00110001EE
:00000001FF
